:100000000C9428010C9459010C9459010C94590139
:100010000C9459010C9459010C9459010C945901F8
:100020000C9459010C9459010C9459010C945901E8
:100030000C9459010C9459010C9459010C945901D8
:100040000C9459010C9465060C9459010C945901B7
:100050000C9459010C9459010C9459010C943105DC
:100060000C9459010C94A5050C947B050C94590132
:100070000C9459010C9459010C9459010C94590198
:100080000C9437060C9459010C9459010C945901A5
:100090000C9459010C9459010C9459010C94590178
:1000A0000C9459010C9459010C9409060C945901B3
:1000B0000C9459010C9459010C9459010C94DB05D2
:1000C0000C9459010C9459010C9459010C94590148
:1000D0000C9459010C9459010C9459010C94590138
:1000E0000C9459010C9426020C94FE020C942103EA
:1000F0000C945D020C9459020C942D020C944F0246
:100100000C9422020C9437020C9493060C9467030F
:100110000C94B4030C9453020C9407020C94330215
:100120000C944B020C941E020C943D020C942A0277
:100130000C9441020C940D030C942F030C94D102E7
:100140000C9445020C940C020000210024002700AE
:100150002A002D00300033000101000004010701D6
:100160000A0100002200250028002B002E0031008B
:10017000340002010000050108010B010505050519
:10018000070508080808020202020A0A080804040F
:10019000040401010101010101010303030303033D
:1001A0000303040707070C0C0C0C0C0C0C0C0202CC
:1001B000020206060606060606060B0B0B0B0B0BC9
:1001C0000B0B010210202008081020401020408056
:1001D000020102010804020101020408102040800B
:1001E0008040201008040201800402018040201099
:1001F00008040201080402010102040810204080E2
:10020000010204081020408000000A0B02090C0DB6
:100210000E080703040100000000000000000000B9
:1002200000000000000000000000000000000000CE
:10023000000000001211100000000000000000008B
:100240000000000000000000000000000000930615
:1002500011241FBECFEFD1E2DEBFCDBF00E00CBF47
:1002600012E0A0E0B2E0EAE6F2E100E00BBF02C07B
:1002700007900D92AA31B107D9F723E0AAE1B2E0C5
:1002800001C01D92AB35B207E1F711E0C8E2D1E041
:1002900000E006C021970109802FFE010E942B0972
:1002A000C732D10780E00807A9F70E94F0060C9436
:1002B00033090C940000CF92DF92EF92FF92DC01A1
:1002C000A03282E0B807D4F5A53BB10514F0A4EB49
:1002D000B0E04091590328E830E0241B310947FD84
:1002E0003395220F331F220F331F6901330FEE089E
:1002F000FF0840915A0328E532E0241B310947FDED
:100300003395220F331F220F331F032E000C440B93
:10031000550B2C193D094E095F09B7FF02C0B0E02B
:10032000A0E00E94E60824EB30E040E050E00E94AC
:10033000BC08C20ED31EE41EF51ED601E091580380
:10034000E03380F52091590388E890E0821B910901
:1003500027FD9395880F991F880F991FA817B90734
:1003600084F020915A0388E592E0821B910927FDD1
:100370009395880F991F880F991FA817B9070CF438
:10038000CD010297880F991F4FB7F8942E2F30E0B8
:10039000F901EE0FFF1FE20FF31FE953FD4F9283A8
:1003A00081834FBFFF90EF90DF90CF900895282F6B
:1003B00030E0F901E85FFD4F9491F901EE53FE4FF3
:1003C000449124583E4FF9012491222309F435C069
:1003D000992311F191509231F8F4E92FF0E0882738
:1003E000EB50FE4F8F4F0C942B0926022A02070276
:1003F0001E0222020C022D02330237023D0241028C
:1004000045024B024F020C02530259025D028091D9
:1004100080008F7780938000E22FF0E0EE0FFF1FC7
:10042000EE59FE4FA591B4918FB7F894EC916111FC
:1004300048C040954E234C938FBF08958091800013
:100440008F7DE8CF80918000877FE4CF84B58F7760
:1004500084BDE2CF84B58F7DFBCF8091B0008F77D4
:100460008093B000D9CF8091B0008F7DF9CF80917B
:1004700090008F7780939000CFCF809190008F7DF8
:10048000F9CF80919000877FF5CF8091A0008F7782
:100490008093A000C1CF8091A0008F7DF9CF809183
:1004A000A000877FF5CF809120018F778093200176
:1004B000B3CF809120018F7DF9CF80912001877F7C
:1004C000F5CF4E2BB8CF90917B00977F90937B0018
:1004D0008653806480937C0080917A00806480934E
:1004E0007A0080917A0086FDFCCF8091780090910F
:1004F000790008953FB7F8948091260290912702E1
:10050000A0912802B091290226B5A89B05C02F3FD3
:1005100019F00196A11DB11D3FBFBA2FA92F982F29
:100520008827BC01CD01620F711D811D911D42E024
:10053000660F771F881F991F4A95D1F708958F92EC
:100540009F92AF92BF92CF92DF92EF92FF924B01B8
:100550005C010E947A026B017C010E947A026C1994
:100560007D098E099F09683E734081059105A8F3B6
:1005700021E0821A9108A108B10888EEC80E83E034
:10058000D81EE11CF11C81149104A104B10429F7C7
:10059000FF90EF90DF90CF90BF90AF909F908F90A3
:1005A0000895AF92BF92CF92DF92EF92FF920F9396
:1005B0001F93CF93DF936C017B018B01040F151FF9
:1005C000EB015E01AE18BF08C017D10759F0699161
:1005D000D601ED91FC910190F081E02DC6011995B5
:1005E000892B79F7C501DF91CF911F910F91FF9072
:1005F000EF90DF90CF90BF90AF900895FC01538DA6
:10060000448D252F30E0842F90E0821B930B5417EC
:1006100010F0CF96089501970895FC01918D828D79
:10062000981761F0A28DAE0FBF2FB11D5D968C9112
:10063000928D9F5F9F73928F90E008958FEF9FEF51
:100640000895FC01918D828D981731F0828DE80F0D
:10065000F11D858D90E008958FEF9FEF0895FC01C7
:10066000918D228D892F90E0805C9F4F821B910994
:100670008F73992708958AE292E00E942F0321E068
:10068000892B09F420E0822F0895FC01A48DA80F86
:10069000B92FB11DA35ABF4F2C91848D90E00196C4
:1006A0008F739927848FA689B7892C93A089B189E4
:1006B0008C91837080648C93938D848D981306C085
:1006C0000288F389E02D80818F7D80830895EF92E9
:1006D000FF920F931F93CF93DF93EC0181E0888FFC
:1006E0009B8D8C8D98131AC0E889F989808185FFCC
:1006F00015C09FB7F894EE89FF896083E889F9896E
:1007000080818370806480839FBF81E090E0DF916F
:10071000CF911F910F91FF90EF900895F62E0B8DC2
:1007200010E00F5F1F4F0F731127E02E8C8D8E117D
:100730000CC00FB607FCFACFE889F989808185FFE4
:10074000F5CFCE010E944503F1CFEB8DEC0FFD2FCD
:10075000F11DE35AFF4FF0829FB7F8940B8FEA899F
:10076000FB8980818062CFCFCF93DF93EC01888DAE
:100770008823B9F0AA89BB89E889F9898C9185FD1C
:1007800003C0808186FD0DC00FB607FCF7CF8C91AA
:1007900085FFF2CF808185FFEDCFCE010E9445031A
:1007A000E9CFDF91CF91089580E090E0892B29F087
:1007B0000E943B0381110E94000080E090E0892BA1
:1007C00049F080E090E0892B29F00E94000081111F
:1007D0000E94000080E090E0892B49F080E090E0EA
:1007E000892B29F00E94000081110E94000080E006
:1007F00090E0892B49F080E090E0892B29F00E945D
:10080000000081110C9400000895AF92BF92CF9226
:10081000DF92EF92FF920F931F93CF93DF936B01C1
:100820007A01EC01C65EDD4F28813CE0389F8001F3
:10083000399F100D1124A0905703B12C27FF1FC022
:10084000FB011182108288818F5F888388819801E3
:10085000280F311D87FD3A95F6012A153B051CF43A
:1008600088818C30C4F180819181049680349C49C8
:1008700008F473C0F60180819181049670C088816C
:100880009801280F311D87FD3A952A153B05DCF6A6
:100890008881A801480F511D87FD5A95FA01EE0F76
:1008A000FF1FE40FF51FE953FD4F808186FFCBCF7B
:1008B0008881F801E80FF11D87FDFA95CF01EE0F51
:1008C000FF1FE80FF91FE953FD4F808160E08F7330
:1008D0000E94D701B8CF808191812881A801420F61
:1008E000511D27FD5A959A01FA01EE0FFF1FE20FE5
:1008F000F31FE953FD4F21813281820F931FF701CE
:100900009183808388819801280F311D87FD3A9556
:10091000F901EE0FFF1FE20FF31FE953FD4F808136
:1009200086FF22C08881080F111D87FD1A95F801E6
:10093000EE0FFF1FE00FF11FE953FD4F808161E0D3
:100940008F73DF91CF911F910F91FF90EF90DF9008
:10095000CF90BF90AF900C94D70180E49CE9F70151
:10096000918380838FEF8883DF91CF911F910F91C7
:10097000FF90EF90DF90CF90BF90AF900895FC0173
:1009800001900020E9F73197AF01481B590BBC01DA
:100990008AE292E00C94D1028F929F92AF92BF9222
:1009A0000F931F93CF93DF93CDB7DEB7A1970FB609
:1009B000F894DEBF0FBECDBF19A2423008F44AE062
:1009C0008E010F5D1F4F842E912CB12CA12CA501FF
:1009D00094010E94EE08E62FB901CA01EA30F4F44E
:1009E000E05DD801EE938D01232B242B252B79F785
:1009F00090E080E0109719F0CD010E94BF04A1960D
:100A00000FB6F894DEBF0FBECDBFDF91CF911F911F
:100A10000F91BF90AF909F908F900895E95CE1CFC8
:100A2000CF92DF92EF92FF92CF93DF936B017C0125
:100A30006DE28AE292E00E946703EC016627772765
:100A4000CB016C197D098E099F094AE00E94CC04F4
:100A50008C0F9D1FDF91CF91FF90EF90DF90CF9093
:100A600008951F920F920FB60F9211242F933F9368
:100A70008F939F93AF93BF93809122029091230213
:100A8000A0912402B09125023091210223E0230F8E
:100A90002D3758F50196A11DB11D20932102809399
:100AA000220290932302A0932402B0932502809106
:100AB000260290912702A0912802B0912902019666
:100AC000A11DB11D8093260290932702A0932802B6
:100AD000B0932902BF91AF919F918F913F912F9138
:100AE0000F900FBE0F901F90189526E8230F0296C7
:100AF000A11DB11DD2CF1F920F920FB60F921124DC
:100B00000BB60F922F933F934F935F936F937F9307
:100B10008F939F93AF93BF93EF93FF938AE292E0FB
:100B20000E944503FF91EF91BF91AF919F918F91EB
:100B30007F916F915F914F913F912F910F900BBEDD
:100B40000F900FBE0F901F9018951F920F920FB627
:100B50000F9211240BB60F922F938F939F93EF93C5
:100B6000FF93E0913A02F0913B028081E0914002D4
:100B7000F091410282FD1DC09081809143028F5F00
:100B80008F7320914402821741F0E0914302F0E01C
:100B9000E65DFD4F958F80934302FF91EF919F910A
:100BA0008F912F910F900BBE0F900FBE0F901F9043
:100BB00018958081F2CF1F920F920FB60F921124D9
:100BC0000BB60F922F933F934F935F936F937F9347
:100BD0008F939F93AF93BF93EF93FF9348E251E0BE
:100BE00064E271E090E080E00E940504FF91EF91E3
:100BF000BF91AF919F918F917F916F915F914F9135
:100C00003F912F910F900BBE0F900FBE0F901F9032
:100C100018951F920F920FB60F9211240BB60F92D8
:100C20002F933F934F935F936F937F938F939F93F4
:100C3000AF93BF93EF93FF9348EA50E064EA70E00C
:100C400083E090E00E940504FF91EF91BF91AF9186
:100C50009F918F917F916F915F914F913F912F91D4
:100C60000F900BBE0F900FBE0F901F9018951F9204
:100C70000F920FB60F9211240BB60F922F933F9342
:100C80004F935F936F937F938F939F93AF93BF9394
:100C9000EF93FF9348E950E064E970E082E090E070
:100CA0000E940504FF91EF91BF91AF919F918F91A9
:100CB0007F916F915F914F913F912F910F900BBE5C
:100CC0000F900FBE0F901F9018951F920F920FB6A6
:100CD0000F9211240BB60F922F933F934F935F9374
:100CE0006F937F938F939F93AF93BF93EF93FF93F4
:100CF00048E850E064E870E081E090E00E9405047C
:100D0000FF91EF91BF91AF919F918F917F916F91E3
:100D10005F914F913F912F910F900BBE0F900FBE9F
:100D20000F901F90189510922D0210922C0288EEB1
:100D300093E0A0E0B0E080932E0290932F02A09366
:100D40003002B093310284E092E090932B028093C2
:100D50002A0285EC90E0909337028093360284EC6F
:100D600090E0909339028093380280EC90E0909369
:100D70003B0280933A0281EC90E090933D02809395
:100D80003C0282EC90E090933F0280933E0286EC1E
:100D900090E090934102809340021092430210929F
:100DA000440210924502109246028091570380330C
:100DB00098F491E0980F909357038093580390E034
:100DC000FC01EE0FFF1FE80FF91FE953FD4F88EB01
:100DD0009BE09283818308958FEF80935803089559
:100DE000789484B5826084BD84B5816084BD85B506
:100DF000826085BD85B5816085BD80916E00816012
:100E000080936E00109281008091810082608093B7
:100E100081008091810081608093810080918000B9
:100E20008160809380008091B10084608093B100E4
:100E30008091B00081608093B000809191008260C9
:100E400080939100809191008160809391008091C6
:100E500090008160809390008091A10082608093D7
:100E6000A1008091A10081608093A1008091A000E9
:100E700081608093A0008091210182608093210194
:100E80008091210181608093210180912001816006
:100E90008093200180917A00846080937A00809111
:100EA0007A00826080937A0080917A0081608093DA
:100EB0007A0080917A00806880937A001092C10055
:100EC000E0913A02F0913B0282E08083E0913602A9
:100ED000F09137021082E0913802F09139028FECE4
:100EE000808310924202E0913E02F0913F0286E040
:100EF0008083E0913C02F0913D028081806180839B
:100F0000E0913C02F0913D02808188608083E09115
:100F10003C02F0913D02808180688083E0913C0238
:100F2000F0913D0280818F7D8083809158038033D2
:100F300008F069C0EBECF1E02491E5E8F1E0849180
:100F4000882399F090E0880F991FFC01E85BFE4F21
:100F5000A591B491FC01EE59FE4F859194918FB704
:100F6000F894EC91E22BEC938FBF80915803282FDB
:100F700030E0F901EE0FFF1FE20FF31FE953FD4FC1
:100F80009081907C996090831092590310925A033B
:100F90002CE0622F0E941F09829FB001112430E0D3
:100FA00020E0AB01420F531FFA01EE0FFF1FE40FC9
:100FB000F51FE953FD4F908196FD17C02F5F3F4FFE
:100FC0002C30310571F7813009F06CC0109280002F
:100FD00082E0809381001092850010928400B19A83
:100FE00080916F00826080936F00E09158038E2F94
:100FF00090E0FC01EE0FFF1FE80FF91FE953FD4FD2
:10100000808180648083BB24B39404EB10E086E38A
:101010000E9463026C0187E30E9463027C01B601B7
:101020000D2C000C880B990B97FF68C00E941005CF
:1010300082E192E00E94BF04B7010F2C000C880BE4
:10104000990B97FF5FC00E94100586E192E00E9415
:10105000BF0484EFC81681E0D8060CF057C088ECB6
:10106000E816F1040CF052C080912002882309F4A4
:1010700077C010931F0200931E02C0911E02D091F0
:101080001F02D7FD76C0CE010E945B016AE070E0CE
:1010900080E090E00E949F022A97D0931F02C093A5
:1010A0001E02EBCF823061F4109290008093910089
:1010B000109295001092940088BB8093710095CF98
:1010C000833069F41092A00082E08093A100109216
:1010D000A5001092A40089BB8093720086CF811175
:1010E00084CF1092200182E080932101109225018B
:1010F000109224018ABB8093730077CF4AE00E944C
:10110000CC0496CF4AE00E94CC049FCF809120026D
:1011100081111CC010921F0210921E02C0911E026B
:10112000D0911F02C53BD1057CF4CE010E945B012A
:101130006AE070E080E090E00E949F022A96D093DF
:101140001F02C0931E02EACFB092200284EFC8169D
:1011500081E0D8062CF488ECE816F1040CF484CF76
:1011600064EF71E080E090E00E949F020E94D4034F
:101170004ECF10922002F4CF052E97FB1EF4009460
:101180000E94D30857FD07D00E94EE0807FC03D049
:101190004EF40C94D30850954095309521953F4FCF
:1011A0004F4F5F4F089590958095709561957F4F53
:1011B0008F4F9F4F08950E941009A59F900DB49FD7
:1011C000900DA49F800D911D11240895B7FF0C94DC
:1011D000DB080E94DB08821B930B0895A1E21A2E04
:1011E000AA1BBB1BFD010DC0AA1FBB1FEE1FFF1FCB
:1011F000A217B307E407F50720F0A21BB30BE40B1B
:10120000F50B661F771F881F991F1A9469F7609561
:101210007095809590959B01AC01BD01CF0108951B
:10122000A29FB001B39FC001A39F700D811D112427
:10123000911DB29F700D811D1124911D0895991B60
:1012400079E004C0991F961708F0961B881F7A95BD
:10125000C9F780950895EE0FFF1F881F8BBF079079
:0A126000F691E02D1994F894FFCFE9
:10126A00000000006703D102FE02B4032F030D033E
:0A127A0021032D2D2D000D0A0000A8
:00000001FF
