:100000000C944A010C947B010C947B010C947B01B1
:100010000C947B010C947B010C947B010C947B0170
:100020000C947B010C94FF050C94FF050C94FF05C8
:100030000C947B010C947B010C947B010C947B0150
:100040000C947B010C947B010C947B010C947B0140
:100050000C947B010C947B010C947B010C94B505F2
:100060000C947B010C947F050C9455050C947B013A
:100070000C947B010C947B010C947B010C947B0110
:100080000C947B010C947B010C947B010C947B0100
:100090000C947B010C947B010C947B010C947B01F0
:1000A0000C947B010C947B010C947B010C947B01E0
:1000B0000C947B010C947B010C947B010C947B01D0
:1000C0000C947B010C947B010C947B010C947B01C0
:1000D0000C947B010C947B010C947B010C947B01B0
:1000E0000C947B010C9405040C9481030C944C0239
:1000F0000C9474030C947D030C94F3020C94600232
:100100000C9499030C947B060C949D030C9462034D
:100110000C9495030C94D4030C946C030C94680316
:100120000C94BE040C9410020C94A3030C94BE0A0D
:100130000C94A7030C94D6040C9445040C94A602CA
:100140000C9487030C9462040C948F030C94610448
:100150000C948B030C9470030C94A2030C9449042C
:100160000C946E020C94F7040C943D020C947703EB
:1001700000002100240027002A002D003000330059
:1001800001010000040107010A0100000A0B020935
:100190000C0D0E0807030401000000000000000021
:1001A000000000000000000000000000000000004F
:1001B000000000000000121110000000000000000C
:1001C000000000000000000000000000000000002F
:1001D000000020002300260029002C002F00320000
:1001E00000010000030106010901000022002500B2
:1001F00028002B002E003100340002010000050110
:1002000008010B0105050505070508080808020295
:1002100002020A0A080804040404010101010101A0
:1002200001010303030303030303040707070C0C83
:100230000C0C0C0C0C0C020202020606060606064A
:1002400006060B0B0B0B0B0B0B0B010210202008EF
:100250000810204010204080020102010804020121
:100260000102040810204080804020100804020190
:1002700080040201804020100804020108040201E9
:100280000102040810204080010204081020408070
:100290007B06BE0A11241FBECFEFD1E2DEBFCDBF69
:1002A00000E00CBF23E0A0E5B2E001C01D92A23D3A
:1002B000B207E1F712E0A0E0B2E0E4E7FAE100E023
:1002C0000BBF02C007900D92A035B107D9F711E01E
:1002D000C9E4D1E000E006C021970109802FFE01AA
:1002E0000E94F60AC834D10780E00807A9F70E94E7
:1002F00084070C94280D0C94000096E0899FD0018F
:100300001124A05CBC4F90967C936E935F9791E014
:1003100091969C939197E091AD03F091AE039091EB
:10032000AC03992339F0309751F0811108C08091C6
:100330005C031994309719F05C968C91FACF08956C
:10034000CF92DF92EF92FF920F931F9396E0899FD7
:10035000F0011124E05CFC4F11A2278D30A1213067
:10036000310551F178F02230310509F451C02330C4
:10037000310509F452C01F910F91FF90EF90DF906B
:10038000CF9008956623B9F361E070E00E947D018B
:100390002FB7F8948091990290919A02A0919B02B4
:1003A000B0919C022FBF8093980390939903A093E0
:1003B0009A03B0939B03DFCF9FB7F894C090990244
:1003C000D0909A02E0909B02F0909C029FBF009117
:1003D00098031091990320919A0330919B03C01ABE
:1003E000D10AE20AF30A0091AA031091AB0330E0AC
:1003F00020E00C151D052E053F0550F462E070E06D
:100400001F910F91FF90EF90DF90CF900C947D01A2
:100410006111B1CF63E070E0F3CF70E060E0F0CF46
:10042000AF92BF92CF92DF92EF92FF920F931F9302
:10043000CF93DF936C017B018B01040F151FEB0140
:100440005E01AE18BF08C017D10759F06991D601F7
:10045000ED91FC910190F081E02DC6011995892B59
:1004600079F7C501DF91CF911F910F91FF90EF9028
:10047000DF90CF90BF90AF900895FC01538D448DD5
:10048000252F30E0842F90E0821B930B541710F03F
:10049000CF96089501970895FC01918D828D98174C
:1004A00061F0A28DAE0FBF2FB11D5D968C91928D24
:1004B0009F5F9F73928F90E008958FEF9FEF089555
:1004C000FC01918D828D981731F0828DE80FF11D1E
:1004D000858D90E008958FEF9FEF0895FC01918D39
:1004E000228D892F90E0805C9F4F821B91098F7332
:1004F000992708958DE992E00E946E0221E0892BF0
:1005000009F420E0822F0895FC01A48DA80FB92FD3
:10051000B11DA35ABF4F2C91848D90E001968F732B
:100520009927848FA689B7892C93A089B1898C914A
:10053000837080648C93938D848D981306C0028899
:10054000F389E02D80818F7D80830895EF92FF9263
:100550000F931F93CF93DF93EC0181E0888F9B8DE6
:100560008C8D98131AC0E889F989808185FF15C0A0
:100570009FB7F894EE89FF896083E889F9898081C3
:100580008370806480839FBF81E090E0DF91CF9192
:100590001F910F91FF90EF900895F62E0B8D10E0B4
:1005A0000F5F1F4F0F731127E02E8C8D8E110CC023
:1005B0000FB607FCFACFE889F989808185FFF5CF6E
:1005C000CE010E948402F1CFEB8DEC0FFD2FF11DC7
:1005D000E35AFF4FF0829FB7F8940B8FEA89FB89AB
:1005E00080818062CFCFCF93DF93EC01888D882309
:1005F000B9F0AA89BB89E889F9898C9185FD03C086
:10060000808186FD0DC00FB607FCF7CF8C9185FF6A
:10061000F2CF808185FFEDCFCE010E948402E9CF29
:10062000DF91CF91089580E090E0892B29F00E941E
:100630007A0281110E94000080E090E0892B49F04D
:1006400080E090E0892B29F00E94000081110E9437
:10065000000080E090E0892B49F080E090E0892B59
:1006600029F00E94000081110E94000080E090E0CB
:10067000892B49F080E090E0892B29F00E9400004E
:1006800081110C94000008958150823108F05AC005
:10069000E82FF0E08827E05BFC4F8F4F0C94F60AC0
:1006A00070037403620368036C03A20377037D0382
:1006B000810387038B038F0395039903A2039D0393
:1006C000A303A703809180008F7780938000089513
:1006D000809180008F7DF9CF80918000877FF5CF5A
:1006E00084B58F7784BD089584B58F7DFBCF8091CD
:1006F000B0008F778093B00008958091B0008F7D17
:10070000F9CF809190008F77809390000895809129
:1007100090008F7DF9CF80919000877FF5CF8091F9
:10072000A0008F778093A00008958091A0008F7D16
:10073000F9CF8091A000877FF5CF809120018F773E
:10074000809320010895809120018F7DF9CF8091C1
:100750002001877FF5CFCF93DF93282F30E0F90179
:10076000E657FE4F8491F901E65BFD4FD491F90104
:10077000EC5FFD4FC491CC23A1F081110E94440392
:10078000EC2FF0E0EE0FFF1FE053FE4FA591B49168
:10079000EC91ED2381E090E009F480E0DF91CF91CE
:1007A000089580E090E0FACF862F0C94AB031F935E
:1007B000CF93DF93282F30E0F901E657FE4F849165
:1007C000F901E65BFD4FD491F901EC5FFD4FC49157
:1007D000CC23A9F0162F81110E944403EC2FF0E0E6
:1007E000EE0FFF1FE651FE4FA591B4918FB7F8941D
:1007F000EC91111108C0D095DE23DC938FBFDF91FF
:10080000CF911F910895DE2BF8CF862F642F0C9483
:10081000D703CF93DF9390E0FC01E65BFD4F24917B
:100820008C5F9D4FFC0184918823C9F090E0880F74
:10083000991FFC01E059FE4FA591B491FC01E651CE
:10084000FE4FC591D49161110DC09FB7F8948C9162
:10085000209582238C938881282328839FBFDF9152
:10086000CF910895623051F49FB7F8943C91822F54
:10087000809583238C93E8812E2BEFCF8FB7F8944C
:10088000EC912E2B2C938FBFEACF862F642F0C94E4
:10089000090420919702309198022817390771F4C2
:1008A0009091950280919602981741F0E0919502FF
:1008B000F0E0E05BFD4F808190E008958FEF9FEFC7
:1008C00008950895EF92FF920F931F93CF93DF93B4
:1008D000DC015C96ED90FC905D97E114F10479F4F5
:1008E00081E090E013969C938E93129790E080E0C5
:1008F000DF91CF911F910F91FF90EF900895519646
:10090000ED91FC91529750968C915097982F90951D
:100910000FB75E962C915E97122F127021FD609595
:10092000F8942081112319F1282B2083E7012197C6
:10093000F1F728E0462F50E0308160FF1AC0382BD5
:100940003083E7012197F1F7BA017595679521503A
:1009500089F7112381F08081892380830FBF5C9602
:100960008D919C910197F1F781E090E0C1CF29230F
:10097000DCCF3923E5CF9081892BEFCF20919702EF
:10098000309198022817390771F4809196022091CE
:10099000950290E0805C9F4F821B910960E470E0BB
:1009A0000E94E20A089590E080E008952091970265
:1009B0003091980228173907B9F4909195028091E7
:1009C0009602981789F0E0919502F0E0E05BFD4F08
:1009D00080812091950230E02F5F3F4F2F733327A6
:1009E0002093950290E008958FEF9FEF089590E097
:1009F00080E00895CF93DF93EC018881998100977F
:100A000011F00E94AE0B198218821D821C821B827B
:100A10001A82DF91CF9108950F931F93CF93DF93A5
:100A2000EC0188819981009759F02A813B81261732
:100A3000370730F081E0DF91CF911F910F9108953A
:100A40008B016F5F7F4F0E94370C009759F099839D
:100A500088831B830A832C813D81232B59F7FC015A
:100A60001082E8CF80E0E7CFEF92FF920F931F93C1
:100A7000CF93DF93EC017B018A01BA010E940C0540
:100A800081110BC0CE010E94FA04CE01DF91CF91FB
:100A90001F910F91FF90EF9008951D830C83B70174
:100AA000888199810E94210DF0CF1F920F920FB67D
:100AB0000F9211240BB60F922F933F934F935F9396
:100AC0006F937F938F939F93AF93BF93EF93FF9316
:100AD0008DE992E00E948402FF91EF91BF91AF9166
:100AE0009F918F917F916F915F914F913F912F9146
:100AF0000F900BBE0F900FBE0F901F9018951F9276
:100B00000F920FB60F9211240BB60F922F938F9363
:100B10009F93EF93FF93E091AD02F091AE0280813D
:100B2000E091B302F091B40282FD1DC090818091EA
:100B3000B6028F5F8F732091B702821741F0E09168
:100B4000B602F0E0E356FD4F958F8093B602FF9119
:100B5000EF919F918F912F910F900BBE0F900FBE31
:100B60000F901F9018958081F2CF1F920F920FB6B1
:100B70000F9211242F933F938F939F93AF93BF9323
:100B80008091990290919A02A0919B02B0919C024F
:100B90003091940223E0230F2D3758F50196A11DC3
:100BA000B11D209394028093990290939A02A0938E
:100BB0009B02B0939C028091900290919102A0912F
:100BC0009202B09193020196A11DB11D80939002F3
:100BD00090939102A0939202B0939302BF91AF9130
:100BE0009F918F913F912F910F900FBE0F901F906B
:100BF000189526E8230F0296A11DB11DD2CF1F9292
:100C00000F920FB60F9211240BB60F922F933F93B2
:100C10004F935F936F937F938F939F93AF93BF9304
:100C2000EF93FF93E0919702F0919802309749F08B
:100C3000A685B7858585968D91FF16C09C918923E1
:100C4000B1F4FF91EF91BF91AF919F918F917F91FF
:100C50006F915F914F913F912F910F900BBE0F902D
:100C60000FBE0F901F9018959C91892351F7A3896F
:100C7000B4899C918589809589238C9386899789ED
:100C80000197F1F7608D718DA685B785558538E0A0
:100C900020E0CB010197F1F7822F90E095958795A1
:100CA000282F4C91452309F02068315091F7868D0B
:100CB00081FD20958091960290E001968F7399278F
:100CC00030919502381799F0A0919602B0E0A05BA0
:100CD000BD4F2C9380939602828D938D0197F1F7EF
:100CE000A389B4898C919589892B8C93AACF868D01
:100CF0008160868FF1CF1092A00210929F0288EE41
:100D000093E0A0E0B0E08093A1029093A202A093B0
:100D1000A302B093A4022AE032E030939E02209313
:100D20009D0225EC30E03093AA022093A90224EC26
:100D300030E03093AC022093AB0220EC30E03093F3
:100D4000AE022093AD0221EC30E03093B00220934C
:100D5000AF0222EC30E03093B2022093B10226ECD5
:100D600030E03093B4022093B3021092B602109296
:100D7000B7021092B8021092B9021092B203109208
:100D8000B1038093B3039093B403A093B503B093DE
:100D9000B60386E292E09093B0038093AF03109283
:100DA000C6031092C5031092C8031092C703109295
:100DB000CA031092C9031092CC031092CB03609126
:100DC000CD036E7F6D7F6093CD036695617081E08A
:100DD000682783E00E94D70361E083E00E94090452
:100DE000EDE4F2E0E491E093BF03E7E0F2E0E491A8
:100DF000F0E0EE0FFF1FE651FE4F85919491909326
:100E0000C1038093C00360E082E00E9409048091E6
:100E1000CD0381FD04C061E082E00E94D70382E03F
:100E20008093BB03ECE4F2E0E491E093BC03E6E0E2
:100E3000F2E0E491F0E0EE0FFF1FE053FE4F8591EA
:100E400094919093BE038093BD031092420310923D
:100E5000460310924503109247038CE192E0909371
:100E6000410380934003ECE5F3E088E993E01082CE
:100E700014821382158236968E179F07C1F788E376
:100E800092E09093A3038093A20384E392E0909373
:100E9000A5038093A40384E08093A6038093A70313
:100EA0008CE392E09093A1038093A0038AE090E00A
:100EB0009093A9038093A80384EF91E09093AB03F0
:100EC0008093AA031092AE031092AD0310929C037C
:100ED00010929D0310929E0310929F031092AC03F8
:100EE00010923B0310923A0310923D0310923C0380
:100EF00010923F0310923E0350E040E06EE472E037
:100F00008AE393E00C943405CF93DF9300D000D0B4
:100F10001F921F92CDB7DEB7789484B5826084BDEE
:100F200084B5816084BD85B5826085BD85B58160ED
:100F300085BD80916E00816080936E00109281006B
:100F40008091810082608093810080918100816026
:100F500080938100809180008160809380008091E7
:100F6000B10084608093B1008091B0008160809373
:100F7000B0008091910082608093910080919100F7
:100F800081608093910080919000816080939000B7
:100F90008091A10082608093A1008091A100816076
:100FA0008093A1008091A00081608093A000809137
:100FB00021018260809321018091210181608093D1
:100FC00021018091200181608093200180917A002D
:100FD000846080937A0080917A00826080937A00A6
:100FE00080917A00816080937A0080917A00806895
:100FF00080937A001092C100E091AD02F091AE02B0
:1010000082E08083E091A902F091AA021082E0912F
:10101000AB02F091AC028FEC80831092B502E091AC
:10102000B102F091B20286E08083E091AF02F091CC
:10103000B002808180618083E091AF02F091B002C4
:10104000808188608083E091AF02F091B00280815E
:1010500080688083E091AF02F091B00280818F7D43
:1010600080831092CA031092C9031092C803109291
:10107000C7031092C6031092C5038DE991E09093C7
:10108000CC038093CB038091BB0396EF980F9430F1
:1010900048F02EEC280F243028F022EC280F2830BE
:1010A00008F061C02DEB30E03093C6032093C503F8
:1010B0002BE931E03093C8032093C7032CE231E0E1
:1010C0003093CA032093C903943050F02EEC280FBC
:1010D000243030F022EC280FF0E0E0E0283010F46B
:1010E000E8E6F0E02081943028F032EC380F383018
:1010F00008F4A6C031E0232B943048F09EEC980F02
:10110000943028F08E53F0E0E0E0883010F4E8E608
:10111000F0E020832091BB0336EF320F343008F427
:1011200091C08EEC820F843008F48CC082EC820F68
:10113000883008F08AC08DE690E09093C3038093D6
:10114000C203343008F084C02650330B81E001C064
:10115000880F2A95EAF78093C4038091CB0390917E
:10116000CC030197F1F78091C9039091CA03892BB1
:1011700049F1E0919702F091980253E0EF3AF507B8
:1011800009F1309739F0A389B4899C9185898095BC
:1011900089238C938091CD038E7F8093CD03109211
:1011A0009602109295028FEA93E0909398028093B2
:1011B0009702E091C203F091C30380819091C40330
:1011C000892B8083412C512C32014394AA24AA9468
:1011D000BA2C81E08093AC038FB7F89440919902C8
:1011E00050919A0260919B0270919C028FBF8091F6
:1011F0009C0390919D03A0919E03B0919F03481B77
:10120000590B6A0B7B0B8091A8039091A903B0E066
:10121000A0E084179507A607B70708F032C110E0D1
:101220008091A603181748F5E091A203F091A3035B
:10123000E10FF11D62E080810E9409041F5FF0CF81
:1012400034E059CF8BE690E078CF90E080E075CF26
:1012500088E0223309F47FCF84E0233309F47BCF85
:1012600082E0243309F477CF82EC820F883018F4BF
:101270002E53330B6BCF81E06ECF312C8091A703BF
:10128000381608F061C0E32CF12CE091A403F09132
:10129000A503EE0DFF1D61E080810E940904E0912D
:1012A000A403F091A503EE0DFF1D60E080810E9474
:1012B000D703D301C201032C04C0880F991FAA1FB2
:1012C000BB1F0A94D2F74C016C01C094D094212C1E
:1012D0008091A603281608F5022D10E0E091A203E4
:1012E000F091A303E00FF11F80810E94AB030C5F1C
:1012F0001F4F000F111FF801E05CFC4F892B41F4D8
:101300008081918188299929918380832394E0CFDA
:10131000808191818C219D21F7CFE091A403F091F0
:10132000A503EE0DFF1D61E080810E94D70380912F
:10133000A4039091A503E80EF91E60E0F7018081F7
:101340000E94090433949ACF00E413E07801F70176
:10135000878D90A1892B21F4148EB68EA58E11A2B3
:10136000F6E0EF0EF11C8CE793E08E159F0579F700
:10137000912C8091A603981608F053C0812CC92C9B
:10138000D12CCC0CDD1CF601E85BFC4F6F012091E9
:10139000A703821608F043C0F60160817181082C12
:1013A00002C0769567950A94E2F7929E9001112407
:1013B000280D311DE0E4F3E080E0458D568D2417C3
:1013C000350709F4D9C08F5F36968A30B1F760FFD0
:1013D00024C0E0E4F3E090E080E0448D411118C0C7
:1013E000E091A003F091A103E20FF31F408156E0CA
:1013F000589FF001599FF00D1124E05CFC4F448F81
:10140000368F258F10A2178E61E00E94A00105C0C3
:10141000019636968A30910501F78394B8CF93945C
:10142000A8CF80E0F80191A19111892F0A5F1F4F89
:101430000E151F05B9F79FB7F89440919902509186
:101440009A0260919B0270919C029FBF40939C0303
:1014500050939D0360939E0370939F03882389F0AC
:1014600080916103882369F080915F03909160030C
:10147000019739F410915C03111106C00E94130307
:10148000A8CE1092AC03FACF1F3629F540913E0347
:1014900050913F0360913A0370913B038DE992E0D4
:1014A0000E94100242E050E06CE472E08DE992E0AC
:1014B0000E94100250E040E06EE472E08AE393E0A4
:1014C0000E94340542E050E06CE472E08FEA93E061
:1014D0000E941002D3CF612F8FEA93E00E94620432
:1014E0001A8219821C821B821E821D8260913A031D
:1014F00070913B036115710541F040913E0350919D
:101500003F03CE0101960E9434051F8318860D818A
:101510001E810F5F1F4FB801CE0101960E940C057E
:10152000811117C0CE0101960E94FA0469817A8167
:1015300061157105E1F04D815E818AE393E00E94BF
:10154000340589819A81009709F498CF0E94AE0BE7
:1015500095CF29813A818D819E81BE01695F7F4F40
:10156000820F931F0E94210D1E830D83DFCF8AE31C
:1015700093E00E94FA04E5CF617047CF80913A036F
:1015800090913B03009711F00E94AE0B86E292E02F
:101590009093B0038093AF0380919702909198024B
:1015A0008F5A934071F4E091C203F091C30390818C
:1015B0008091C403809589238083109298021092B1
:1015C0009702089597FB072E16F4009407D077FD35
:1015D00009D00E94FE0A07FC05D03EF49095819543
:1015E0009F4F0895709561957F4F0895EE0FFF1FEF
:1015F000881F8BBF0790F691E02D1994AA1BBB1B87
:1016000051E107C0AA1FBB1FA617B70710F0A61B02
:10161000B70B881F991F5A95A9F780959095BC0123
:10162000CD0108950F931F93CF93DF9382309105DF
:1016300010F482E090E0E091D003F091D10330E02B
:1016400020E0B0E0A0E0309799F42115310509F4CD
:101650004AC0281B390B24303105D8F58A819B817B
:101660006115710589F1FB0193838283FE0111C02D
:10167000408151810281138148175907E0F04817D2
:10168000590799F4109761F012960C9312971396DC
:101690001C933296CF01DF91CF911F910F91089546
:1016A0000093D0031093D103F4CF2115310551F0ED
:1016B0004217530738F0A901DB019A01BD01DF0190
:1016C000F801C1CFEF01F9CF9093D1038093D003FC
:1016D000CDCFFE01E20FF31F819391932250310988
:1016E00039832883D7CF2091CE033091CF03232B8A
:1016F00041F420910202309103023093CF032093F2
:10170000CE0320910002309101022115310541F4F0
:101710002DB73EB74091040250910502241B350BB2
:10172000E091CE03F091CF03E217F307A0F42E1B54
:101730003F0B2817390778F0AC014E5F5F4F241735
:10174000350748F04E0F5F1F5093CF034093CE03F1
:10175000819391939FCFF0E0E0E09CCFCF93DF9314
:101760000097E9F0FC01329713821282A091D00316
:10177000B091D103ED0130E020E01097A1F4208179
:101780003181820F931F2091CE033091CF03281710
:10179000390709F061C0F093CF03E093CE03DF91E6
:1017A000CF910895EA01CE17DF07E8F54A815B8102
:1017B0009E0141155105B1F7E901FB83EA83499187
:1017C0005991C40FD51FEC17FD0761F480819181F9
:1017D0000296840F951FE901998388838281938102
:1017E0009B838A83F0E0E0E012968D919C911397A1
:1017F0000097B9F52D913C911197CD010296820F7A
:10180000931F2091CE033091CF032817390739F663
:10181000309751F51092D1031092D003B093CF03BB
:10182000A093CE03BCCFD383C28340815181840F68
:10183000951FC817D90761F44E5F5F4F8881998162
:10184000480F591F518340838A819B8193838283F0
:101850002115310509F0B0CFF093D103E093D00307
:101860009ECFFD01DC01C0CF13821282D7CF4F92F1
:101870005F926F927F928F929F92AF92BF92CF9220
:10188000DF92EF92FF920F931F93CF93DF938C0120
:10189000009799F4CB01DF91CF911F910F91FF90A9
:1018A000EF90DF90CF90BF90AF909F908F907F9000
:1018B0006F905F904F900C94120BFC01E60FF71F96
:1018C0009C0122503109E217F30708F4AEC0D90198
:1018D000CD91DC911197C617D70720F1C530D105FE
:1018E00078F0CE0104978617970750F0C61BD70BE8
:1018F0002297C193D1936D937C93CF010E94AE0B3D
:10190000C801DF91CF911F910F91FF90EF90DF9071
:10191000CF90BF90AF909F908F907F906F905F908F
:101920004F9008955B01AC1ABD0A4C018C0E9D1EB0
:10193000A091D003B091D103512C412CF12CE12C7A
:10194000109731F58091CE039091CF0388159905BA
:1019500009F05CC04616570608F058C08091000296
:1019600090910102009741F48DB79EB74091040217
:1019700050910502841B950BE817F90708F055C034
:10198000F093CF03E093CE03F90171836083B8CF66
:101990008D919C91119712966C90129713967C9052
:1019A0001397A815B90559F56C0142E0C40ED11C76
:1019B000CA14DB0420F1AC014A195B09DA01129662
:1019C000159780F06282738251834083D9016D93B1
:1019D0007C93E114F10471F0D7011396FC93EE931C
:1019E00012978ECF22968C0F9D1FF90191838083D1
:1019F000F301EFCFF093D103E093D00381CF4816EA
:101A0000590608F42C017D01D3019ACFCB010E9425
:101A1000120B7C01009749F0AE01B8010E94180D2D
:101A2000C8010E94AE0B87016BCF10E000E068CFC9
:101A3000FB01DC0102C001900D9241505040D8F7EB
:101A40000895FB01DC0101900D920020E1F708955B
:101A500011E0C9E4D1E000E006C0802FFE010E9441
:101A6000F60A2196011DCA34D10780E00807A9F7BC
:041A7000F894FFCF18
:101A74000000D203800000000000A60210023D0214
:101A8400F3026E024C0260020000000045040504EB
:101A9400D4030000000062041002F7046104BE04D1
:101AA400D604490417191B1D1F2123253738392F44
:101AB4003435362A3132332D6F303D2B0D0A000078
:00000001FF
