:100000000C9444010C9475010C9475010C947501C9
:100010000C9475010C9475010C9475010C94750188
:100020000C9475010C94D9050C94D9050C94D90540
:100030000C9475010C9475010C9475010C94750168
:100040000C9475010C9475010C9475010C94750158
:100050000C9475010C9475010C9475010C948F052A
:100060000C9475010C9459050C942F050C94750192
:100070000C9475010C9475010C9475010C94750128
:100080000C9475010C9475010C9475010C94750118
:100090000C9475010C9475010C9475010C94750108
:1000A0000C9475010C9475010C9475010C947501F8
:1000B0000C9475010C9475010C9475010C947501E8
:1000C0000C9475010C9475010C9475010C947501D8
:1000D0000C9475010C9475010C9475010C947501C8
:1000E0000C9475010C948A010C9454030C94AD0289
:1000F0000C9449030C94C4040C94B00A0C9445036A
:100100000C9480030C9472030C9433030C945A03E4
:100110000C9416040C942E030C9464030C94280283
:100120000C9468030C947A030C9460020C945506AA
:100130000C941A020C942F040C946C030C945E0320
:100140000C94A3040C9476030C942E040C948B044E
:100150000C94C6010C9451030C944D030C9484032D
:100160000C94B70100002100240027002A002D0074
:100170003000330001010000040107010A01000002
:100180000A0B02090C0D0E08070304010000000011
:10019000000000000000000000000000000000005F
:1001A000000000000000000000001211100000001C
:1001B000000000000000000000000000000000003F
:1001C00000000000000020002300260029002C0071
:1001D0002F003200000100000301060109010000A8
:1001E0002200250028002B002E00310034000201DF
:1001F0000000050108010B010505050507050808B4
:100200000808020202020A0A0808040404040101A0
:1002100001010101010103030303030303030407B5
:1002200007070C0C0C0C0C0C0C0C0202020206064C
:100230000606060606060B0B0B0B0B0B0B0B01023F
:1002400010202008081020401020408002010201E8
:1002500008040201010204081020408080402010A0
:1002600008040201800402018040201008040201F9
:100270000804020101020408102040800102040861
:10028000102040805506B00A11241FBECFEFD1E2E6
:10029000DEBFCDBF00E00CBF23E0A6E5B2E001C0A9
:1002A0001D92AC36B207E1F712E0A0E0B2E0E4E95B
:1002B000FAE100E00BBF02C007900D92A635B1072E
:1002C000D9F711E0C3E4D1E000E006C021970109AD
:1002D000802FFE010E94060BC234D10780E0080780
:1002E000A9F70E9413070C94380D0C940000089590
:1002F000FC01248135816217730720F4808191818C
:10030000009729F410929B028BE992E00895860FE2
:10031000971F0895AF92BF92CF92DF92EF92FF9214
:100320000F931F93CF93DF936C017B018B01040F1D
:10033000151FEB015E01AE18BF08C017D10759F0B9
:100340006991D601ED91FC910190F081E02DC601FB
:100350001995892B79F7C501DF91CF911F910F91E5
:10036000FF90EF90DF90CF90BF90AF900895FC0189
:10037000538D448D252F30E0842F90E0821B930B0A
:10038000541710F0CF96089501970895FC01918DB0
:10039000828D981761F0A28DAE0FBF2FB11D5D96B3
:1003A0008C91928D9F5F9F73928F90E008958FEF55
:1003B0009FEF08952FB7F8948091A2029091A30225
:1003C000A091A402B091A5022FBF8093AE0290939A
:1003D000AF02A093B002B093B10286EA92E00E940D
:1003E000C60197FF26C02FB7F8948091A202909182
:1003F000A302A091A402B091A5022FBF4091AE022A
:100400005091AF026091B0027091B102841B950BC4
:10041000A60BB70B4091AA025091AB026091AC02BF
:100420007091AD0284179507A607B707B0F28FEF5A
:100430009FEF0895FC01918D828D981731F0828D88
:10044000E80FF11D858D90E008958FEF9FEF0895DF
:10045000FC01918D228D892F90E0805C9F4F821B43
:1004600091098F739927089586EA92E00E942802E5
:1004700021E0892B09F420E0822F0895FC01A48D4E
:10048000A80FB92FB11DA35ABF4F2C91848D90E0B6
:1004900001968F739927848FA689B7892C93A08999
:1004A000B1898C91837080648C93938D848D981323
:1004B00006C00288F389E02D80818F7D80830895B6
:1004C000EF92FF920F931F93CF93DF93EC0181E0A4
:1004D000888F9B8D8C8D98131AC0E889F98980814B
:1004E00085FF15C09FB7F894EE89FF896083E8897E
:1004F000F98980818370806480839FBF81E090E070
:10050000DF91CF911F910F91FF90EF900895F62EFC
:100510000B8D10E00F5F1F4F0F731127E02E8C8D96
:100520008E110CC00FB607FCFACFE889F9898081DB
:1005300085FFF5CFCE010E943E02F1CFEB8DEC0F8F
:10054000FD2FF11DE35AFF4FF0829FB7F8940B8FF8
:10055000EA89FB8980818062CFCFCF93DF93EC0162
:10056000888D8823B9F0AA89BB89E889F9898C919B
:1005700085FD03C0808186FD0DC00FB607FCF7CF57
:100580008C9185FFF2CF808185FFEDCFCE010E9457
:100590003E02E9CFDF91CF91089580E090E0892B72
:1005A00029F00E94340281110E94000080E090E056
:1005B000892B49F080E090E0892B29F00E9400000F
:1005C00081110E94000080E090E0892B49F080E0DA
:1005D00090E0892B29F00E94000081110E94000008
:1005E00080E090E0892B49F080E090E0892B29F0B1
:1005F0000E94000081110C9400000895282F30E023
:10060000F901E258FE4F9491F901E25CFD4F4491EB
:1006100028503E4FF9012491222309F435C0992333
:1006200011F191509231F8F4E92FF0E08827E45E5F
:10063000FC4F8F4F0C94060B4D0351032E034503C3
:100640004903330354035A035E03640368036C03D2
:100650007203760333037A0380038403809180005E
:100660008F7780938000E22FF0E0EE0FFF1FE252C1
:10067000FE4FA591B4918FB7F894EC91611148C0E9
:1006800040954E234C938FBF0895809180008F7DBD
:10069000E8CF80918000877FE4CF84B58F7784BDD9
:1006A000E2CF84B58F7DFBCF8091B0008F778093B0
:1006B000B000D9CF8091B0008F7DF9CF80919000AC
:1006C0008F7780939000CFCF809190008F7DF9CF6E
:1006D00080919000877FF5CF8091A0008F778093E5
:1006E000A000C1CF8091A0008F7DF9CF8091A000A4
:1006F000877FF5CF809120018F7780932001B3CF42
:10070000809120018F7DF9CF80912001877FF5CFE7
:100710004E2BB8CFCF93DF9390E0FC01E25CFD4F0E
:10072000249188509E4FFC0184918823D1F090E061
:10073000880F991FFC01EC59FE4FA591B491FC0163
:10074000E252FE4FC591D49161110EC09FB7F8944B
:100750008C91E22FE0958E238C932881E223E8830D
:100760009FBFDF91CF9108958FB7F894EC91E22B62
:10077000EC938FBFF6CF3FB7F8948091970290919A
:100780009802A0919902B0919A0226B5A89B05C043
:100790002F3F19F00196A11DB11D3FBFBA2FA92F00
:1007A000982F8827BC01CD01620F711D811D911DFD
:1007B00042E0660F771F881F991F4A95D1F7089569
:1007C0008F929F92AF92BF92CF92DF92EF92FF9261
:1007D0000E94BB034B015C0188EBC82E8BE0D82E36
:1007E000E12CF12C0E94BB03681979098A099B0945
:1007F000683E734081059105A8F321E0C21AD10833
:10080000E108F10888EE880E83E0981EA11CB11C57
:10081000C114D104E104F10429F7FF90EF90DF90B7
:10082000CF90BF90AF909F908F90089520919E029F
:1008300030919F022817390771F490919C028091A2
:100840009D02981741F0E0919C02F0E0EA5AFD4FBA
:10085000808190E008958FEF9FEF08950895EF92C3
:10086000FF920F931F93CF93DF93DC015C96ED9083
:10087000FC905D97E114F10479F481E090E0139627
:100880009C938E93129790E080E0DF91CF911F911F
:100890000F91FF90EF9008955196ED91FC91529732
:1008A00050968C915097982F90950FB75E962C91FB
:1008B0005E97122F127021FD6095F894208111230C
:1008C00019F1282B2083E7012197F1F728E0462F23
:1008D00050E0308160FF1AC0382B3083E701219748
:1008E000F1F7BA0175956795215089F7112381F0C9
:1008F0008081892380830FBF5C968D919C910197A5
:10090000F1F781E090E0C1CF2923DCCF3923E5CF97
:100910009081892BEFCF20919E0230919F02281762
:10092000390771F480919D0220919C0290E0805CD7
:100930009F4F821B910960E470E00E94D00A0895E5
:1009400090E080E0089520919E0230919F02281748
:100950003907B9F490919C0280919D02981789F013
:10096000E0919C02F0E0EA5AFD4F808120919C02C8
:1009700030E02F5F3F4F2F73332720939C0290E08E
:1009800008958FEF9FEF089590E080E00895FC01B7
:1009900001900020E9F73197AF01481B590BBC01CA
:1009A00089E493E00C948A01FC0180819181009795
:1009B00011F00C94BE0B08950F931F93CF93DF9308
:1009C000EC0188819981009759F02A813B81261793
:1009D000370730F081E0DF91CF911F910F9108959B
:1009E0008B016F5F7F4F0E94470C009759F09983EE
:1009F00088831B830A832C813D81232B59F7FC01BB
:100A00001082E8CF80E0E7CFEF92FF920F931F9321
:100A1000CF93DF93EC017B018A01BA010E94DC04D1
:100A200028813981811114C02115310519F0C901BE
:100A30000E94BE0B198218821D821C821B821A82A0
:100A4000CE01DF91CF911F910F91FF90EF9008950C
:100A50001D830C83B701C9010E94310DF1CF1F9294
:100A60000F920FB60F9211240BB60F922F933F9354
:100A70004F935F936F937F938F939F93AF93BF93A6
:100A8000EF93FF9386EA92E00E943E02FF91EF917E
:100A9000BF91AF919F918F917F916F915F914F9196
:100AA0003F912F910F900BBE0F900FBE0F901F9094
:100AB00018951F920F920FB60F9211240BB60F923A
:100AC0002F938F939F93EF93FF93E091B602F09152
:100AD000B7028081E091BC02F091BD0282FD1DC091
:100AE00090818091BF028F5F8F732091C002821727
:100AF00041F0E091BF02F0E0EA55FD4F958F809301
:100B0000BF02FF91EF919F918F912F910F900BBE9C
:100B10000F900FBE0F901F9018958081F2CF1F92FB
:100B20000F920FB60F9211242F933F938F939F93A1
:100B3000AF93BF938091A2029091A302A091A402CF
:100B4000B091A5023091960223E0230F2D3758F57E
:100B50000196A11DB11D209396028093A20290934D
:100B6000A302A093A402B093A50280919702909152
:100B70009802A0919902B0919A020196A11DB11D0F
:100B80008093970290939802A0939902B0939A024F
:100B9000BF91AF919F918F913F912F910F900FBE79
:100BA0000F901F90189526E8230F0296A11DB11DE6
:100BB000D2CF1F920F920FB60F9211240BB60F9245
:100BC0002F933F934F935F936F937F938F939F9355
:100BD000AF93BF93EF93FF93E0919E02F0919F023A
:100BE000309749F0A685B7858585968D91FF16C00B
:100BF0009C918923B1F4FF91EF91BF91AF919F91A7
:100C00008F917F916F915F914F913F912F910F90B5
:100C10000BBE0F900FBE0F901F9018959C918923CB
:100C200051F7A389B4899C918589809589238C93F8
:100C3000868997890197F1F7608D718DA685B785B3
:100C4000558538E020E0CB010197F1F7822F90E045
:100C500095958795282F4C91452309F020683150B0
:100C600091F7868D81FD209580919D0290E00196FF
:100C70008F73992730919C02381799F0A0919D02AB
:100C8000B0E0AA5ABD4F2C9380939D02828D938D24
:100C90000197F1F7A389B4898C919589892B8C935D
:100CA000AACF868D8160868FF1CF1092A902109213
:100CB000A80288EE93E0A0E0B0E08093AA029093AF
:100CC000AB02A093AC02B093AD022AE032E03093C5
:100CD000A7022093A60225EC30E03093B3022093C4
:100CE000B20224EC30E03093B5022093B40220EC41
:100CF00030E03093B7022093B60221EC30E030931D
:100D0000B9022093B80222EC30E03093BB0220936A
:100D1000BA0226EC30E03093BD022093BC02109260
:100D2000BF021092C0021092C1021092C202109231
:100D30004C0310924B0380934D0390934E03A0936A
:100D40004F03B09350038CE192E090934A03809359
:100D500049031092600310925F0310926203109295
:100D60006103109264031092630310926603109261
:100D70006503609167036E7F6D7F6093670366957F
:100D8000617081E0682783E00E94FE0261E083E0F9
:100D90000E948A03E1E4F2E0E491E0935903EBEF6F
:100DA000F1E0E491F0E0EE0FFF1FE252FE4F85917B
:100DB000949190935B0380935A0360E082E00E94D9
:100DC0008A038091670381FD04C061E082E00E9494
:100DD000FE0282E080935503E0E4F2E0E491E093C8
:100DE0005603EAEFF1E0E491F0E0EE0FFF1FEC5361
:100DF000FE4F8591949190935803809357031092DE
:100E0000440310924303109246031092450310923C
:100E100048031092470350E040E064E372E083E44B
:100E200093E00C940405CF93DF93CDB7DEB7A7977B
:100E30000FB6F894DEBF0FBECDBF789484B5826044
:100E400084BD84B5816084BD85B5826085BD85B56E
:100E5000816085BD80916E00816080936E001092EC
:100E60008100809181008260809381008091810067
:100E700081608093810080918000816080938000F8
:100E80008091B10084608093B1008091B000816056
:100E90008093B00080919100826080939100809156
:100EA0009100816080939100809190008160809397
:100EB00090008091A10082608093A1008091A100A8
:100EC00081608093A1008091A00081608093A00048
:100ED00080912101826080932101809121018160B4
:100EE0008093210180912001816080932001809175
:100EF0007A00846080937A0080917A008260809387
:100F00007A0080917A00816080937A0080917A00E3
:100F1000806880937A001092C100E091B602F0914F
:100F2000B70282E08083E091B202F091B3021082B6
:100F3000E091B402F091B5028FEC80831092BE0272
:100F4000E091BA02F091BB0286E08083E091B802A2
:100F5000F091B902808180618083E091B802F091C4
:100F6000B902808188608083E091B802F091B90273
:100F7000808180688083E091B802F091B90280811D
:100F80008F7D80831092640310926303109262033A
:100F9000109261031092600310925F038DE991E05B
:100FA00090936603809365038091550396EF980FA5
:100FB000943048F02EEC280F243028F022EC280F33
:100FC000283008F061C02DEB30E0309360032093AF
:100FD0005F032BE931E030936203209361032CE23D
:100FE00031E03093640320936303943050F02EEC8F
:100FF000280F243030F022EC280FF0E0E0E0283019
:1010000010F4E8E6F0E02081943028F032EC380F5C
:10101000383008F4ABC031E0232B943048F09EEC1C
:10102000980F943028F08E53F0E0E0E0883010F410
:10103000E8E6F0E020832091550336EF320F34309C
:1010400008F496C08EEC820F843008F491C082ECD4
:10105000820F883008F08FC08DE690E090935D039A
:1010600080935C03343008F089C02650330B81E054
:1010700001C0880F2A95EAF780935E03809165038B
:10108000909166030197F1F7809163039091640357
:10109000892B49F1E0919E02F0919F0283E0E934AF
:1010A000F80709F1309739F0A389B4899C918589B3
:1010B000809589238C93809167038E7F809367034B
:1010C00010929D0210929C0289E493E090939F02FB
:1010D00080939E02E0915C03F0915D03808190918A
:1010E0005E03892B808361E086E10E948A0361E0D0
:1010F00087E10E948A033AE0332E4AE0442E512CC5
:10110000612C712C86EA92E00E942802892B09F456
:10111000FDC11A8219821C821B821E821D8250E030
:1011200040E064E372E0CE0101960E9404050E9453
:10113000DA0197FD38C08AA31BA20D811E810F5FC3
:101140001F4FB801CE0101960E94DC04882379F379
:1011500029813A818D819E81BE016E5D7F4F820F14
:10116000931F0E94310D1E830D83E1CF34E054CFD5
:101170008BE690E073CF90E080E070CF88E0223380
:1011800009F47ACF84E0233309F476CF82E0243364
:1011900009F472CF82EC820F883018F42E53330B8F
:1011A00066CF81E069CF809143039091440300971B
:1011B00009F4B7C069817A816115710509F4AFC07E
:1011C00040914503509146032D813E8142175307BC
:1011D00008F4A5C00E94310D8D819E819093480333
:1011E000809347031E821D82CE0101960E94D40483
:1011F0001A8219821C821B821E821D8247E050E0E7
:101200006AE272E0CE0101960E940405E090430379
:10121000F0904403E114F10409F49AC000914703EB
:101220001091480301151105B9F08D819E81080FB9
:10123000191FB801CE0101960E94DC04882309F42D
:1012400087C029813A818D819E81B701820F931FCA
:101250000E94310D1E830D834D815E8169817A81EB
:1012600089E493E00E948A0182E392E00E94C7042D
:10127000CE0101960E94D4041BA21AA21DA21CA298
:101280001FA21EA260914303709144036115710572
:1012900041F04091470350914803CE0182960E944D
:1012A000040570E060E0CE0182960E947801FC01A6
:1012B0000081002E000C110B00531109EE24E39461
:1012C000F12C8EA19FA1E816F90608F077C0B701AE
:1012D000CE0182960E947801FC0180818D3309F451
:1012E0006DC0B701CE0182960E947801FC01D080CA
:1012F000B7016F5F7F4FCE0182960E947801FC019B
:101300006081FBE2DF1231C0062E000C770B6053C8
:101310007109060F171F82E0E80EF11CD2CF0E9460
:10132000BE0B89819A8190934403809343038B8100
:101330009C8190934603809345038D819E81909379
:101340004803809347031A8219821C821B824ACF6A
:1013500089819A81009711F00E94BE0B1A8219822E
:101360001E821D821C821B8277CF8DE2D81208C09C
:10137000062E000C770B60537109061B170BCBCFA1
:101380009AE2D9120EC0062E000C770B6053710939
:10139000F801E69F8001E79F100DF69F100D1124C4
:1013A000BACFFFE2DF12B7CF062E000C770B6053E7
:1013B0007109C8010E94D00A8B01ADCF1093A10220
:1013C0000093A0021A8219821C821B821E821D8237
:1013D0006AA17BA16115710531F04EA15FA1CE011B
:1013E00001960E940405CC24C394D12CB12CA12CCD
:1013F000F12CE12C8D819E81C816D906D0F591E0A3
:10140000A916B10431F5B601CE0101960E9478010A
:10141000FC0180818033ECF0B601CE0101960E9480
:101420007801FC0180818A33A4F43E9C40013F9CFA
:10143000900C1124B601CE0101960E947801FC01A6
:10144000E0800E2C000CFF08F0E3EF1AF108E80C26
:10145000F91CB601CE0101960E947801FC01808141
:101460008D3319F4AA24A394B12CFFEFCF1ADF0A0D
:10147000C1CFCE0101960E94D404CE0182960E9473
:10148000D4040E151F0509F45AC085E392E00E94AA
:10149000C704C090A002D090A1020D2C000CEE0851
:1014A000FF08F7FE36C06DE289E493E00E942F0446
:1014B00022273327A9012C193D094E095F0919A2DA
:1014C0008E010F5D1F4FCA01B901A30192010E9455
:1014D000E40A605DF80162938F0121153105410531
:1014E000510589F70115110519F0C8010E94C704BB
:1014F00082E392E00E94C70461E087E10E94FE025D
:101500000E94E00360E087E10E94FE020E94CD029B
:10151000F9CDA701960119A28E010F5D1F4FCA01D7
:10152000B901A30192010E94E40A605DF80162938F
:101530008F01211531054105510589F7D3CF85E488
:1015400092E00E94C70482E392E00E94C70461E037
:1015500086E10E94FE020E94E00360E086E1D4CFB3
:1015600083E493E00E94D4048CE192E090934A03D8
:101570008093490380919E0290919F0289549340E9
:1015800071F4E0915C03F0915D03908180915E03C2
:1015900080958923808310929F0210929E02089565
:1015A00097FB072E16F4009407D077FD09D00E9410
:1015B0000E0B07FC05D03EF4909581959F4F089542
:1015C000709561957F4F0895A1E21A2EAA1BBB1B4F
:1015D000FD010DC0AA1FBB1FEE1FFF1FA217B307FF
:1015E000E407F50720F0A21BB30BE40BF50B661F15
:1015F000771F881F991F1A9469F7609570958095D9
:1016000090959B01AC01BD01CF010895EE0FFF1F26
:10161000881F8BBF0790F691E02D1994AA1BBB1B66
:1016200051E107C0AA1FBB1FA617B70710F0A61BE2
:10163000B70B881F991F5A95A9F780959095BC0103
:10164000CD0108950F931F93CF93DF9382309105BF
:1016500010F482E090E0E0916A03F0916B0330E0D7
:1016600020E0B0E0A0E0309799F42115310509F4AD
:101670004AC0281B390B24303105D8F58A819B815B
:101680006115710589F1FB0193838283FE0111C00D
:10169000408151810281138148175907E0F04817B2
:1016A000590799F4109761F012960C9312971396BC
:1016B0001C933296CF01DF91CF911F910F91089526
:1016C00000936A0310936B03F4CF2115310551F099
:1016D0004217530738F0A901DB019A01BD01DF0170
:1016E000F801C1CFEF01F9CF90936B0380936A03A8
:1016F000CDCFFE01E20FF31F819391932250310968
:1017000039832883D7CF2091680330916903232B35
:1017100041F4209102023091030230936903209337
:10172000680320910002309101022115310541F436
:101730002DB73EB74091040250910502241B350B92
:10174000E0916803F0916903E217F307A0F42E1B00
:101750003F0B2817390778F0AC014E5F5F4F241715
:10176000350748F04E0F5F1F50936903409368039D
:10177000819391939FCFF0E0E0E09CCFCF93DF93F4
:101780000097E9F0FC01329713821282A0916A035C
:10179000B0916B03ED0130E020E01097A1F42081BF
:1017A0003181820F931F20916803309169032817BC
:1017B000390709F061C0F0936903E0936803DF9192
:1017C000CF910895EA01CE17DF07E8F54A815B81E2
:1017D0009E0141155105B1F7E901FB83EA83499167
:1017E0005991C40FD51FEC17FD0761F480819181D9
:1017F0000296840F951FE9019983888382819381E2
:101800009B838A83F0E0E0E012968D919C91139780
:101810000097B9F52D913C911197CD010296820F59
:10182000931F20916803309169032817390739F60F
:10183000309751F510926B0310926A03B0936903CD
:10184000A0936803BCCFD383C28340815181840FAE
:10185000951FC817D90761F44E5F5F4F8881998142
:10186000480F591F518340838A819B8193838283D0
:101870002115310509F0B0CFF0936B03E0936A03B3
:101880009ECFFD01DC01C0CF13821282D7CF4F92D1
:101890005F926F927F928F929F92AF92BF92CF9200
:1018A000DF92EF92FF920F931F93CF93DF938C0100
:1018B000009799F4CB01DF91CF911F910F91FF9089
:1018C000EF90DF90CF90BF90AF909F908F907F90E0
:1018D0006F905F904F900C94220BFC01E60FF71F66
:1018E0009C0122503109E217F30708F4AEC0D90178
:1018F000CD91DC911197C617D70720F1C530D105DE
:1019000078F0CE0104978617970750F0C61BD70BC7
:101910002297C193D1936D937C93CF010E94BE0B0C
:10192000C801DF91CF911F910F91FF90EF90DF9051
:10193000CF90BF90AF909F908F907F906F905F906F
:101940004F9008955B01AC1ABD0A4C018C0E9D1E90
:10195000A0916A03B0916B03512C412CF12CE12C26
:10196000109731F580916803909169038815990566
:1019700009F05CC04616570608F058C08091000276
:1019800090910102009741F48DB79EB740910402F7
:1019900050910502841B950BE817F90708F055C014
:1019A000F0936903E0936803F90171836083B8CF12
:1019B0008D919C91119712966C90129713967C9032
:1019C0001397A815B90559F56C0142E0C40ED11C56
:1019D000CA14DB0420F1AC014A195B09DA01129642
:1019E000159780F06282738251834083D9016D9391
:1019F0007C93E114F10471F0D7011396FC93EE93FC
:101A000012978ECF22968C0F9D1FF90191838083B0
:101A1000F301EFCFF0936B03E0936A0381CF481695
:101A2000590608F42C017D01D3019ACFCB010E9405
:101A3000220B7C01009749F0AE01B8010E94280DED
:101A4000C8010E94BE0B87016BCF10E000E068CF99
:101A5000FB01DC0102C001900D9241505040D8F7CB
:101A60000895FB01DC0101900D920020E1F708953B
:101A700011E0C3E4D1E000E006C0802FFE010E9427
:101A8000060B2196011DC434D10780E00807A9F791
:041A9000F894FFCFF8
:101A940000006C0380000000000060028A01B701AE
:101AA400AD022802C6011A02000000002F048A01B8
:101AB400C4042E048B04A3041604496E7075743A8E
:101AC40020000D0A0057726F6E67212052657375EE
:101AD4006C743A2000436F727265637420416E73B4
:061AE4007765722100008D
:00000001FF
