:100000000C943B010C946C010C946C010C946C01ED
:100010000C946C010C946C010C946C010C946C01AC
:100020000C946C010C946C010C946C010C946C019C
:100030000C946C010C946C010C946C010C946C018C
:100040000C946C010C946C010C946C010C946C017C
:100050000C946C010C946C010C946C010C94400495
:100060000C946C010C9414050C94EA040C946C012F
:100070000C946C010C946C010C946C010C946C014C
:100080000C946C010C946C010C946C010C946C013C
:100090000C94B4040C948A040C946C010C946C01C0
:1000A0000C946C010C946C010C946C010C946C011C
:1000B0000C946C010C946C010C946C010C946C010C
:1000C0000C946C010C946C010C946C010C946C01FC
:1000D0000C946C010C946C010C946C010C946C01EC
:1000E0000C946C010C945F020C9433030C94030386
:1000F0000C943E020C944A050C9456030C94440252
:100100000C9456020C9442030C9425020C94F303B5
:100110000C9406030C9464020C9460020C943A0252
:100120000C9431020C9434020C94FF020C9448029B
:100130000C94A6030C941F020C9464030C942902E3
:100140000C94FB020C944C020C945A020C942D0259
:100150000C94520200002100240027002A002D00E8
:100160003000330001010000040107010A01000012
:100170002200250028002B002E003100340002014F
:100180000000050108010B010000200023002600EB
:1001900029002C002F00320000010000030106019D
:1001A00009010505050507050808080802020202FD
:1001B0000A0A080804040404010101010101010103
:1001C0000303030303030303040707070C0C0C0CCE
:1001D0000C0C0C0C020202020606060606060606B7
:1001E0000B0B0B0B0B0B0B0B010210202008081044
:1001F0002040102040800201020108040201010297
:10020000040810204080804020100804020180046F
:1002100002018040201008040201080402010102CA
:1002200004081020408001020408102040800000D3
:100230000A0B02090C0D0E08070304010000000060
:1002400000000000000000000000000000000000AE
:10025000000000000000000000001211100000006B
:10026000000000000000000000000000000000008E
:10027000000000004A0511241FBECFEFD1E2DEBF0F
:10028000CDBF00E00CBF12E0A0E0B2E0E6EAF0E192
:1002900000E00BBF02C007900D92A233B107D9F75F
:1002A00023E0A2E3B2E001C01D92A43EB207E1F751
:1002B00011E0CBE3D1E000E006C021970109802FD7
:1002C000FE010E944908CA33D10780E00807A9F758
:1002D0000E9414060C9451080C94000096E0899F2B
:1002E000D0011124AB58BC4F90967C936E935F97CE
:1002F00091E091969C939197E091E203F091E30352
:100300009091E103992339F0309751F0811108C0A1
:10031000809191031994309719F05C968C91FACFE3
:100320000895CF92DF92EF92FF920F931F9396E082
:10033000899FF0011124EB58FC4F11A2278D30A1A9
:100340002130310551F178F02230310509F451C0E6
:100350002330310509F452C01F910F91FF90EF90A7
:10036000DF90CF9008956623B9F361E070E00E94BA
:100370006E012FB7F8948091370290913802A091C6
:100380003902B0913A022FBF8093CD039093CE03F0
:10039000A093CF03B093D003DFCF9FB7F894C09062
:1003A0003702D0903802E0903902F0903A029FBFB5
:1003B0000091CD031091CE032091CF033091D00353
:1003C000C01AD10AE20AF30A0091DF031091E00398
:1003D00030E020E00C151D052E053F0550F462E0CD
:1003E00070E01F910F91FF90EF90DF90CF900C94F1
:1003F0006E016111B1CF63E070E0F3CF70E060E0B7
:10040000F0CF8150823108F05AC0E82FF0E0882701
:10041000E35FFD4F8F4F0C9449082D0231021F02FC
:10042000250229025F0234023A023E0244024802D7
:100430004C02520256025F025A026002640280912C
:1004400080008F77809380000895809180008F7D59
:10045000F9CF80918000877FF5CF84B58F7784BDF9
:10046000089584B58F7DFBCF8091B0008F77809306
:10047000B00008958091B0008F7DF9CF80919000F9
:100480008F77809390000895809190008F7DF9CFB1
:1004900080919000877FF5CF8091A0008F77809327
:1004A000A00008958091A0008F7DF9CF8091A000D9
:1004B000877FF5CF809120018F7780932001089569
:1004C000809120018F7DF9CF80912001877FF5CF2A
:1004D000CF93DF93282F30E0F901E25DFD4F849147
:1004E000F901E851FE4FD491F901EE55FE4FC49148
:1004F000CC23A1F081110E940102EC2FF0E0EE0F5D
:10050000FF1FE857FE4FA591B491EC91ED2381E0D8
:1005100090E009F480E0DF91CF91089580E090E0D1
:10052000FACF1F93CF93DF93282F30E0F901E25DDC
:10053000FD4F8491F901E851FE4FD491F901EE5538
:10054000FE4FC491CC23A9F0162F81110E94010205
:10055000EC2FF0E0EE0FFF1FE259FE4FA591B49192
:100560008FB7F894EC91111108C0D095DE23DC937D
:100570008FBFDF91CF911F910895DE2BF8CFCF93DE
:10058000DF9390E0FC01E851FE4F24918E559E4F81
:10059000FC0184918823C9F090E0880F991FFC0129
:1005A000EC5AFE4FA591B491FC01E259FE4FC59162
:1005B000D49161110DC09FB7F8948C91209582233E
:1005C0008C938881282328839FBFDF91CF91089542
:1005D000623051F49FB7F8943C91822F8095832329
:1005E0008C93E8812E2BEFCF8FB7F894EC912E2BC4
:1005F0002C938FBFEACF862F642F0C94BF02862FD7
:10060000642F0C949102862F0C946802AF92BF92D3
:10061000CF92DF92EF92FF920F931F93CF93DF93CE
:100620006C017B018B01040F151FEB015E01AE18FD
:10063000BF08C017D10759F06991D601ED91FC911F
:100640000190F081E02DC6011995892B79F7C5013C
:10065000DF91CF911F910F91FF90EF90DF90CF909E
:10066000BF90AF900895FC01538D448D252F30E04D
:10067000842F90E0821B930B541710F0CF960895AF
:1006800001970895FC01918D828D981761F0A28DDC
:10069000AE0FBF2FB11D5D968C91928D9F5F9F73A2
:1006A000928F90E008958FEF9FEF0895FC01918D58
:1006B000828D981731F0828DE80FF11D858D90E0C5
:1006C00008958FEF9FEF0895FC01918D228D892F62
:1006D00090E0805C9F4F821B91098F73992708954A
:1006E0008BE392E00E94640321E0892B09F420E06F
:1006F000822F089588ED92E00E94640321E0892B07
:1007000009F420E0822F0895FC01A48DA80FB92FD1
:10071000B11DA35ABF4F2C91848D90E001968F7329
:100720009927848FA689B7892C93A089B1898C9148
:10073000837080648C93938D848D981306C0028897
:10074000F389E02D80818F7D80830895EF92FF9261
:100750000F931F93CF93DF93EC0181E0888F9B8DE4
:100760008C8D98131AC0E889F989808185FF15C09E
:100770009FB7F894EE89FF896083E889F9898081C1
:100780008370806480839FBF81E090E0DF91CF9190
:100790001F910F91FF90EF900895F62E0B8D10E0B2
:1007A0000F5F1F4F0F731127E02E8C8D8E110CC021
:1007B0000FB607FCFACFE889F989808185FFF5CF6C
:1007C000CE010E948403F1CFEB8DEC0FFD2FF11DC4
:1007D000E35AFF4FF0829FB7F8940B8FEA89FB89A9
:1007E00080818062CFCFCF93DF93EC01888D882307
:1007F000B9F0AA89BB89E889F9898C9185FD03C084
:10080000808186FD0DC00FB607FCF7CF8C9185FF68
:10081000F2CF808185FFEDCFCE010E948403E9CF26
:10082000DF91CF91089580E090E0892B29F00E941C
:100830007A0381110E94000080E090E0892B29F06A
:100840000E94700381110E94000080E090E0892BDB
:1008500049F080E090E0892B29F00E94000081118E
:100860000E94000080E090E0892B49F080E090E059
:10087000892B29F00E94000081110C94000008953A
:100880001F920F920FB60F9211242F933F938F93C5
:100890009F93AF93BF938091370290913802A091BC
:1008A0003902B0913A023091360223E0230F2D37FE
:1008B00058F50196A11DB11D209336028093370291
:1008C00090933802A0933902B0933A028091320299
:1008D00090913302A0913402B09135020196A11D8E
:1008E000B11D8093320290933302A0933402B093EF
:1008F0003502BF91AF919F918F913F912F910F90B2
:100900000FBE0F901F90189526E8230F0296A11D89
:10091000B11DD2CF1F920F920FB60F9211240BB6BA
:100920000F922F933F934F935F936F937F938F9388
:100930009F93AF93BF93EF93FF938BE392E00E945B
:100940008403FF91EF91BF91AF919F918F917F9120
:100950006F915F914F913F912F910F900BBE0F9030
:100960000FBE0F901F9018951F920F920FB60F9207
:1009700011240BB60F922F938F939F93EF93FF93B6
:10098000E0914B02F0914C028081E0915102F09194
:10099000520282FD1DC09081809154028F5F8F733F
:1009A00020915502821741F0E0915402F0E0E55C9D
:1009B000FD4F958F80935402FF91EF919F918F91FE
:1009C0002F910F900BBE0F900FBE0F901F90189598
:1009D0008081F2CF1F920F920FB60F9211240BB6A7
:1009E0000F922F933F934F935F936F937F938F93C8
:1009F0009F93AF93BF93EF93FF9388ED92E00E9494
:100A00008403FF91EF91BF91AF919F918F917F915F
:100A10006F915F914F913F912F910F900BBE0F906F
:100A20000FBE0F901F9018951F920F920FB60F9246
:100A300011240BB60F922F938F939F93EF93FF93F5
:100A4000E091E802F091E9028081E091EE02F091FC
:100A5000EF0282FD1DC090818091F1028F5F8F7344
:100A60002091F202821741F0E091F102F0E0E852A9
:100A7000FD4F958F8093F102FF91EF919F918F91A0
:100A80002F910F900BBE0F900FBE0F901F901895D7
:100A90008081F2CF10923E0210923D0248EE53E068
:100AA00060E070E040933F02509340026093410247
:100AB0007093420287E192E090933C0280933B0264
:100AC0002DEC30E030934802209347022CEC30E0CC
:100AD00030934A022093490228EC30E030934C02D4
:100AE00020934B0229EC30E030934E0220934D02CC
:100AF0002AEC30E03093500220934F022EEC30E08D
:100B000030935202209351021092540210925502D7
:100B100010925602109257021092DB021092DA02E3
:100B20004093DC025093DD026093DE027093DF029B
:100B30009093D9028093D80285EC90E09093E502DF
:100B40008093E40284EC90E09093E7028093E602C5
:100B500080EC90E09093E9028093E80281EC90E0D1
:100B60009093EB028093EA0282EC90E09093ED0286
:100B70008093EC0286EC90E09093EF028093EE027B
:100B80001092F1021092F2021092F3021092F4020B
:100B90001092770310927B0310927A0310927C03D9
:100BA00089E292E09093760380937503E1E9F3E0A4
:100BB0001082148213821582369683E0ED3CF8078A
:100BC000B9F783E092E09093D8038093D70380E055
:100BD00092E09093DA038093D90384E08093DB035F
:100BE00083E08093DC0387E092E09093D6038093C8
:100BF000D5038AE090E09093DE038093DD0384EFD9
:100C000091E09093E0038093DF031092E30310924E
:100C1000E2031092D1031092D2031092D3031092E8
:100C2000D4031092E1030895789484B5826084BD62
:100C300084B5816084BD85B5826085BD85B58160E0
:100C400085BD80916E00816080936E00109281005E
:100C50008091810082608093810080918100816019
:100C600080938100809180008160809380008091DA
:100C7000B10084608093B1008091B0008160809366
:100C8000B0008091910082608093910080919100EA
:100C900081608093910080919000816080939000AA
:100CA0008091A10082608093A1008091A100816069
:100CB0008093A1008091A00081608093A00080912A
:100CC00021018260809321018091210181608093C4
:100CD00021018091200181608093200180917A0020
:100CE000846080937A0080917A00826080937A0099
:100CF00080917A00816080937A0080917A00806888
:100D000080937A001092C100E091E802F091E9022C
:100D100022E02083E091E402F091E5021082E0916C
:100D2000E602F091E7028FEC80831092F002E091EE
:100D3000EC02F091ED0296E09083E091EA02F091EE
:100D4000EB02808180618083E091EA02F091EB0206
:100D5000808188608083E091EA02F091EB028081DB
:100D600080688083E091EA02F091EB0280818F7DC0
:100D70008083E0914B02F0914C022083E091470286
:100D8000F09148021082E0914902F0914A028DEA06
:100D9000808310925302E0914F02F09150029083B1
:100DA000E0914D02F0914E02808180618083E0915C
:100DB0004D02F0914E02808188608083E0914D0267
:100DC000F0914E02808180688083E0914D02F09125
:100DD0004E0280818F7D808322242394412C512CCC
:100DE00032014394CC24CA94DC2C56E0352E209258
:100DF000E1038FB7F8944091370250913802609127
:100E0000390270913A028FBF8091D1039091D20341
:100E1000A091D303B091D403481B590B6A0B7B0BF1
:100E20008091DD039091DE03B0E0A0E08417950788
:100E3000A607B70708F00DC1C0E08091DB03C81713
:100E400060F4E091D703F091D803EC0FF11D62E05C
:100E500080810E94BF02CF5FF0CF912C8091DC0394
:100E6000981608F05FC0092D10E0E091D903F091C9
:100E7000DA03E00FF11F61E080810E94BF02E09180
:100E8000D903F091DA03E00FF11F60E080810E9446
:100E90009102D301C201092C04C0880F991FAA1F17
:100EA000BB1F0A94D2F75C017C01E094F094812C82
:100EB0008091DB038816F8F4C82DD0E0E091D703C9
:100EC000F091D803EC0FFD1F80810E9468022496E8
:100ED000CC0FDD1FCB58DC4F892B41F488819981E1
:100EE0008A299B29998388838394E2CF8881998179
:100EF0008E219F21F7CFE091D903F091DA03E00F23
:100F0000F11F61E080810E9491028091D90390914C
:100F1000DA03080F191F60E0F80180810E94BF0208
:100F200093949CCFC5E7D3E0FE01878D90A1892BD8
:100F300021F4148ED68EC58E11A2369683E0E13B45
:100F4000F80799F710E08091DB03181708F052C0FA
:100F500000E0E12EF12CEE0CFF1CF701E358FC4FF2
:100F60007F012091DC03021708F042C0F701608185
:100F70007181002E02C0769567950A94E2F7129F60
:100F800090011124200F311DE5E7F3E080E0458D4D
:100F9000568D2417350709F47AC08F5F36968A304C
:100FA000B1F760FF23C0E5E7F3E090E080E0448D17
:100FB000411117C0E091D503F091D603E20FF31F62
:100FC0006081389EF001399EF00D1124EB58FC4FE2
:100FD000648F368F258F10A2178E61E00E949101D9
:100FE00005C0019636968A30910509F70F5FB9CF93
:100FF0001F5FA9CF80E099A19111892F2696F3E078
:10100000C13BDF07C1F79FB7F89440913702509179
:1010100038026091390270913A029FBF4093D10328
:101020005093D2036093D3037093D403882389F041
:1010300080919603882369F08091940390919503A1
:10104000019739F4C0919103C11106C00E941304A5
:10105000CECE1092E103FACF8CEC8C0F833020F0CF
:10106000C83311F0C23391F76C2F88ED92E00E94E3
:10107000A6036C2F8BE392E00E94A60342E050E0AF
:101080006FE272E08BE392E00E940603DFCF6170B3
:10109000A5CFEE0FFF1F881F8BBF0790F691E02DA5
:0610A0001994F894FFCF43
:1010A6003534333231302F313233343536373839FF
:1010B6002A302300000000A60306033303F303646B
:1010C600034203560300000000FB02FF0203030D68
:0210D6000A000E
:00000001FF
