:100000000C9428010C9459010C9459010C94590139
:100010000C9459010C9459010C9459010C945901F8
:100020000C9459010C9459010C9459010C945901E8
:100030000C9459010C9459010C9459010C945901D8
:100040000C9459010C9416070C9459010C94590105
:100050000C9459010C9459010C9459010C9482058B
:100060000C9459010C9456060C942C060C945901CE
:100070000C9459010C9459010C9459010C94590198
:100080000C94E8060C9459010C9459010C945901F4
:100090000C94F6050C94CC050C9459010C94590160
:1000A0000C9459010C9459010C94BA060C94590102
:1000B0000C9459010C9459010C9459010C948C0620
:1000C0000C9459010C9459010C9459010C94590148
:1000D0000C9459010C9459010C9459010C94590138
:1000E0000C9459010C948D020C94D0010C94DA01FB
:1000F0000C94E0010C94E8010C94F0020C948D0334
:100100000C9440030C94FE020C94F2010C94AF0189
:100110000C94C1010C9400020C94FC010C94440753
:100120000C94D6010C949C020C94C9010C94E4012B
:100130000C9460020C94EE010C94CD010C94C5015A
:100140000C94AA010C94F60100000A0B02090C0D94
:100150000E0807030401000000000000000000007A
:10016000000000000000000000000000000000008F
:10017000000000001211100000000000000000004C
:10018000000000000000000000000000000000006F
:100190002200250028002B002E003100340002012F
:1001A0000000050108010B010000210024002700C8
:1001B0002A002D0030003300010100000401070176
:1001C0000A010505050507050808080802020202DC
:1001D0000A0A0808040404040101010101010101E3
:1001E0000303030303030303040707070C0C0C0CAE
:1001F0000C0C0C0C02020202060606060606060697
:100200000B0B0B0B0B0B0B0B010210202008081023
:100210002040102040800201020108040201010276
:10022000040810204080804020100804020180044F
:1002300002018040201008040201080402010102AA
:100240000408102040800102040810204080440768
:1002500011241FBECFEFD1E2DEBFCDBF00E00CBF47
:1002600012E0A0E0B2E0E0EFFAE100E00BBF02C074
:1002700007900D92A033B107D9F724E0A0E3B2E0D4
:1002800001C01D92A531B207E1F711E0C8E2D1E04B
:1002900000E006C021970109802FFE010E944F0B4C
:1002A000C732D10780E00807A9F70E94F7070C942E
:1002B000760D0C94000090E0FC01E85FFD4F249166
:1002C0008E539E4FFC018491882399F090E0880F13
:1002D000991FFC01E855FE4FA591B491FC01E2572E
:1002E000FE4F859194918FB7F894EC91E22BEC93AB
:1002F0008FBF0895282F30E0F901E85BFE4F9491FD
:10030000F901E85FFD4F44912E533E4FF9012491CE
:10031000222309F435C0992311F191509231F8F458
:10032000E92FF0E08827E856FE4F8F4F0C944F0BD3
:10033000C901CD01AA01C101C501AF01D001D6019A
:10034000DA01E001E401E801EE01F201AF01F6019A
:10035000FC010002809180008F7780938000E22F63
:10036000F0E0EE0FFF1FE257FE4FA591B4918FB75B
:10037000F894EC91611148C040954E234C938FBF87
:100380000895809180008F7DE8CF80918000877FE5
:10039000E4CF84B58F7784BDE2CF84B58F7DFBCF6A
:1003A0008091B0008F778093B000D9CF8091B0005A
:1003B0008F7DF9CF809190008F7780939000CFCF81
:1003C000809190008F7DF9CF80919000877FF5CF4D
:1003D0008091A0008F778093A000C1CF8091A00072
:1003E0008F7DF9CF8091A000877FF5CF809120018C
:1003F0008F7780932001B3CF809120018F7DF9CF3B
:1004000080912001877FF5CF4E2BB8CF3FB7F8946E
:100410008091380290913902A0913A02B0913B024A
:1004200026B5A89B05C02F3F19F00196A11DB11D4F
:100430003FBFBA2FA92F982F8827BC01CD01620F8B
:10044000711D811D911D42E0660F771F881F991F46
:100450004A95D1F708958F929F92AF92BF92CF9213
:10046000DF92EF92FF920E9406024B015C018AE04C
:10047000C82ED12CE12CF12C0E94060268197909B2
:100480008A099B09683E734081059105A8F321E024
:10049000C21AD108E108F10888EE880E83E0981EA0
:1004A000A11CB11CC114D104E104F10429F7FF908F
:1004B000EF90DF90CF90BF90AF909F908F90089576
:1004C000AF92BF92CF92DF92EF92FF920F931F9362
:1004D000CF93DF936C017B018B01040F151FEB01A0
:1004E0005E01AE18BF08C017D10759F06991D60157
:1004F000ED91FC910190F081E02DC6011995892BB9
:1005000079F7C501DF91CF911F910F91FF90EF9087
:10051000DF90CF90BF90AF900895FC01538D448D34
:10052000252F30E0842F90E0821B930B541710F09E
:10053000CF96089501970895FC01918D828D9817AB
:1005400061F0A28DAE0FBF2FB11D5D968C91928D83
:100550009F5F9F73928F90E008958FEF9FEF0895B4
:100560002FB7F89480913C0290913D02A0913E02F9
:10057000B0913F022FBF8093E5029093E602A093D3
:10058000E702B093E8028DED92E00E949C0297FF93
:1005900026C02FB7F89480913C0290913D02A09123
:1005A0003E02B0913F022FBF4091E5025091E6021A
:1005B0006091E7027091E802841B950BA60BB70BC4
:1005C0004091E1025091E2026091E3027091E402F5
:1005D00084179507A607B707B0F28FEF9FEF08952E
:1005E000FC01918D828D981731F0828DE80FF11DFD
:1005F000858D90E008958FEF9FEF0895FC01918D18
:10060000228D892F90E0805C9F4F821B91098F7310
:100610009927089580E492E00E94FE0221E0892B50
:1006200009F420E0822F08958DED92E00E94FE02F1
:1006300021E0892B09F420E0822F0895FC01A48D8C
:10064000A80FB92FB11DA35ABF4F2C91848D90E0F4
:1006500001968F739927848FA689B7892C93A089D7
:10066000B1898C91837080648C93938D848D981361
:1006700006C00288F389E02D80818F7D80830895F4
:10068000EF92FF920F931F93CF93DF93EC0181E0E2
:10069000888F9B8D8C8D98131AC0E889F989808189
:1006A00085FF15C09FB7F894EE89FF896083E889BC
:1006B000F98980818370806480839FBF81E090E0AE
:1006C000DF91CF911F910F91FF90EF900895F62E3B
:1006D0000B8D10E00F5F1F4F0F731127E02E8C8DD5
:1006E0008E110CC00FB607FCFACFE889F98980811A
:1006F00085FFF5CFCE010E941E03F1CFEB8DEC0FED
:10070000FD2FF11DE35AFF4FF0829FB7F8940B8F36
:10071000EA89FB8980818062CFCFCF93DF93EC01A0
:10072000888D8823B9F0AA89BB89E889F9898C91D9
:1007300085FD03C0808186FD0DC00FB607FCF7CF95
:100740008C9185FFF2CF808185FFEDCFCE010E9495
:100750001E03E9CFDF91CF91089580E090E0892BCF
:1007600029F00E94140381110E94000080E090E0B3
:10077000892B29F00E940A0381110E94000080E069
:1007800090E0892B49F080E090E0892B29F00E94CD
:10079000000081110E94000080E090E0892B49F068
:1007A00080E090E0892B29F00E94000081110C94D8
:1007B00000000895CF92DF92EF92FF92CF93DF93E4
:1007C000EC01603282E07807CCF5653B710514F0EE
:1007D00064EB70E0898128E830E0281B310987FD4F
:1007E0003395220F331F220F331F6901330FEE0899
:1007F000FF088A8128E532E0281B310987FD3395FF
:10080000220F331F220F331F032E000C440B550BF6
:100810002C193D094E095F09DB0177FF02C0B0E0EA
:10082000A0E00E940A0B24EB30E040E050E00E9480
:10083000E00AC20ED31EE41EF51EB601E881E033C5
:1008400070F5298188E890E0821B910927FD939536
:10085000880F991F880F991F681779077CF02A81E4
:1008600088E592E0821B910927FD9395880F991FD7
:10087000880F991F681779070CF4CB010297880F2E
:10088000991F4FB7F8942E2F30E0F901EE0FFF1F9C
:10089000E20FF31FE658FC4F928381834FBFDF9135
:1008A000CF91FF90EF90DF90CF9008958130910528
:1008B00081F41092800082E0809381001092850084
:1008C00010928400B19A80916F00826080936F00D3
:1008D00008958230910569F41092900082E080932F
:1008E0009100109295001092940088BB8093710043
:1008F00008958330910569F41092A00082E08093FE
:10090000A1001092A5001092A40089BB80937200F0
:100910000895892B61F41092200182E080932101D7
:1009200010922501109224018ABB809373000895D0
:10093000AF92BF92CF92DF92EF92FF920F931F93ED
:10094000CF93DF936B017A01EC01C05DDD4F28810D
:100950003CE0389F8001399F100D1124A0900A04BB
:10096000B12C27FF1FC0FB011182108288818F5F8D
:10097000888388819801280F311D87FD3A95F601FB
:100980002A153B051CF488818C30C4F1808191814B
:10099000049680349C4908F473C0F60180819181EB
:1009A000049670C088819801280F311D87FD3A9503
:1009B0002A153B05DCF68881A801480F511D87FDEB
:1009C0005A95FA01EE0FFF1FE40FF51FE658FC4F92
:1009D000808186FFCBCF8881F801E80FF11D87FD6C
:1009E000FA95CF01EE0FFF1FE80FF91FE658FC4FF5
:1009F000808160E08F730E947A01B8CF80819181FD
:100A00002881A801420F511D27FD5A959A01FA012C
:100A1000EE0FFF1FE20FF31FE658FC4F21813281DA
:100A2000820F931FF7019183808388819801280F9B
:100A3000311D87FD3A95F901EE0FFF1FE20FF31FFD
:100A4000E658FC4F808186FF22C08881080F111D67
:100A500087FD1A95F801EE0FFF1FE00FF11FE65812
:100A6000FC4F808161E08F73DF91CF911F910F91D7
:100A7000FF90EF90DF90CF90BF90AF900C947A01F1
:100A800080E49CE9F701918380838FEF8883DF9175
:100A9000CF911F910F91FF90EF90DF90CF90BF907B
:100AA000AF90089542E050E06CE172E080E492E0A3
:100AB0000C9460020F931F93CF93DF93EC01888116
:100AC0009981009759F02A813B812617370730F02A
:100AD00081E0DF91CF911F910F9108958B016F5F9E
:100AE0007F4F0E947C0C009759F0998388831B8369
:100AF0000A832C813D81232B59F7FC011082E8CF1A
:100B000080E0E7CF1F920F920FB60F9211242F9320
:100B10003F938F939F93AF93BF9380913C029091AB
:100B20003D02A0913E02B0913F023091370223E096
:100B3000230F2D3758F50196A11DB11D20933702C3
:100B400080933C0290933D02A0933E02B0933F02FB
:100B50008091380290913902A0913A02B0913B0203
:100B60000196A11DB11D8093380290933902A09384
:100B70003A02B0933B02BF91AF919F918F913F9109
:100B80002F910F900FBE0F901F90189526E8230FFE
:100B90000296A11DB11DD2CF1F920F920FB60F92D8
:100BA00011240BB60F922F933F934F935F936F9344
:100BB0007F938F939F93AF93BF93EF93FF9380E4C3
:100BC00092E00E941E03FF91EF91BF91AF919F9120
:100BD0008F917F916F915F914F913F912F910F90E6
:100BE0000BBE0F900FBE0F901F9018951F920F9283
:100BF0000FB60F9211240BB60F922F938F939F93E2
:100C0000EF93FF93E0915002F09151028081E091C7
:100C10005602F091570282FD1DC0908180915902C9
:100C20008F5F8F7320915A02821741F0E091590231
:100C3000F0E0E05CFD4F958F80935902FF91EF91BA
:100C40009F918F912F910F900BBE0F900FBE0F9021
:100C50001F9018958081F2CF1F920F920FB60F92BE
:100C600011240BB60F922F933F934F935F936F9383
:100C70007F938F939F93AF93BF93EF93FF938DEDEC
:100C800092E00E941E03FF91EF91BF91AF919F915F
:100C90008F917F916F915F914F913F912F910F9025
:100CA0000BBE0F900FBE0F901F9018951F920F92C2
:100CB0000FB60F9211240BB60F922F938F939F9321
:100CC000EF93FF93E091ED02F091EE028081E091CD
:100CD000F302F091F40282FD1DC090818091F60232
:100CE0008F5F8F732091F702821741F0E091F60237
:100CF000F0E0E352FD4F958F8093F602FF91EF9164
:100D00009F918F912F910F900BBE0F900FBE0F9060
:100D10001F9018958081F2CF1F920F920FB60F92FD
:100D200011240BB60F922F933F934F935F936F93C2
:100D30007F938F939F93AF93BF93EF93FF9348E27B
:100D400051E064E271E090E080E00E949804FF913D
:100D5000EF91BF91AF919F918F917F916F915F9133
:100D60004F913F912F910F900BBE0F900FBE0F90A0
:100D70001F9018951F920F920FB60F9211240BB669
:100D80000F922F933F934F935F936F937F938F9324
:100D90009F93AF93BF93EF93FF9348EA50E064EAC9
:100DA00070E083E090E00E949804FF91EF91BF9182
:100DB000AF919F918F917F916F915F914F913F91F3
:100DC0002F910F900BBE0F900FBE0F901F90189594
:100DD0001F920F920FB60F9211240BB60F922F9302
:100DE0003F934F935F936F937F938F939F93AF93B3
:100DF000BF93EF93FF9348E950E064E970E082E02D
:100E000090E00E949804FF91EF91BF91AF919F9164
:100E10008F917F916F915F914F913F912F910F90A3
:100E20000BBE0F900FBE0F901F9018951F920F9240
:100E30000FB60F9211240BB60F922F933F934F933F
:100E40005F936F937F938F939F93AF93BF93EF9332
:100E5000FF9348E850E064E870E081E090E00E9491
:100E60009804FF91EF91BF91AF919F918F917F91E6
:100E70006F915F914F913F912F910F900BBE0F900B
:100E80000FBE0F901F9018951092430210924202CD
:100E900048EE53E060E070E0409344025093450216
:100EA00060934602709347028EE092E09093410275
:100EB000809340022DEC30E030934D0220934C02A1
:100EC0002CEC30E030934F0220934E0228EC30E0BF
:100ED000309351022093500229EC30E030935302BA
:100EE000209352022AEC30E03093550220935402B2
:100EF0002EEC30E0309357022093560210925902A4
:100F000010925A0210925B0210925C021092E00260
:100F10001092DF024093E1025093E2026093E302F9
:100F20007093E4029093DE028093DD0285EC90E002
:100F30009093EA028093E90284EC90E09093EC02B3
:100F40008093EB0280EC90E09093EE028093ED02B0
:100F500081EC90E09093F0028093EF0282EC90E0BD
:100F60009093F2028093F10286EC90E09093F40269
:100F70008093F3021092F6021092F7021092F80298
:100F80001092F90280910A04803348F591E0980F9D
:100F900090930A0480930E0490E0FC01EE0FFF1F73
:100FA000E80FF91FE658FC4F88EB9BE092838183A2
:100FB00080910A048033B8F491E0980F90930A046A
:100FC00080930B0490E0FC01EE0FFF1FE80FF91F68
:100FD000E658FC4F88EB9BE09283818308958FEF66
:100FE00080930E04E5CF8FEF80930B040895CF9389
:100FF000DF9300D000D01F921F92CDB7DEB7789458
:1010000084B5826084BD84B5816084BD85B582600D
:1010100085BD85B5816085BD80916E0081608093BE
:101020006E00109281008091810082608093810027
:101030008091810081608093810080918000816037
:10104000809380008091B10084608093B100809192
:10105000B00081608093B0008091910082608093A5
:101060009100809191008160809391008091900027
:101070008160809390008091A10082608093A100A4
:101080008091A10081608093A1008091A000816087
:101090008093A00080912101826080932101809142
:1010A00021018160809321018091200181608093E2
:1010B000200180917A00846080937A0080917A0088
:1010C000826080937A0080917A00816080937A00B8
:1010D00080917A00806880937A001092C10080919C
:1010E0000E04803308F042C08DE00E945B018091C5
:1010F0000E04282F30E0F901EE0FFF1FE20FF31F5F
:10110000E658FC4F9081907C9D60908310920F0474
:10111000109210042CE0622F0E94430B90E0829FFB
:10112000B001112430E020E0AB01420F531FFA015F
:10113000EE0FFF1FE40FF51FE658FC4F408146FD00
:1011400007C02F5F3F4F2C30310571F70E945604C6
:10115000E0910E048E2F90E0FC01EE0FFF1FE80FD0
:10116000F91FE658FC4F80818064808380910B04D6
:10117000803308F042C08CE00E945B0180910B0438
:10118000282F30E0F901EE0FFF1FE20FF31FE658A2
:10119000FC4F9081907C9C60908310920C04109284
:1011A0000D042CE0622F0E94430B90E0829FB0015F
:1011B000112430E020E0AB01420F531FFA01EE0F83
:1011C000FF1FE40FF51FE658FC4F408146FD07C0A6
:1011D0002F5F3F4F2C30310571F70E945604E0918C
:1011E0000B048E2F90E0FC01EE0FFF1FE80FF91F9C
:1011F000E658FC4F8081806480836AE570E08EE071
:1012000094E00E94DA036AE570E08BE094E00E94CB
:10121000DA038BE00E945B018AE00E945B01E091AF
:10122000ED02F091EE0222E02083E091E902F091DC
:10123000EA021082E091EB02F091EC028FEC8083E5
:101240001092F502E091F102F091F20296E09083A3
:10125000E091EF02F091F002808180618083E09163
:10126000EF02F091F002808188608083E091EF02CC
:10127000F091F002808180688083E091EF02F0912C
:10128000F00280818F7D8083E0915002F0915102C5
:101290002083E0914C02F0914D021082E0914E02C9
:1012A000F0914F028DEA808310925802E09154022F
:1012B000F09155029083E0915202F09153028081A7
:1012C00080618083E0915202F091530280818860B6
:1012D0008083E0915202F091530280818068808384
:1012E000E0915202F091530280818F7D8083DD2452
:1012F000D3948AE5E82EF12C8DED92E00E94FE0257
:10130000892BD1F31A8219821C821B821E821D82B4
:1013100070E060E0CE0101960E945A0529813A8171
:1013200081112CC02115310519F0C9010E94F30B60
:101330001A8219821E821D821C821B820E94B002A8
:101340004D815E8197FD22C08F8318868A010F5FD1
:101350001F4FB801CE0101960E945A05882371F3F0
:1013600029813A818D819E81BE01695F7F4F820F05
:10137000931F0E946F0D1E830D83E0CF1E821D827E
:101380006EE172E0C9010E946F0DD8CF69817A8148
:1013900080E492E00E9460020E9452058091360231
:1013A00081114DC08D819E81892B49F06FE172E0E2
:1013B00089819A810E94660D892B09F440C04DE015
:1013C00050E061E272E080E492E00E9460020E94DC
:1013D000520570E060E0CE0101960E945A05298115
:1013E0003A81811124C02115310519F0C9010E94EB
:1013F000F30B1A8219821E821D821C821B8280912D
:1014000034029091350285309105C1F13CF582306E
:10141000910509F466C0049709F48DC089819A8109
:10142000009711F00E94F30B0E94AD0365CF1E825E
:101430001D826EE172E0C9010E946F0DE0CF8981CB
:101440009A81009739F00E94A40A70933502609344
:101450003402D5CF60E070E0CB01F7CF8630910544
:1014600009F456C00897D1F68091000290910102CC
:10147000823391050CF441C005973BC08091360240
:101480008D2580933602882361F061E08BE00E9415
:101490007A018AE00E945B0161E08AE00E947A01A1
:1014A000BDCF60E08BE00E947A018AE00E945B0180
:1014B00060E08AE00E947A01F0920302E092020268
:1014C000F0920102E09200026AE570E08BE094E0A5
:1014D0000E94DA036AE570E08EE094E00E94DA038D
:1014E0009DCF8091000290910102833891052CF4E8
:1014F0000596909301028093000260910002709122
:1015000001028EE094E00E94DA030E942B0286CF53
:101510008091020290910302833891052CF4059684
:101520009093030280930202609102027091030281
:101530008BE094E0E8CF8091020290910302823325
:10154000910594F30597ECCF1F93FC019927882709
:10155000BC01E89411911032E9F3193010F01E30FB
:10156000C8F31B3251F01D3249F4689406C00E9442
:10157000CB0A610F711D811D911D119110531A30FD
:10158000B0F33EF490958095709561957F4F8F4FA5
:101590009F4F1F910895592F482F372F262F660FE1
:1015A000771F881F991F660F771F881F991F620F6B
:1015B000731F841F951F660F771F881F991F08953B
:1015C000052E97FB1EF400940E94F70A57FD07D0E2
:1015D0000E94120B07FC03D04EF40C94F70A5095AE
:1015E0004095309521953F4F4F4F5F4F089590950F
:1015F0008095709561957F4F8F4F9F4F08950E9402
:10160000340BA59F900DB49F900DA49F800D911D4C
:1016100011240895B7FF0C94FF0A0E94FF0A821B51
:10162000930B0895A1E21A2EAA1BBB1BFD010DC04E
:10163000AA1FBB1FEE1FFF1FA217B307E407F50782
:1016400020F0A21BB30BE40BF50B661F771F881F5E
:10165000991F1A9469F760957095809590959B01F4
:10166000AC01BD01CF010895A29FB001B39FC0019D
:10167000A39F700D811D1124911DB29F700D811DBE
:101680001124911D0895991B79E004C0991F9617A4
:1016900008F0961B881F7A95C9F780950895EE0F7C
:1016A000FF1F881F8BBF0790F691E02D19940F93B1
:1016B0001F93CF93DF938230910510F482E090E086
:1016C000E0911304F091140430E020E0B0E0A0E0D9
:1016D000309799F42115310509F44AC0281B390BBC
:1016E00024303105D8F58A819B816115710589F116
:1016F000FB0193838283FE0111C0408151810281ED
:10170000138148175907E0F04817590799F41097C3
:1017100061F012960C93129713961C933296CF0198
:10172000DF91CF911F910F910895009313041093AF
:101730001404F4CF2115310551F04217530738F046
:10174000A901DB019A01BD01DF01F801C1CFEF0161
:10175000F9CF9093140480931304CDCFFE01E20FD0
:10176000F31F819391932250310939832883D7CF76
:101770002091110430911204232B41F42091060290
:101780003091070230931204209311042091040237
:10179000309105022115310541F42DB73EB7409136
:1017A000080250910902241B350BE0911104F091BD
:1017B0001204E217F307A0F42E1B3F0B281739077A
:1017C00078F0AC014E5F5F4F2417350748F04E0F9D
:1017D0005F1F5093120440931104819391939FCF04
:1017E000F0E0E0E09CCFCF93DF930097E9F0FC01BD
:1017F000329713821282A0911304B0911404ED0168
:1018000030E020E01097A1F420813181820F931FF6
:1018100020911104309112042817390709F061C092
:10182000F0931204E0931104DF91CF910895EA013F
:10183000CE17DF07E8F54A815B819E01411551050E
:10184000B1F7E901FB83EA8349915991C40FD51F90
:10185000EC17FD0761F4808191810296840F951F3A
:10186000E90199838883828193819B838A83F0E055
:10187000E0E012968D919C9113970097B9F52D9108
:101880003C911197CD010296820F931F2091110474
:10189000309112042817390739F6309751F5109214
:1018A000140410921304B0931204A0931104BCCF3B
:1018B000D383C28340815181840F951FC817D907F4
:1018C00061F44E5F5F4F88819981480F591F5183A2
:1018D00040838A819B81938382832115310509F09E
:1018E000B0CFF0931404E09313049ECFFD01DC010C
:1018F000C0CF13821282D7CF4F925F926F927F92A6
:101900008F929F92AF92BF92CF92DF92EF92FF920F
:101910000F931F93CF93DF938C01009799F4CB0122
:10192000DF91CF911F910F91FF90EF90DF90CF90BB
:10193000BF90AF909F908F907F906F905F904F90EF
:101940000C94570BFC01E60FF71F9C012250310944
:10195000E217F30708F4AEC0D901CD91DC911197DD
:10196000C617D70720F1C530D10578F0CE0104970E
:101970008617970750F0C61BD70B2297C193D193B8
:101980006D937C93CF010E94F30BC801DF91CF913F
:101990001F910F91FF90EF90DF90CF90BF90AF908D
:1019A0009F908F907F906F905F904F9008955B0114
:1019B000AC1ABD0A4C018C0E9D1EA0911304B0916F
:1019C0001404512C412CF12CE12C109731F580910D
:1019D0001104909112048815990509F05CC046160F
:1019E000570608F058C080910402909105020097B4
:1019F00041F48DB79EB74091080250910902841BB3
:101A0000950BE817F90708F055C0F0931204E0931E
:101A10001104F90171836083B8CF8D919C91119766
:101A200012966C90129713967C901397A815B9058F
:101A300059F56C0142E0C40ED11CCA14DB0420F13C
:101A4000AC014A195B09DA011296159780F062829F
:101A5000738251834083D9016D937C93E114F10427
:101A600071F0D7011396FC93EE9312978ECF2296C6
:101A70008C0F9D1FF90191838083F301EFCFF093C9
:101A80001404E093130481CF4816590608F42C017E
:101A90007D01D3019ACFCB010E94570B7C010097A7
:101AA00049F0AE01B8010E945D0DC8010E94F30B20
:101AB00087016BCF10E000E068CFFB01DC0102C0C2
:101AC00001900D9241505040D8F70895FB01DC0180
:101AD0008D91019080190110D9F3990B0895FB01A4
:101AE000DC0101900D920020E1F70895F894FFCFFA
:101AF0005A005A0000001504800000000000400356
:101B000060028D028D03FE029C02F0020D0A003578
:101B100000706C616E65206973206F66662100003D
:00000001FF
