:100000000C9444010C9475010C9475010C947501C9
:100010000C9475010C9475010C9475010C94750188
:100020000C9475010C9475010C9475010C94750178
:100030000C9475010C9475010C9475010C94750168
:100040000C9475010C94C5090C9475010C94750100
:100050000C9475010C9475010C9475010C94F108C5
:100060000C9475010C94BB080C9491080C947501C8
:100070000C9475010C9475010C9475010C94750128
:100080000C9497090C9475010C9475010C947501EE
:100090000C9475010C9475010C9475010C94750108
:1000A0000C9475010C9475010C9469090C947501FC
:1000B0000C9475010C9475010C9475010C943B091A
:1000C0000C9475010C9475010C9475010C947501D8
:1000D0000C9475010C9475010C9475010C947501C8
:1000E0000C9475010C940B040C94EF030C943C04D9
:1000F0000C94B4020C940E030C94D4030C94040AD4
:100100000C94C2050C94DF030C94F7030C94E503E4
:100110000C9478020C9405040C942F070C94D003D3
:100120000C945B030C9401040C94F3030C94D6021E
:100130000C94D8030C94A5020C946D040C94CA037F
:100140000C940F040C94C3050C94380F0C94E90321
:100150000C940A040C94DC030C94AD040C94C802B7
:100160000C94FD0300002100240027002A002D002C
:100170003000330001010000040107010A01000002
:100180002200250028002B002E003100340002013F
:100190000000050108010B010000200023002600DB
:1001A00029002C002F00320000010000030106018D
:1001B00009010505050507050808080802020202ED
:1001C0000A0A0808040404040101010101010101F3
:1001D0000303030303030303040707070C0C0C0CBE
:1001E0000C0C0C0C020202020606060606060606A7
:1001F0000B0B0B0B0B0B0B0B010210202008081034
:100200002040102040800201020108040201010286
:10021000040810204080804020100804020180045F
:1002200002018040201008040201080402010102BA
:1002300004081020408001020408102040800000C3
:100240000A0B02090C0D0E08070304010000000050
:10025000000000000000000000000000000000009E
:10026000000000000000000000001211100000005B
:10027000000000000000000000000000000000007E
:1002800000000000040A380F11241FBECFEFD1E296
:10029000DEBFCDBF00E00CBF12E0A0E0B2E0E8EDB1
:1002A000F3E200E00BBF02C007900D92A239B10744
:1002B000D9F724E0A2E9B2E001C01D92AF37B2073E
:1002C000E1F711E0C3E4D1E000E006C021970109A5
:1002D000802FFE010E94B30FC234D10780E00807CF
:1002E000A9F70E94EA0A0C94DA110C9400008F928C
:1002F0009F92AF92BF92FF920F931F93CF93DF9382
:10030000F090F1032FE22F1508F455C02091F3036C
:1003100008E512E0021B110927FD1395000F111FBC
:10032000000F111F2091F203C8E8D0E0C21BD109D1
:1003300027FDD395CC0FDD1FCC0FDD1F4E010D2EF9
:10034000000CAA08BB08DC01853B910514F0A4EB66
:10035000B0E0B7FF02C0B0E0A0E09801012E000CB1
:10036000440B550B281939094A095B090E946E0F85
:1003700024EB30E040E050E00E94440F820E931ED8
:10038000A41EB51E8C169D062CF0E8018016910661
:100390000CF4E4012297CC0FDD1F2FB7F8948F2DBA
:1003A00090E0FC01EE0FFF1FE80FF91FE25BFC4F2E
:1003B000D283C1832FBFDF91CF911F910F91FF9007
:1003C000BF90AF909F908F90089596E0899FD00145
:1003D0001124A45FBB4F90967C936E935F9791E03E
:1003E00091969C939197E0917904F0917A04909181
:1003F0007804992339F0309751F0811108C0809129
:1004000028041994309719F05C968C91FACF0895CE
:10041000CF92DF92EF92FF920F931F9396E0899F06
:10042000F0011124E45FFB4F11A2278D30A1213090
:10043000310551F178F02230310509F451C02330F3
:10044000310509F452C01F910F91FF90EF90DF909A
:10045000CF9008956623B9F361E070E00E94E50152
:100460002FB7F8948091AD029091AE02A091AF02A7
:10047000B091B0022FBF8093640490936504A09361
:100480006604B0936704DFCF9FB7F894C090AD02C5
:10049000D090AE02E090AF02F090B0029FBF00910A
:1004A0006404109165042091660430916704C01AB9
:1004B000D10AE20AF30A009176041091770430E041
:1004C00020E00C151D052E053F0550F462E070E09C
:1004D0001F910F91FF90EF90DF90CF900C94E5016A
:1004E0006111B1CF63E070E0F3CF70E060E0F0CF76
:1004F000AF92BF92CF92DF92EF92FF920F931F9332
:10050000CF93DF936C017B018B01040F151FEB016F
:100510005E01AE18BF08C017D10759F06991D60126
:10052000ED91FC910190F081E02DC6011995892B88
:1005300079F7C501DF91CF911F910F91FF90EF9057
:10054000DF90CF90BF90AF900895FC01538D448D04
:10055000252F30E0842F90E0821B930B541710F06E
:10056000CF96089501970895FC01918D828D98177B
:1005700061F0A28DAE0FBF2FB11D5D968C91928D53
:100580009F5F9F73928F90E008958FEF9FEF089584
:10059000FC01918D828D981731F0828DE80FF11D4D
:1005A000858D90E008958FEF9FEF0895FC01918D68
:1005B000228D892F90E0805C9F4F821B91098F7361
:1005C0009927089581EB92E00E94D60221E0892BC1
:1005D00009F420E0822F0895FC01A48DA80FB92F03
:1005E000B11DA35ABF4F2C91848D90E001968F735B
:1005F0009927848FA689B7892C93A089B1898C917A
:10060000837080648C93938D848D981306C00288C8
:10061000F389E02D80818F7D80830895EF92FF9292
:100620000F931F93CF93DF93EC0181E0888F9B8D15
:100630008C8D98131AC0E889F989808185FF15C0CF
:100640009FB7F894EE89FF896083E889F9898081F2
:100650008370806480839FBF81E090E0DF91CF91C1
:100660001F910F91FF90EF900895F62E0B8D10E0E3
:100670000F5F1F4F0F731127E02E8C8D8E110CC052
:100680000FB607FCFACFE889F989808185FFF5CF9D
:10069000CE010E94EC02F1CFEB8DEC0FFD2FF11D8E
:1006A000E35AFF4FF0829FB7F8940B8FEA89FB89DA
:1006B00080818062CFCFCF93DF93EC01888D882338
:1006C000B9F0AA89BB89E889F9898C9185FD03C0B5
:1006D000808186FD0DC00FB607FCF7CF8C9185FF9A
:1006E000F2CF808185FFEDCFCE010E94EC02E9CFF1
:1006F000DF91CF91089580E090E0892B29F00E944E
:10070000E20281110E94000080E090E0892B49F014
:1007100080E090E0892B29F00E94000081110E9466
:10072000000080E090E0892B49F080E090E0892B88
:1007300029F00E94000081110E94000080E090E0FA
:10074000892B49F080E090E0892B29F00E9400007D
:1007500081110C94000008958150823108F05AC034
:10076000E82FF0E08827E854FC4F8F4F0C94B30F2C
:10077000D803DC03CA03D003D4030A04DF03E50370
:10078000E903EF03F303F703FD0301040A0405047F
:100790000B040F04809180008F7780938000089570
:1007A000809180008F7DF9CF80918000877FF5CF89
:1007B00084B58F7784BD089584B58F7DFBCF8091FC
:1007C000B0008F778093B00008958091B0008F7D46
:1007D000F9CF809190008F77809390000895809159
:1007E00090008F7DF9CF80919000877FF5CF809129
:1007F000A0008F778093A00008958091A0008F7D46
:10080000F9CF8091A000877FF5CF809120018F776D
:10081000809320010895809120018F7DF9CF8091F0
:100820002001877FF5CFCF93DF93282F30E0F901A8
:10083000E25CFD4F8491F901E850FE4FD491F9013B
:10084000EE54FE4FC491CC23A1F081110E94AC0361
:10085000EC2FF0E0EE0FFF1FE856FE4FA591B4918C
:10086000EC91ED2381E090E009F480E0DF91CF91FD
:10087000089580E090E0FACF862F0C9413041F9324
:10088000CF93DF93282F30E0F901E25CFD4F849194
:10089000F901E850FE4FD491F901EE54FE4FC49196
:1008A000CC23A9F0162F81110E94AC03EC2FF0E0AD
:1008B000EE0FFF1FE258FE4FA591B4918FB7F89449
:1008C000EC91111108C0D095DE23DC938FBFDF912E
:1008D000CF911F910895DE2BF8CF862F642F0C94B3
:1008E0003F04CF93DF9390E0FC01E850FE4F24914A
:1008F0008E549E4FFC0184918823C9F090E0880FAC
:10090000991FFC01EC59FE4FA591B491FC01E258EE
:10091000FE4FC591D49161110DC09FB7F8948C9191
:10092000209582238C938881282328839FBFDF9181
:10093000CF910895623051F49FB7F8943C91822F83
:10094000809583238C93E8812E2BEFCF8FB7F8947B
:10095000EC912E2B2C938FBFEACF862F642F0C9413
:1009600071043FB7F8948091970290919802A091FA
:100970009902B0919A0226B5A89B05C02F3F19F0A5
:100980000196A11DB11D3FBFBA2FA92F982F88270F
:10099000BC01CD01620F711D811D911D42E0660FEA
:1009A000771F881F991F4A95D1F708958F929F92BC
:1009B000AF92BF92CF92DF92EF92FF924B015C0118
:1009C0000E94B1046B017C010E94B1046C197D0985
:1009D0008E099F09683E734081059105A8F321E0C7
:1009E000821A9108A108B10888EEC80E83E0D81ECB
:1009F000E11CF11C81149104A104B10429F7FF90BA
:100A0000EF90DF90CF90BF90AF909F908F90089520
:100A1000AF92BF92CF92DF92EF92FF920F931F930C
:100A2000CF93DF936B017A01EC01CE56DD4F288125
:100A30003CE0389F8001399F100D1124A090DE0307
:100A4000B12C27FF1FC0FB011182108288818F5FAC
:100A5000888388819801280F311D87FD3A95F6011A
:100A60002A153B051CF488818C30C4F1808191816A
:100A7000049680349C4908F473C0F601808191810A
:100A8000049670C088819801280F311D87FD3A9522
:100A90002A153B05DCF68881A801480F511D87FD0A
:100AA0005A95FA01EE0FFF1FE40FF51FE25BFC4FB2
:100AB000808186FFCBCF8881F801E80FF11D87FD8B
:100AC000FA95CF01EE0FFF1FE80FF91FE25BFC4F15
:100AD000808160E08F730E943F04B8CF8081918154
:100AE0002881A801420F511D27FD5A959A01FA014C
:100AF000EE0FFF1FE20FF31FE25BFC4F21813281FB
:100B0000820F931FF7019183808388819801280FBA
:100B1000311D87FD3A95F901EE0FFF1FE20FF31F1C
:100B2000E25BFC4F808186FF22C08881080F111D87
:100B300087FD1A95F801EE0FFF1FE00FF11FE25B32
:100B4000FC4F808161E08F73DF91CF911F910F91F6
:100B5000FF90EF90DF90CF90BF90AF900C943F0448
:100B600080E49CE9F701918380838FEF8883DF9194
:100B7000CF911F910F91FF90EF90DF90CF90BF909A
:100B8000AF900895089590E080E00895CF93DF93AB
:100B9000C4EBD0E0CE010E9477016AE070E080E013
:100BA00090E00E94D6042A97C63F8FEFD80791F7AE
:100BB000DF91CF910895CF93DF93EC0160E08E81B8
:100BC0000E943F0461E08E810E943F0460E08E81BC
:100BD0000E943F048BE891E00197F1F7DF91CF91FC
:100BE0000895CF92DF92EF92FF920F931F93CF93CE
:100BF000DF936C017C0187E0E80EF11CD0E0C0E0DF
:100C0000062F10E0B8010C2E02C0759567950A9466
:100C1000E2F76170F70181917F010E943F04219604
:100C2000C430D10579F7C601DF91CF911F910F91A3
:100C3000FF90EF90DF90CF900C94DB05CF92DF9286
:100C4000EF92FF920F931F93CF93DF93EC01F62E59
:100C5000642F8C810E943F048D818F3F19F060E0EA
:100C60000E943F040F2D10E08F8584FF25C06E0188
:100C700087E0C80ED11CF12CE12CB8010E2C02C06B
:100C8000759567950A94E2F76170F60181916F019D
:100C90000E943F04FFEFEF1AFF0A88E0E816F10414
:100CA00061F7CE01DF91CF911F910F91FF90EF90EF
:100CB000DF90CF900C94DB05B80184E075956795C3
:100CC0008A95E1F7CE010E94F1056F2DCE01DF91EB
:100CD000CF911F910F91FF90EF90DF90CF900C94E8
:100CE000F10540E0682F84EF93E00C941E0681E04C
:100CF0000E9471068BE39FE10197F1F70895CF936E
:100D0000DF93813029F0909103049860909303045D
:100D1000809307041092080480E48093090480E122
:100D200080930A0480E580930B0461E08091F803CE
:100D30000E9471048091F9038F3F19F061E00E94D5
:100D4000710461E08091FA030E947104C4EFD3E062
:100D50009E01245F33408091030484FD0BC084E036
:100D600090E021962817390744F461E08E810E94B3
:100D70007104EECF88E090E0F4CF8BE39DE0019723
:100D8000F1F760E08091F8030E943F0460E08091F9
:100D9000FA030E943F048091F9038F3F19F060E04D
:100DA0000E943F048091030484FD34C063E084EF1B
:100DB00093E00E94F105CBE4D6E4CE010197F1F770
:100DC00063E084EF93E00E94F1052197F1F763E07F
:100DD00084EF93E00E94F10583E592E00197F1F73B
:100DE00062E084EF93E00E94F10580910304806249
:100DF0000E94710684E0809304048CE00E947106D6
:100E00000E94770682E08093050486E0DF91CF910F
:100E10000C94710680620E9471068BE496E401973F
:100E2000F1F78091030480620E94710683E592E0ED
:100E30000197F1F78091030480620E947106D5CF7B
:100E400090910704691710F06FEF690FE62FF0E03B
:100E5000EC50FC4F9489890F80680C94710641E036
:100E60000E941E0681E090E008958F929F92AF92BB
:100E7000BF920F931F93CF93DF93CDB7DEB7A197A8
:100E80000FB6F894DEBF0FBECDBF19A2423008F4F2
:100E90004AE08E010F5D1F4F842E912CB12CA12CA6
:100EA000A50194010E94760FE62FB901CA01EA302C
:100EB00044F5E05DD801EE938D01232B242B252BE7
:100EC00079F790E080E0109769F0FD010190002033
:100ED000E9F73197AF014A1B5B0BBD0184EF93E04B
:100EE0000E947802A1960FB6F894DEBF0FBECDBF68
:100EF000DF91CF911F910F91BF90AF909F908F90F6
:100F00000895E95CD7CFCF92DF92EF92FF926C0108
:100F1000990FEE08FF08F7FE16C041E06DE284EF7E
:100F200093E00E941E0666277727CB016C197D0986
:100F30008E099F094AE00E9435070196FF90EF90C5
:100F4000DF90CF9008954AE0C701B601FF90EF907F
:100F5000DF90CF900C943507FC0101900020E9F759
:100F60003197AF01481B590BBC0184EF93E00C94FF
:100F70007802CF93DF938091A5029091A602892BEE
:100F800059F561E083E30E943F04C1E0D0E0809125
:100F9000A3029091A40260E0892B11F4219661E0F4
:100FA00084E30E943F048091A1029091A20260E03C
:100FB000892B11F4219661E085E30E943F0460E0F3
:100FC00080E00E94200781E492E00E94AC07CE01FD
:100FD000DF91CF910C94830760E083E30E943F048C
:100FE000D0E0C0E0D4CF2091E3033091E403DC01F2
:100FF00014964D915C91159724173507D9F4E0911B
:10100000DF03F091E0036D917C913097D1F0611591
:10101000710599F4232BC1F0808190E008C0232B47
:1010200099F0FB01808190E091958195910921E0F3
:10103000892B09F020E0822F0895CF010E94CA1168
:10104000F6CF6115710559F721E0F5CFCF93DF9306
:10105000EC0188819981009711F00E945710198244
:1010600018821D821C821B821A82DF91CF91089503
:10107000FC0180819181009711F00C945710089524
:101080000F931F93CF93DF93EC0188819981009791
:1010900059F02A813B812617370730F081E0DF9134
:1010A000CF911F910F9108958B016F5F7F4F0E9429
:1010B000E010009759F0998388831B830A832C8161
:1010C0003D81232B59F7FC011082E8CF80E0E7CF68
:1010D000EF92FF920F931F93CF93DF93EC017B016D
:1010E0008A01BA010E94400881110BC0CE010E9402
:1010F0002608CE01DF91CF911F910F91FF90EF90C5
:1011000008951D830C83B701888199810E94D311B2
:10111000F0CF50E040E067E472E08FED93E00C9494
:1011200068081F920F920FB60F9211240BB60F9200
:101130002F933F934F935F936F937F938F939F93DF
:10114000AF93BF93EF93FF9381EB92E00E94EC0289
:10115000FF91EF91BF91AF919F918F917F916F918F
:101160005F914F913F912F910F900BBE0F900FBE4B
:101170000F901F9018951F920F920FB60F92112487
:101180000BB60F922F938F939F93EF93FF93E09162
:10119000C102F091C2028081E091C702F091C802C1
:1011A00082FD1DC090818091CA028F5F8F73209154
:1011B000CB02821741F0E091CA02F0E0EF54FD4FFC
:1011C000958F8093CA02FF91EF919F918F912F91FC
:1011D0000F900BBE0F900FBE0F901F90189580813F
:1011E000F2CF1F920F920FB60F9211242F933F93BD
:1011F0008F939F93AF93BF938091AD029091AE0276
:10120000A091AF02B091B0023091960223E0230F7B
:101210002D3758F50196A11DB11D2093960280939C
:10122000AD029093AE02A093AF02B093B002809152
:10123000970290919802A0919902B0919A0201961A
:10124000A11DB11D8093970290939802A0939902DB
:10125000B0939A02BF91AF919F918F913F912F913F
:101260000F900FBE0F901F90189526E8230F02963F
:10127000A11DB11DD2CF1F920F920FB60F92112454
:101280000BB60F922F933F934F935F936F937F9380
:101290008F939F93AF93BF93EF93FF9348E251E0F7
:1012A00064E271E090E080E00E940805FF91EF9118
:1012B000BF91AF919F918F917F916F915F914F916E
:1012C0003F912F910F900BBE0F900FBE0F901F906C
:1012D00018951F920F920FB60F9211240BB60F9212
:1012E0002F933F934F935F936F937F938F939F932E
:1012F000AF93BF93EF93FF9348EA50E064EA70E046
:1013000083E090E00E940805FF91EF91BF91AF91BB
:101310009F918F917F916F915F914F913F912F910D
:101320000F900BBE0F900FBE0F901F9018951F923D
:101330000F920FB60F9211240BB60F922F933F937B
:101340004F935F936F937F938F939F93AF93BF93CD
:10135000EF93FF9348E950E064E970E082E090E0A9
:101360000E940805FF91EF91BF91AF919F918F91DE
:101370007F916F915F914F913F912F910F900BBE95
:101380000F900FBE0F901F9018951F920F920FB6DF
:101390000F9211240BB60F922F933F934F935F93AD
:1013A0006F937F938F939F93AF93BF93EF93FF932D
:1013B00048E850E064E870E081E090E00E940805B1
:1013C000FF91EF91BF91AF919F918F917F916F911D
:1013D0005F914F913F912F910F900BBE0F900FBED9
:1013E0000F901F901895FC011182108213821282B7
:1013F00015821482FB0101900020E9F73197AF01BB
:10140000461B570B0C946808CF931092B4021092AD
:10141000B30288EE93E0A0E0B0E08093B502909331
:10142000B602A093B702B093B8028AE092E090931C
:10143000B2028093B10285EC90E09093BE0280935B
:10144000BD0284EC90E09093C0028093BF0280ECD8
:1014500090E09093C2028093C10281EC90E090935F
:10146000C4028093C30282EC90E09093C602809302
:10147000C50286EC90E09093C8028093C702109258
:10148000CA021092CB021092CC021092CD0210929E
:101490000E0410921204109211041092130488E2A8
:1014A00092E090930D0480930C04E8E2F4E0108243
:1014B000148213821582369684E0E436F807B9F771
:1014C00081E392E090936F0480936E048EE292E049
:1014D000909371048093700484E08093720483E09D
:1014E0008093730485E392E090936D0480936C0481
:1014F0008AE090E0909375048093740484EF91E007
:10150000909377048093760410927A041092790471
:10151000109268041092690410926A0410926B048D
:10152000109278041092F7031092F6038CE192E087
:101530009093F5038093F4038DE08093F803CFEF4D
:10154000C093F9038CE08093FA0388E08093FB0357
:1015500089E08093FC038AE08093FD038BE0809315
:10156000FE031092FF0310920004109201041092E7
:1015700002041092030481E00E947F068091DE0342
:10158000803328F591E0980F9093DE038093F10368
:1015900090E0FC01EE0FFF1FE80FF91FE25BFC4F2C
:1015A00088EB9BE09283818368E472E08BEE93E0AA
:1015B0000E94F3096AE472E085EE93E00E94F30969
:1015C00067E472E08FED93E0CF910C94F309C09340
:1015D000F103EACFCF93DF9300D000D01F921F9288
:1015E000CDB7DEB7789484B5826084BD84B5816060
:1015F00084BD85B5826085BD85B5816085BD8091DE
:101600006E00816080936E00109281008091810055
:10161000826080938100809181008160809381004D
:10162000809180008160809380008091B10084600F
:101630008093B1008091B00081608093B000809170
:1016400091008260809391008091910081608093ED
:101650009100809190008160809390008091A10022
:1016600082608093A1008091A10081608093A1009D
:101670008091A00081608093A00080912101826010
:1016800080932101809121018160809321018091CB
:10169000200181608093200180917A008460809392
:1016A0007A0080917A00826080937A0080917A003B
:1016B000816080937A0080917A00806880937A00BC
:1016C0001092C100E091C102F091C20282E08083D9
:1016D000E091BD02F091BE021082E091BF02F09154
:1016E000C0028FEC80831092C902E091C502F09194
:1016F000C60286E08083E091C302F091C40280813B
:1017000080618083E091C302F091C402808188608F
:101710008083E091C302F091C4028081806880835D
:10172000E091C302F091C40280818F7D808380911B
:10173000F103803308F052C061E082E00E9471043E
:101740008091F103282F30E0F901EE0FFF1FE20F27
:10175000F31FE25BFC4F9081907C9260908310922B
:10176000F2031092F3032CE0622F0E94A70F829FD6
:10177000B001112430E020E0AB01420F531FFA0109
:10178000EE0FFF1FE40FF51FE25BFC4F908196FD0B
:1017900017C02F5F3F4F2C30310571F7813009F0B2
:1017A0007EC01092800082E08093810010928500BC
:1017B00010928400B19A80916F00826080936F00D4
:1017C000E091F1038E2F90E0FC01EE0FFF1FE80F78
:1017D000F91FE25BFC4F8081806480830E94C60514
:1017E00061E083E30E94710461E084E30E9471047C
:1017F00061E085E30E94710484E00E947F0660E05E
:1018000080E00E94200761E083E30E943F0461E0E2
:1018100084E30E943F0461E085E30E943F04882442
:101820008394912C412C512C320143940E94B9078E
:1018300021E0209378048FB7F8944091AD02509145
:10184000AE026091AF027091B0028FBF80916804C8
:1018500090916904A0916A04B0916B04481B590BE4
:101860006A0B7B0B8091740490917504B0E0A0E04A
:1018700084179507A607B70708F0C4C110E0809148
:1018800072041817C0F5E0916E04F0916F04E10F37
:10189000F11D62E080810E9471041F5FF0CF8230F1
:1018A00061F4109290008093910010929500109234
:1018B000940088BB8093710083CF833069F41092C9
:1018C000A00082E08093A1001092A5001092A400D5
:1018D00089BB8093720074CF811172CF1092200166
:1018E00082E08093210110922501109224018ABB8D
:1018F0008093730065CF312C80917304381608F003
:1019000061C0E32CF12CE0917004F0917104EE0DB4
:10191000FF1D61E080810E947104E0917004F091EC
:101920007104EE0DFF1D60E080810E943F04D30131
:10193000C201032C04C0880F991FAA1FBB1F0A9461
:10194000D2F75C016C01C094D094212C8091720478
:10195000281608F5022D10E0E0916E04F0916F0456
:10196000E00FF11F80810E9413040C5F1F4F000FD6
:10197000111FF801E45FFB4F892B41F480819181B5
:101980008A299B29918380832394E0CF8081918150
:101990008C219D21F7CFE0917004F0917104EE0D40
:1019A000FF1D61E080810E943F048091700490914E
:1019B0007104E80EF91E60E0F70180810E94710455
:1019C00033949ACF9CE0E92E94E0F92E8701F80138
:1019D000878D90A1892B31F4148E8FEF9FEF968F16
:1019E000858F11A20A5F1F4FE8E4F4E0E017F107CA
:1019F00071F7D12C80917204D81608F053C0C12C15
:101A0000AD2CB12CAA0CBB1CC5018C5E9B4F5C019C
:101A100020917304C21608F043C0F5016081718102
:101A20000C2C02C0769567950A94E2F7D29E90013D
:101A300011242C0D311DECE0F4E080E0458D568D35
:101A40002417350709F412C28F5F36968A30B1F732
:101A500060FF24C0ECE0F4E090E080E0448D4111B0
:101A600018C0E0916C04F0916D04E20FF31F408107
:101A700056E0589FF001599FF00D1124E45FFB4F91
:101A8000448F368F258F10A2178E61E00E940802C6
:101A900005C0019636968A30910501F7C394B8CFF8
:101AA000D394A8CF80E0F70191A19111892FF6E09E
:101AB000EF0EF11CE016F106B1F79FB7F8944091D4
:101AC000AD025091AE026091AF027091B0029FBF23
:101AD000409368045093690460936A0470936B04A4
:101AE000882309F48FC080912D04882309F48AC0CB
:101AF00000912B0410912C040130110509F082C0D3
:101B0000F0902804F11081C08091AB029091AC025A
:101B1000029799F58091A5029091A602019761F430
:101B20008091A3029091A402019731F48091A102C7
:101B30009091A202019709F100919F021091A002D9
:101B400001151105D1F49092A00280929F02C80164
:101B50000E9477016AE070E080E090E00E94D60485
:101B6000065F1F4F0E3B110591F768EE73E080E0B2
:101B700090E00E94D6040E94C60586E30E941304EA
:101B80007C019093A6028093A50287E30E94130430
:101B90008C019093A4028093A30288E30E94130413
:101BA0009093A2028093A102EA94EF2851F420912D
:101BB000A7023091A8022F5F3F4F3093A8022093D5
:101BC000A7020130110551F420919D0230919E022F
:101BD0002F5F3F4F30939E0220939D02019749F45F
:101BE00080919B0290919C02019690939C0280931D
:101BF0009B0262E370E080E090E00E94D6040E94C5
:101C00007B0314CE109278047FCF20E3F21272C0CF
:101C10000E9477060E94B90761E080E00E942007D9
:101C20008091AB029091AC02892BD9F48BEE93E0BA
:101C30000E94F307882309F44FC01093AC0200936D
:101C4000AB028CE492E00E94AC0764E670E080E0B6
:101C500090E00E94D6040E9477060E94B9070E9475
:101C600089088091AB029091AC02019709F04CCFAA
:101C70008091E3039091E403892B09F47ECFE091F6
:101C8000DF03F091E0038081882309F476CF85EEAD
:101C900093E00E94F307882311F182E090E0909393
:101CA000AC028093AB020E9477060E94B90761E004
:101CB00080E00E94200786E692E00E94AC0764E67E
:101CC00070E080E090E00E94D6040E9477060E94B7
:101CD000B9070E94890818CF8AE592E0B4CF0E9424
:101CE00077060E94B90761E080E00E94200786E73E
:101CF00092E0E3CF93E2F9120FC00E94770660E012
:101D000080E00E9420070E94B9070E948908109273
:101D1000AA021092A902F8CEEAE2FE1246C00E9480
:101D2000770660E080E00E9420070E94B90780915A
:101D3000E3039091E403892B29F10091DF031091D3
:101D4000E00368E472E0C8010E94CA11892B99F48B
:101D50000E94770660E080E00E9420070E94B90799
:101D600061E080E00E9420078091A7029091A80284
:101D70000E948307C9CE6AE472E0C8010E94CA11BA
:101D8000892B31F30E9489080E94770660E080E089
:101D90000E9420070E94B90761E080E00E942007AE
:101DA00084E892E00E94AC07AFCE1A8219821C82AE
:101DB0001B821E821D826091DF037091E00361151A
:101DC000710541F04091E3035091E403CE01019687
:101DD0000E946808FF8218860D811E810F5F1F4FC9
:101DE000B801CE0101960E94400881112CC0CE019D
:101DF00001960E94260869817A816115710589F131
:101E00004D815E818FED93E00E946808CE010196BE
:101E10000E9438080091A9021091AA020F5F1F4F7B
:101E20001093AA020093A90261E0802F0E9420076C
:101E3000003111050CF068CE41E06F2D84EF93E086
:101E40000E941E0661CE29813A818D819E81BE014C
:101E5000695F7F4F820F931F0E94D3111E830D83F2
:101E6000CACF8FED93E00E942608D0CF61700ECECE
:101E70008FED93E00E94380885EE93E00E943808C9
:101E80008BEE93E00C943808052E97FB1EF400941B
:101E90000E945B0F57FD07D00E94760F07FC03D00E
:101EA0004EF40C945B0F50954095309521953F4F23
:101EB0004F4F5F4F089590958095709561957F4F36
:101EC0008F4F9F4F08950E94980FA59F900DB49F2C
:101ED000900DA49F800D911D11240895B7FF0C94BF
:101EE000630F0E94630F821B930B0895A1E21A2EC9
:101EF000AA1BBB1BFD010DC0AA1FBB1FEE1FFF1FAE
:101F0000A217B307E407F50720F0A21BB30BE40BFD
:101F1000F50B661F771F881F991F1A9469F7609544
:101F20007095809590959B01AC01BD01CF010895FE
:101F3000A29FB001B39FC001A39F700D811D11240A
:101F4000911DB29F700D811D1124911D0895991B43
:101F500079E004C0991F961708F0961B881F7A95A0
:101F6000C9F780950895EE0FFF1F881F8BBF07905C
:101F7000F691E02D19940F931F93CF93DF93823046
:101F8000910510F482E090E0E0917D04F0917E04F0
:101F900030E020E0B0E0A0E0309799F42115310561
:101FA00009F44AC0281B390B24303105D8F58A8141
:101FB0009B816115710589F1FB0193838283FE0189
:101FC00011C0408151810281138148175907E0F007
:101FD0004817590799F4109761F012960C931297CD
:101FE00013961C933296CF01DF91CF911F910F91E1
:101FF000089500937D0410937E04F4CF21153105DC
:1020000051F04217530738F0A901DB019A01BD01D5
:10201000DF01F801C1CFEF01F9CF90937E048093E7
:102020007D04CDCFFE01E20FF31F819391932250E7
:10203000310939832883D7CF20917B0430917C04E8
:10204000232B41F4209102023091030230937C044F
:1020500020937B042091000230910102211531056B
:1020600041F42DB73EB74091040250910502241B64
:10207000350BE0917B04F0917C04E217F307A0F4A8
:102080002E1B3F0B2817390778F0AC014E5F5F4FCE
:102090002417350748F04E0F5F1F50937C04409380
:1020A0007B04819391939FCFF0E0E0E09CCFCF93AE
:1020B000DF930097E9F0FC01329713821282A0911E
:1020C0007D04B0917E04ED0130E020E01097A1F492
:1020D00020813181820F931F20917B0430917C04F9
:1020E0002817390709F061C0F0937C04E0937B0462
:1020F000DF91CF910895EA01CE17DF07E8F54A8115
:102100005B819E0141155105B1F7E901FB83EA832B
:1021100049915991C40FD51FEC17FD0761F48081D7
:1021200091810296840F951FE901998388838281AA
:1021300093819B838A83F0E0E0E012968D919C91DD
:1021400013970097B9F52D913C911197CD01029607
:10215000820F931F20917B0430917C04281739074C
:1021600039F6309751F510927E0410927D04B093A9
:102170007C04A0937B04BCCFD383C2834081518174
:10218000840F951FC817D90761F44E5F5F4F888190
:102190009981480F591F518340838A819B81938382
:1021A00082832115310509F0B0CFF0937E04E093CE
:1021B0007D049ECFFD01DC01C0CF13821282D7CFF8
:1021C0004F925F926F927F928F929F92AF92BF9247
:1021D000CF92DF92EF92FF920F931F93CF93DF93F3
:1021E0008C01009799F4CB01DF91CF911F910F9152
:1021F000FF90EF90DF90CF90BF90AF909F908F9027
:102200007F906F905F904F900C94BB0FFC01E60F96
:10221000F71F9C0122503109E217F30708F4AEC002
:10222000D901CD91DC911197C617D70720F1C530A0
:10223000D10578F0CE0104978617970750F0C61B9A
:10224000D70B2297C193D1936D937C93CF010E94BA
:102250005710C801DF91CF911F910F91FF90EF9020
:10226000DF90CF90BF90AF909F908F907F906F90B6
:102270005F904F9008955B01AC1ABD0A4C018C0E23
:102280009D1EA0917D04B0917E04512C412CF12C17
:10229000E12C109731F580917B0490917C04881596
:1022A000990509F05CC04616570608F058C08091A1
:1022B000000290910102009741F48DB79EB74091C2
:1022C000040250910502841B950BE817F90708F0EA
:1022D00055C0F0937C04E0937B04F9017183608323
:1022E000B8CF8D919C91119712966C90129713967E
:1022F0007C901397A815B90559F56C0142E0C40EFE
:10230000D11CCA14DB0420F1AC014A195B09DA01C3
:102310001296159780F06282738251834083D901AF
:102320006D937C93E114F10471F0D7011396FC9343
:10233000EE9312978ECF22968C0F9D1FF9019183F9
:102340008083F301EFCFF0937E04E0937D0481CF8F
:102350004816590608F42C017D01D3019ACFCB0110
:102360000E94BB0F7C01009749F0AE01B8010E94AA
:10237000C111C8010E94571087016BCF10E000E027
:1023800068CFFB01DC0102C001900D92415050402A
:10239000D8F70895FB01DC018D910190801901109F
:1023A000D9F3990B0895FB01DC0101900D920020F7
:1023B000E1F7089511E0C3E4D1E000E006C0802F0A
:1023C000FE010E94B30F2196011DC434D10780E0A5
:0823D0000807A9F7F894FFCFFC
:1023D80000007F048000000000000E037802A502C0
:1023E8005B03D602B402C802000000002F0778027F
:1023F800C305C20500000000AD046D043C041A1BAF
:102408001C161718193132333435363738392A3013
:1024180023467265653A200031003200494420693C
:102428007320636F72726563740049442069732076
:1024380077726F6E67005061737320697320636FE2
:1024480072726563740050617373206973207772C8
:102458006F6E670077726F6E67206E756D6265725A
:02246800000072
:00000001FF
