:100000000C9417010C9438010C9438010C943801AD
:100010000C9438010C9438010C9438010C9438017C
:100020000C9438010C9438010C9438010C9438016C
:100030000C9438010C9438010C9438010C9438015C
:100040000C9438010C9438010C9438010C9438014C
:100050000C9438010C9438010C9438010C94C201B2
:100060000C9438010C9438010C9438010C9438012C
:100070000C9438010C9438010C9438010C9438011C
:100080000C9438010C9438010C9438010C9438010C
:100090000C9438010C9438010C9438010C943801FC
:1000A0000C9438010C9438010C9438010C943801EC
:1000B0000C9438010C9438010C9438010C943801DC
:1000C0000C9438010C9438010C9438010C943801CC
:1000D0000C9438010C9438010C9438010C943801BC
:1000E0000C9438010C948C010C94B2010C94850191
:1000F0000C94AA010C94B8010C94AE010C946B0101
:100100000C94A4010C94BC010C949C010C94660109
:100110000C9489010C94A0010C9481010C947D0134
:100120000C9496010C9492010000210024002700F9
:100130002A002D00300033000101000004010701F6
:100140000A0100002200250028002B002E003100AB
:10015000340002010000050108010B010505050539
:10016000070508080808020202020A0A080804042F
:10017000040401010101010101010303030303035D
:100180000303040707070C0C0C0C0C0C0C0C0202EC
:10019000020206060606060606060B0B0B0B0B0BE9
:1001A0000B0B010210202008081020401020408076
:1001B000020102010804020101020408102040802B
:1001C00080402010080402018004020180402010B9
:1001D0000804020108040201010204081020408002
:1001E000010204081020408000000A0B02090C0DD7
:1001F0000E080703040100000000000000000000DA
:1002000000000000000000000000000000000000EE
:1002100000000000121110000000000000000000AB
:100220000000000000000000000000000000112499
:100230001FBECFEFD1E2DEBFCDBF00E00CBF12E0AA
:10024000A0E0B2E0E6ECF5E000E00BBF02C00790F2
:100250000D92A230B107D9F722E0A2E0B2E001C0CE
:100260001D92AC30B207E1F70E940C020C94E1023F
:100270000C940000382FEEEFF1E08491E8EBF1E010
:100280002491E2E7F1E09491992309F435C08823A1
:1002900011F181508231F8F4E82FF0E08827EC5A10
:1002A000FE4F8F4F0C94D9028501890166017D01B3
:1002B00081016B018C01920196019C01A001A401B6
:1002C000AA01AE016B01B201B801BC0180918000AE
:1002D0008F7780938000E92FF0E0EE0FFF1FEE5B39
:1002E000FE4FA591B4918FB7F894EC91311148C0AD
:1002F00020952E232C938FBF0895809180008F7DB1
:10030000E8CF80918000877FE4CF84B58F7784BD6C
:10031000E2CF84B58F7DFBCF8091B0008F77809343
:10032000B000D9CF8091B0008F7DF9CF809190003F
:100330008F7780939000CFCF809190008F7DF9CF01
:1003400080919000877FF5CF8091A0008F77809378
:10035000A000C1CF8091A0008F7DF9CF8091A00037
:10036000877FF5CF809120018F7780932001B3CFD5
:10037000809120018F7DF9CF80912001877FF5CF7B
:100380002E2BB8CF1F920F920FB60F9211242F93DE
:100390003F938F939F93AF93BF9380910802909167
:1003A0000902A0910A02B0910B023091070223E0EA
:1003B000230F2D3758F50196A11DB11D209307027B
:1003C0008093080290930902A0930A02B0930B0253
:1003D0008091030290910402A0910502B09106025F
:1003E0000196A11DB11D8093030290930402A09376
:1003F0000502B0930602BF91AF919F918F913F91FB
:100400002F910F900FBE0F901F90189526E8230F85
:100410000296A11DB11DD2CF789484B5826084BDAF
:1004200084B5816084BD85B5826085BD85B58160F8
:1004300085BD80916E00816080936E001092810076
:100440008091810082608093810080918100816031
:1004500080938100809180008160809380008091F2
:10046000B10084608093B1008091B000816080937E
:10047000B000809191008260809391008091910002
:1004800081608093910080919000816080939000C2
:100490008091A10082608093A1008091A100816081
:1004A0008093A1008091A00081608093A000809142
:1004B00021018260809321018091210181608093DC
:1004C00021018091200181608093200180917A0038
:1004D000846080937A0080917A00826080937A00B1
:1004E00080917A00816080937A0080917A008068A0
:1004F00080937A001092C100E8EBF1E02491E2E7EA
:10050000F1E08491882399F090E0880F991FFC0115
:10051000E85DFE4FA591B491FC01EE5BFE4F859125
:1005200094918FB7F894EC91E22BEC938FBF00E499
:10053000FF24F394C0E0D0E011E080917B00877F3E
:1005400080937B0000937C0080917A00806480938C
:100550007A0080917A0086FDFCCF9091780080919E
:1005600079008927982789278A3F9105CCF48091C3
:1005700000029091020291110EC0882339F010936D
:1005800002021093000281E00E943A012097A9F232
:100590000E940000D2CF8111F9CF10920202F4CF55
:1005A0008C3291409CF3809102028F25809300024F
:1005B000EDCFEE0FFF1F881F8BBF0790F691E02D48
:0605C0001994F894FFCF2E
:0205C600010032
:00000001FF
