:100000000C9427010C9458010C9458010C9458013D
:100010000C9458010C9458010C9458010C945801FC
:100020000C9458010C9458010C9458010C945801EC
:100030000C9458010C9458010C9458010C945801DC
:100040000C9458010C940E050C9458010C94580112
:100050000C9458010C9458010C9458010C943A04D7
:100060000C9458010C9458010C9458010C945801AC
:100070000C9458010C9458010C9458010C9458019C
:100080000C94E0040C9458010C9458010C94580101
:100090000C9458010C9458010C9458010C9458017C
:1000A0000C9458010C9458010C94B2040C9458010F
:1000B0000C9458010C9458010C9458010C9484042D
:1000C0000C9458010C9458010C9458010C9458014C
:1000D0000C9458010C9458010C9458010C9458013C
:1000E0000C9458010C94BC060C94A5010C94BD0111
:1000F0000C9486010C94B9010C94B8010C94AB01DA
:100100000C948D010C94A1010C947E010C94780147
:100110000C9497010C949D010C9493010C94820112
:100120000C94B3010C948A010C94AF0100002100DF
:10013000240027002A002D003000330001010000B8
:10014000040107010A0100002200250028002B00FD
:100150002E003100340002010000050108010B01EE
:10016000000020002300260029002C002F00320070
:100170000001000003010601090105050505070549
:1001800008080808020202020A0A08080404040413
:10019000010101010101010103030303030303033F
:1001A000040707070C0C0C0C0C0C0C0C02020202CE
:1001B00006060606060606060B0B0B0B0B0B0B0BB7
:1001C0000102102020080810204010204080020169
:1001D000020108040201010204081020408080404E
:1001E000201008040201800402018040201008044D
:1001F00002010804020101020408102040800102EB
:1002000004081020408000000A0B02090C0D0E08A3
:1002100007030401000000000000000000000000CF
:1002200000000000000000000000000000000000CE
:10023000000012111000000000000000000000008B
:10024000000000000000000000000000BC061124B7
:100250001FBECFEFD1E2DEBFCDBF00E00CBF12E08A
:10026000A0E0B2E0E4EDFEE000E00BBF02C00790CA
:100270000D92A030B107D9F722E0A0E0B2E001C0B2
:100280001D92AA3AB207E1F711E0C7E2D1E000E01F
:1002900006C021970109802FFE010E946007C63227
:1002A000D10780E00807A9F70E943C050C94680775
:1002B0000C9400008150823108F05AC0E82FF0E021
:1002C0008827EA59FE4F8F4F0C94600786018A01F8
:1002D00078017E018201B8018D01930197019D0192
:1002E000A101A501AB01AF01B801B301B901BD0185
:1002F000809180008F7780938000089580918000A6
:100300008F7DF9CF80918000877FF5CF84B58F777F
:1003100084BD089584B58F7DFBCF8091B0008F7729
:100320008093B00008958091B0008F7DF9CF8091C7
:1003300090008F77809390000895809190008F7D3A
:10034000F9CF80919000877FF5CF8091A0008F77C3
:100350008093A00008958091A0008F7DF9CF8091B7
:10036000A000877FF5CF809120018F7780932001B7
:100370000895809120018F7DF9CF80912001877FA2
:10038000F5CFCF93DF93282F30E0F901EA5FFD4FDF
:100390008491F901E054FE4FD491F901E658FE4FE3
:1003A000C491CC23A1F081110E945A01EC2FF0E0FE
:1003B000EE0FFF1FE05AFE4FA591B491EC91ED2393
:1003C00081E090E009F480E0DF91CF91089580E032
:1003D00090E0FACF1F93CF93DF93282F30E0F901FD
:1003E000EA5FFD4F8491F901E054FE4FD491F90189
:1003F000E658FE4FC491CC23A9F0162F81110E941C
:100400005A01EC2FF0E0EE0FFF1FEA5BFE4FA591C3
:10041000B4918FB7F894EC91111108C0D095DE23F8
:10042000DC938FBFDF91CF911F910895DE2BF8CF22
:10043000CF93DF9390E0FC01E054FE4F2491865867
:100440009E4FFC0184918823D1F090E0880F991F82
:10045000FC01E45DFE4FA591B491FC01EA5BFE4F07
:10046000C591D49161110EC09FB7F8948C91E22F81
:10047000E0958E238C932881E223E8839FBFDF9150
:10048000CF9108958FB7F894EC91E22BEC938FBF46
:10049000F6CF3FB7F89480910A0290910B02A09199
:1004A0000C02B0910D0226B5A89B05C02F3F19F094
:1004B0000196A11DB11D3FBFBA2FA92F982F8827E4
:1004C000BC01CD01620F711D811D911D42E0660FBF
:1004D000771F881F991F4A95D1F708958F929F9291
:1004E000AF92BF92CF92DF92EF92FF924B015C01ED
:1004F0000E9449026B017C010E9449026C197D092E
:100500008E099F09683E734081059105A8F321E09B
:10051000821A9108A108B10888EEC80E83E0D81E9F
:10052000E11CF11C81149104A104B10429F7FF908E
:10053000EF90DF90CF90BF90AF909F908F900895F5
:100540008F929F92AF92BF92FF920F931F93CF9380
:10055000DF93FC01F0808FE28F1508F453C0828195
:1005600008E512E0081B110987FD1395000F111F04
:10057000000F111F8181C8E8D0E0C81BD10987FD99
:10058000D395CC0FDD1FCC0FDD1F4E010D2E000CBF
:10059000AA08BB08DB01653B710514F0A4EBB0E0D1
:1005A000B7FF02C0B0E0A0E09801012E000C440BA0
:1005B000550B281939094A095B090E941B0724EBCE
:1005C00030E040E050E00E94F106820E931EA41E2F
:1005D000B51E8C169D062CF0E801801691060CF4D1
:1005E000E4012297CC0FDD1F2FB7F8948F2D90E0F8
:1005F000FC01EE0FFF1FE80FF91FE25FFD4FD283F2
:10060000C1832FBFDF91CF911F910F91FF90BF90BA
:10061000AF909F908F9008958130910581F4109252
:10062000800082E080938100109285001092840007
:10063000B19A80916F00826080936F00089582303C
:10064000910569F41092900082E0809391001092DD
:1006500095001092940088BB8093710008958330B8
:10066000910569F41092A00082E08093A10010929D
:10067000A5001092A40089BB809372000895892B75
:1006800061F41092200182E08093210110922501F3
:10069000109224018ABB809373000895AF92BF9299
:1006A000CF92DF92EF92FF920F931F93CF93DF933E
:1006B0006B017A01EC01CF5FDD4F28813CE0389F70
:1006C0008001399F100D1124A0900002B12C27FF4A
:1006D0001FC0FB011182108288818F5F888388810F
:1006E0009801280F311D87FD3A95F6012A153B0523
:1006F0001CF488818C30C4F180819181049680340F
:100700009C4908F473C0F60180819181049670C001
:1007100088819801280F311D87FD3A952A153B05E0
:10072000DCF68881A801480F511D87FD5A95FA0112
:10073000EE0FFF1FE40FF51FE25FFD4F808186FF84
:10074000CBCF8881F801E80FF11D87FDFA95CF0125
:10075000EE0FFF1FE80FF91FE25FFD4F808160E0A1
:100760008F730E94EA01B8CF808191812881A8010E
:10077000420F511D27FD5A959A01FA01EE0FFF1FF6
:10078000E20FF31FE25FFD4F21813281820F931F41
:10079000F7019183808388819801280F311D87FD9F
:1007A0003A95F901EE0FFF1FE20FF31FE25FFD4FD5
:1007B000808186FF22C08881080F111D87FD1A9550
:1007C000F801EE0FFF1FE00FF11FE25FFD4F808188
:1007D00061E08F73DF91CF911F910F91FF90EF90A8
:1007E000DF90CF90BF90AF900C94EA0180E49CE939
:1007F000F701918380838FEF8883DF91CF911F91E1
:100800000F91FF90EF90DF90CF90BF90AF90089541
:10081000CF93DF931092A5021092A402C4EBD0E014
:10082000BE0181EA92E00E94A0026AE070E080E0EE
:1008300090E00E946E022A97C63F8FEFD80781F79B
:10084000DF91CF910895CF93DF93C4EBD0E0BE0149
:100850008EE992E00E94A0026AE070E080E090E001
:100860000E946E022A97C63F8FEFD80781F7DF916B
:10087000CF9108951F920F920FB60F9211242F93CC
:100880003F938F939F93AF93BF9380910602909174
:100890000702A0910802B09109023091050223E0FD
:1008A000230F2D3758F50196A11DB11D2093050288
:1008B0008093060290930702A0930802B093090266
:1008C00080910A0290910B02A0910C02B0910D024E
:1008D0000196A11DB11D80930A0290930B02A09373
:1008E0000C02B0930D02BF91AF919F918F913F91F8
:1008F0002F910F900FBE0F901F90189526E8230F91
:100900000296A11DB11DD2CF1F920F920FB60F926A
:1009100011240BB60F922F933F934F935F936F93D6
:100920007F938F939F93AF93BF93EF93FF9348E28F
:1009300051E064E271E090E080E00E944E03FF919C
:10094000EF91BF91AF919F918F917F916F915F9147
:100950004F913F912F910F900BBE0F900FBE0F90B4
:100960001F9018951F920F920FB60F9211240BB67D
:100970000F922F933F934F935F936F937F938F9338
:100980009F93AF93BF93EF93FF9348EA50E064EADD
:1009900070E083E090E00E944E03FF91EF91BF91E1
:1009A000AF919F918F917F916F915F914F913F9107
:1009B0002F910F900BBE0F900FBE0F901F901895A8
:1009C0001F920F920FB60F9211240BB60F922F9316
:1009D0003F934F935F936F937F938F939F93AF93C7
:1009E000BF93EF93FF9348E950E064E970E082E041
:1009F00090E00E944E03FF91EF91BF91AF919F91C4
:100A00008F917F916F915F914F913F912F910F90B7
:100A10000BBE0F900FBE0F901F9018951F920F9254
:100A20000FB60F9211240BB60F922F933F934F9353
:100A30005F936F937F938F939F93AF93BF93EF9346
:100A4000FF9348E850E064E870E081E090E00E94A5
:100A50004E03FF91EF91BF91AF919F918F917F9145
:100A60006F915F914F913F912F910F900BBE0F901F
:100A70000FBE0F901F901895789484B5826084BD46
:100A800084B5816084BD85B5826085BD85B5816092
:100A900085BD80916E00816080936E001092810010
:100AA00080918100826080938100809181008160CB
:100AB000809381008091800081608093800080918C
:100AC000B10084608093B1008091B0008160809318
:100AD000B00080919100826080939100809191009C
:100AE000816080939100809190008160809390005C
:100AF0008091A10082608093A1008091A10081601B
:100B00008093A1008091A00081608093A0008091DB
:100B10002101826080932101809121018160809375
:100B200021018091200181608093200180917A00D1
:100B3000846080937A0080917A00826080937A004A
:100B400080917A00816080937A0080917A00806839
:100B500080937A001092C10080919E02803308F049
:100B600043C061E08DE00E94180280919E02282F10
:100B700030E0F901EE0FFF1FE20FF31FE25FFD4FC0
:100B80009081907C9D60908310929F021092A002B1
:100B90002CE0622F0E94540790E0829FB001112444
:100BA00030E020E0AB01420F531FFA01EE0FFF1FB0
:100BB000E40FF51FE25FFD4F408146FD07C02F5F48
:100BC0003F4F2C30310571F70E940C03E0919E02DB
:100BD0008E2F90E0FC01EE0FFF1FE80FF91FE25F80
:100BE000FD4F8081806480838091A102803308F072
:100BF00043C061E08CE00E9418028091A102282F7E
:100C000030E0F901EE0FFF1FE20FF31FE25FFD4F2F
:100C10009081907C9C6090831092A2021092A3021B
:100C20002CE0622F0E94540790E0829FB0011124B3
:100C300030E020E0AB01420F531FFA01EE0FFF1F1F
:100C4000E40FF51FE25FFD4F408146FD07C02F5FB7
:100C50003F4F2C30310571F70E940C03E091A10247
:100C60008E2F90E0FC01EE0FFF1FE80FF91FE25FEF
:100C7000FD4F80818064808360E08AE00E941802DA
:100C800060E089E00E94180261E08BE00E94180297
:100C90000E9423040E94080480E0E82E80E0F82EE1
:100CA0008AE00E94C101EC019093A9028093A802FE
:100CB00089E00E94C1018C019093A7028093A60253
:100CC000219709F5D0E0C0E0BE018EE992E00E94D4
:100CD000A0026AE070E080E090E00E946E022A9636
:100CE000CE3BD10589F761E08BE00E94EA0168EE16
:100CF00073E080E090E00E946E0260E08BE00E9472
:100D0000EA010E9423040130110551F5C091A402AB
:100D1000D091A5022097B9F41093A5020093A402E4
:100D2000BE0181EA92E00E94A0026AE070E080E0E9
:100D300090E00E946E022A96CE3BD10589F761E0D1
:100D40008BE00E94EA0162E370E080E090E00E94A4
:100D50006E02E114F10409F4A3CF0E940000A0CFB9
:100D6000012B89F78091A4029091A502019759F770
:100D70000E94080460E0E4CF80910002803348F5CF
:100D800091E0980F9093000280939E0290E0FC0106
:100D9000EE0FFF1FE80FF91FE25FFD4F88EB9BE0AE
:100DA00092838183809100028033B8F491E0980FA0
:100DB000909300028093A10290E0FC01EE0FFF1FD0
:100DC000E80FF91FE25FFD4F88EB9BE09283818380
:100DD00008958FEF80939E02E5CF8FEF8093A1025D
:100DE0000895052E97FB1EF400940E94080757FDF6
:100DF00007D00E94230707FC03D04EF40C94080789
:100E000050954095309521953F4F4F4F5F4F089536
:100E100090958095709561957F4F8F4F9F4F089566
:100E20000E944507A59F900DB49F900DA49F800D33
:100E3000911D11240895B7FF0C9410070E9410070C
:100E4000821B930B0895A1E21A2EAA1BBB1BFD0166
:100E50000DC0AA1FBB1FEE1FFF1FA217B307E40799
:100E6000F50720F0A21BB30BE40BF50B661F771FF1
:100E7000881F991F1A9469F76095709580959095D1
:100E80009B01AC01BD01CF010895A29FB001B39FAA
:100E9000C001A39F700D811D1124911DB29F700D83
:100EA000811D1124911D0895991B79E004C0991F9B
:100EB000961708F0961B881F7A95C9F780950895B4
:100EC000EE0FFF1F881F8BBF0790F691E02D19943E
:040ED000F894FFCFC4
:00000001FF
