:100000000C9428010C9459010C9459010C94590139
:100010000C9459010C9459010C9459010C945901F8
:100020000C9459010C9459010C9459010C945901E8
:100030000C9459010C9459010C9459010C945901D8
:100040000C9459010C9459010C9459010C945901C8
:100050000C9459010C9459010C9459010C945F03B0
:100060000C9459010C9433040C9409040C94590118
:100070000C9459010C9459010C9459010C94590198
:100080000C9459010C9459010C9459010C94590188
:100090000C94D3030C94A9030C9459010C945901AA
:1000A0000C9459010C9459010C9459010C94590168
:1000B0000C9459010C9459010C9459010C94590158
:1000C0000C9459010C9459010C9459010C94590148
:1000D0000C9459010C9459010C9459010C94590138
:1000E0000C9459010C949E010C94BD010C9458027F
:1000F0000C94C5010C948C010C94D9010C946602EB
:100100000C94D3010C9435020C94F5020C94A201CA
:100110000C9444020C9469040C94AA010C94CB0135
:100120000C94A6010C94DD010C9408020C94CF01F0
:100130000C94C1010C94B3010C94A8020C94B70167
:100140000C94AD010C9487010000210024002700CD
:100150002A002D00300033000101000004010701D6
:100160000A0100002200250028002B002E0031008B
:10017000340002010000050108010B010505050519
:10018000070508080808020202020A0A080804040F
:10019000040401010101010101010303030303033D
:1001A0000303040707070C0C0C0C0C0C0C0C0202CC
:1001B000020206060606060606060B0B0B0B0B0BC9
:1001C0000B0B010210202008081020401020408056
:1001D000020102010804020101020408102040800B
:1001E0008040201008040201800402018040201099
:1001F00008040201080402010102040810204080E2
:10020000010204081020408000000A0B02090C0DB6
:100210000E080703040100000000000000000000B9
:1002200000000000000000000000000000000000CE
:10023000000000001211100000000000000000008B
:100240000000000000000000000000000000690441
:1002500011241FBECFEFD1E2DEBFCDBF00E00CBF47
:1002600012E0A0E0B2E0E4ECFDE000E00BBF02C071
:1002700007900D92AA36B107D9F723E0AAE6B2E0BB
:1002800001C01D92A33BB207E1F711E0C8E2D1E043
:1002900000E006C021970109802FFE010E94D806C8
:1002A000C732D10780E00807A9F70E94BC040C946C
:1002B000E0060C940000382FE5E1F2E08491EFECC9
:1002C000F1E02491E9E8F1E09491992309F435C033
:1002D000882311F181508231F8F4E82FF0E088276B
:1002E000EB58FE4F8F4F0C94D806A601AA01870148
:1002F0009E01A2018C01AD01B301B701BD01C10195
:10030000C501CB01CF018C01D301D901DD01809161
:1003100080008F7780938000E92FF0E0EE0FFF1FC1
:10032000EE59FE4FA591B4918FB7F894EC9131112D
:1003300048C020952E232C938FBF08958091800074
:100340008F7DE8CF80918000877FE4CF84B58F7761
:1003500084BDE2CF84B58F7DFBCF8091B0008F77D5
:100360008093B000D9CF8091B0008F7DF9CF80917C
:1003700090008F7780939000CFCF809190008F7DF9
:10038000F9CF80919000877FF5CF8091A0008F7783
:100390008093A000C1CF8091A0008F7DF9CF809184
:1003A000A000877FF5CF809120018F778093200177
:1003B000B3CF809120018F7DF9CF80912001877F7D
:1003C000F5CF2E2BB8CF3FB7F8948091750290915E
:1003D0007602A0917702B091780226B5A89B05C05D
:1003E0002F3F19F00196A11DB11D3FBFBA2FA92FB4
:1003F000982F8827BC01CD01620F711D811D911DB1
:1004000042E0660F771F881F991F4A95D1F708951C
:10041000AF92BF92CF92DF92EF92FF920F931F9312
:10042000CF93DF936C017B018B01040F151FEB0150
:100430005E01AE18BF08C017D10759F06991D60107
:10044000ED91FC910190F081E02DC6011995892B69
:1004500079F7C501DF91CF911F910F91FF90EF9038
:10046000DF90CF90BF90AF900895FC01538D448DE5
:10047000252F30E0842F90E0821B930B541710F04F
:10048000CF96089501970895FC01918D828D98175C
:1004900061F0A28DAE0FBF2FB11D5D968C91928D34
:1004A0009F5F9F73928F90E008958FEF9FEF089565
:1004B000FC01918D828D981731F0828DE80FF11D2E
:1004C000858D90E008958FEF9FEF0895FC01918D49
:1004D000228D892F90E0805C9F4F821B91098F7342
:1004E0009927089589E792E00E94660221E0892B0E
:1004F00009F420E0822F089586E193E00E946602CD
:1005000021E0892B09F420E0822F0895FC01A48DBD
:10051000A80FB92FB11DA35ABF4F2C91848D90E025
:1005200001968F739927848FA689B7892C93A08908
:10053000B1898C91837080648C93938D848D981392
:1005400006C00288F389E02D80818F7D8083089525
:10055000EF92FF920F931F93CF93DF93EC0181E013
:10056000888F9B8D8C8D98131AC0E889F9898081BA
:1005700085FF15C09FB7F894EE89FF896083E889ED
:10058000F98980818370806480839FBF81E090E0DF
:10059000DF91CF911F910F91FF90EF900895F62E6C
:1005A0000B8D10E00F5F1F4F0F731127E02E8C8D06
:1005B0008E110CC00FB607FCFACFE889F98980814B
:1005C00085FFF5CFCE010E948602F1CFEB8DEC0FB7
:1005D000FD2FF11DE35AFF4FF0829FB7F8940B8F68
:1005E000EA89FB8980818062CFCFCF93DF93EC01D2
:1005F000888D8823B9F0AA89BB89E889F9898C910B
:1006000085FD03C0808186FD0DC00FB607FCF7CFC6
:100610008C9185FFF2CF808185FFEDCFCE010E94C6
:100620008602E9CFDF91CF91089580E090E0892B99
:1006300029F00E947C0281110E94000080E090E07D
:10064000892B29F00E94720281110E94000080E033
:1006500090E0892B49F080E090E0892B29F00E94FE
:10066000000081110E94000080E090E0892B49F099
:1006700080E090E0892B29F00E94000081110C9409
:1006800000000895FC0101900020E9F73197AF01C7
:10069000481B590BBC0189E792E00C94080282E1E7
:1006A00092E00C944203CF93DF930E944203EC014B
:1006B0000E944F038C0F9D1FDF91CF9108951F92D1
:1006C0000F920FB60F9211242F933F938F939F9306
:1006D000AF93BF938091710290917202A0917302C7
:1006E000B09174023091700223E0230F2D3758F53A
:1006F0000196A11DB11D2093700280937102909309
:100700007202A0937302B09374028091750290916B
:100710007602A0917702B09178020196A11DB11DD9
:100720008093750290937602A0937702B09378023B
:10073000BF91AF919F918F913F912F910F900FBEDD
:100740000F901F90189526E8230F0296A11DB11D4A
:10075000D2CF1F920F920FB60F9211240BB60F92A9
:100760002F933F934F935F936F937F938F939F93B9
:10077000AF93BF93EF93FF9389E792E00E948602C5
:10078000FF91EF91BF91AF919F918F917F916F9169
:100790005F914F913F912F910F900BBE0F900FBE25
:1007A0000F901F9018951F920F920FB60F92112461
:1007B0000BB60F922F938F939F93EF93FF93E0913C
:1007C0008902F0918A028081E0918F02F09190027B
:1007D00082FD1DC09081809192028F5F8F73209166
:1007E0009302821741F0E0919202F0E0E758FD4F4A
:1007F000958F80939202FF91EF919F918F912F910E
:100800000F900BBE0F900FBE0F901F901895808118
:10081000F2CF1F920F920FB60F9211240BB60F92C8
:100820002F933F934F935F936F937F938F939F93F8
:10083000AF93BF93EF93FF9386E193E00E9486020C
:10084000FF91EF91BF91AF919F918F917F916F91A8
:100850005F914F913F912F910F900BBE0F900FBE64
:100860000F901F9018951F920F920FB60F921124A0
:100870000BB60F922F938F939F93EF93FF93E0917B
:100880002603F09127038081E0912C03F0912D0342
:1008900082FD1DC0908180912F038F5F8F73209107
:1008A0003003821741F0E0912F03F0E0EA5EFC4F45
:1008B000958F80932F03FF91EF919F918F912F91AF
:1008C0000F900BBE0F900FBE0F901F901895808158
:1008D000F2CFE9E7F2E01382128248EE53E060E0E3
:1008E00070E0448355836683778384E092E091834C
:1008F00080832DEC30E0358724872CEC30E037877F
:10090000268728EC30E0318B208B29EC30E0338BCC
:10091000228B2AEC30E0358B248B2EEC30E0378BA9
:10092000268B118E128E138E148EE6E1F3E0138265
:10093000128244835583668377839183808385EC19
:1009400090E09587848784EC90E09787868780EC99
:1009500090E0918B808B81EC90E0938B828B82EC8A
:1009600090E0958B848B86EC90E0978B868B118E34
:10097000128E138E148E0895CF93DF93CDB7DEB70A
:10098000A1970FB6F894DEBF0FBECDBF789484B5A3
:10099000826084BD84B5816084BD85B5826085BD7B
:1009A00085B5816085BD80916E00816080936E0009
:1009B00010928100809181008260809381008091FB
:1009C00081008160809381008091800081608093AC
:1009D00080008091B10084608093B1008091B0006C
:1009E00081608093B000809191008260809391003B
:1009F000809191008160809391008091900081604E
:100A0000809390008091A10082608093A1008091EA
:100A1000A10081608093A1008091A00081608093FB
:100A2000A0008091210182608093210180912101A9
:100A30008160809321018091200181608093200159
:100A400080917A00846080937A0080917A0082603D
:100A500080937A0080917A00816080937A008091FF
:100A60007A00806880937A001092C100EFECF1E088
:100A70002491E9E8F1E08491882399F090E0880FCF
:100A8000991FFC01E85BFE4FA591B491FC01EE5962
:100A9000FE4F859194918FB7F894EC91E22BEC93F3
:100AA0008FBFE0912603F091270322E02083E0919D
:100AB0002203F09123031082E0912403F091250397
:100AC0008FEC808310922E03E0912A03F0912B0388
:100AD00096E09083E0912803F09129038081806162
:100AE0008083E0912803F0912903808188608083CE
:100AF000E0912803F0912903808180688083E09150
:100B00002803F091290380818F7D8083E091890201
:100B1000F0918A022083E0918502F0918602108292
:100B2000E0918702F09188028DEA80831092910211
:100B3000E0918D02F0918E029083E0918B02F09112
:100B40008C02808180618083E0918B02F0918C0225
:100B5000808188608083E0918B02F0918C0280819B
:100B600080688083E0918B02F0918C0280818F7D80
:100B70008083332433949AE0492E512C612C712CBC
:100B800086E193E00E9466021816190694F486E145
:100B900093E00E9444028C3339F430926F02109239
:100BA0006E0210926B02ECCF8E3309F085C030924A
:100BB0006A0280916F02882309F47BC080916A02E7
:100BC000882309F476C08BE692E00E9490068C019F
:100BD00085E192E00E9453036801012E000CEE08AB
:100BE000FF08F7FE7BC06DE289E792E00E94A80251
:100BF00022273327A9012C193D094E095F0919A2A3
:100C0000CE0181967C01CA01B901A30192010E9423
:100C1000B606605DF70162937F012115310541053C
:100C2000510589F7E114F10419F0C7010E9442034C
:100C30000E944F030E944F03003611050CF464C05C
:100C400089E292E00E9453030E944F0381E00E94D8
:100C50005B010E94E3014B015C0184EFC82EDD249F
:100C6000D394E12CF12C0E94E301681979098A09D7
:100C70009B09683E734081059105A8F3F1E0CF1A06
:100C8000D108E108F10828EE820E23E0921EA11C93
:100C9000B11CC114D104E104F10429F780E00E94E1
:100CA0005B0110926E0210926B0210926F02109212
:100CB0006A020E94150364CFE0916E02E43008F0EE
:100CC0005FCFAE2FB0E0A559BD4F8C93EF5FE0939F
:100CD0006E02F0E0E559FD4F108252CFA701960158
:100CE00019A2CE0181967C01CA01B901A30192012A
:100CF0000E94B606605DF70162937F012115310500
:100D00004105510589F78ECF8EE392E00A30110537
:100D100014F082E592E00E9453030E944F03C1CF7A
:100D2000FC0188279927E89421912032E9F32930A2
:100D300010F02E30C8F32B3241F02D3239F4689484
:100D400004C00E94AE06820F911D219120532A30CB
:100D5000C0F31EF4909581959F4F08957AE0979F78
:100D6000902D879F802D910D11240895A1E21A2EB8
:100D7000AA1BBB1BFD010DC0AA1FBB1FEE1FFF1F3F
:100D8000A217B307E407F50720F0A21BB30BE40B8F
:100D9000F50B661F771F881F991F1A9469F76095D6
:100DA0007095809590959B01AC01BD01CF01089590
:100DB000EE0FFF1F881F8BBF0790F691E02D19944F
:040DC000F894FFCFD5
:100DC40000000000A80208023502F502660244028F
:100DD40058020D0A0077617465722073656E736F33
:100DE400722076616C75653A005761746572206C87
:100DF4006576656C2069732048494748210057612E
:100E0400746572206C6576656C206973204C4F574D
:100E140021005761746572206C6576656C20697376
:0A0E2400204E4F524D414C210000BA
:00000001FF
