:100000000C94E3000C9414010C9414010C9414014E
:100010000C9414010C9414010C9414010C9414010C
:100020000C9414010C9414010C9414010C941401FC
:100030000C9414010C9414010C9414010C941401EC
:100040000C9414010C9414010C9414010C941401DC
:100050000C9414010C9414010C9414010C94CB0214
:100060000C9414010C949F030C9475030C941401CC
:100070000C9414010C9414010C9414010C941401AC
:100080000C9414010C9414010C9414010C9414019C
:100090000C943F030C9415030C9414010C9414015C
:1000A0000C9414010C9414010C9414010C9414017C
:1000B0000C9414010C9414010C9414010C9414016C
:1000C0000C9414010C9414010C9414010C9414015C
:1000D0000C9414010C9414010C9414010C9414014C
:1000E0000C9414010C9499010C94DB010C9468019C
:1000F0000C94D5030C948B010C9428020C943B01B6
:100100000C94770100002200250028002B002E000F
:100110003100340002010000050108010B0100005C
:100120002100240027002A002D00300033000101A7
:100130000000040107010A01050505050705080877
:100140000808020202020A0A080804040404010161
:100150000101010101010303030303030303040776
:1001600007070C0C0C0C0C0C0C0C0202020206060D
:100170000606060606060B0B0B0B0B0B0B0B010200
:1001800010202008081020401020408002010201A9
:100190000804020101020408102040808040201061
:1001A00008040201800402018040201008040201BA
:1001B0000804020101020408102040800102040822
:1001C00010204080D50311241FBECFEFD1E2DEBF47
:1001D000CDBF00E00CBF12E0A0E0B2E0E8E6FCE03A
:1001E00000E00BBF02C007900D92AC32B107D9F707
:1001F00023E0ACE2B2E001C01D92A137B207E1F703
:1002000010E0C3EED0E000E006C021970109802F86
:10021000FE010E942A06C23ED10780E00807A9F726
:100220000E9428040C9432060C9400003FB7F89406
:100230008091330290913402A0913502B091360240
:1002400026B5A89B05C02F3F19F00196A11DB11D31
:100250003FBFBA2FA92F982F8827BC01CD01620F6D
:10026000711D811D911D42E0660F771F881F991F28
:100270004A95D1F70895AF92BF92CF92DF92EF9255
:10028000FF920F931F93CF93DF936C017B018B0140
:10029000040F151FEB015E01AE18BF08C017D10790
:1002A00059F06991D601ED91FC910190F081E02D1A
:1002B000C6011995892B79F7C501DF91CF911F915F
:1002C0000F91FF90EF90DF90CF90BF90AF90089587
:1002D000FC01538D448D252F30E0842F90E0821B4C
:1002E000930B541710F0CF96089501970895FC01D1
:1002F000918D828D981761F0A28DAE0FBF2FB11D29
:100300005D968C91928D9F5F9F73928F90E0089580
:100310008FEF9FEF0895FC01918D828D981731F03A
:10032000828DE80FF11D858D90E008958FEF9FEF8E
:100330000895FC01918D228D892F90E0805C9F4F64
:10034000821B91098F739927089587E392E00E9499
:10035000990121E0892B09F420E0822F089584ED92
:1003600092E00E94990121E0892B09F420E0822F7C
:100370000895FC01A48DA80FB92FB11DA35ABF4F3A
:100380002C91848D90E001968F739927848FA68994
:10039000B7892C93A089B1898C91837080648C93E8
:1003A000938D848D981306C00288F389E02D808197
:1003B0008F7D80830895EF92FF920F931F93CF93C9
:1003C000DF93EC0181E0888F9B8D8C8D98131AC090
:1003D000E889F989808185FF15C09FB7F894EE8977
:1003E000FF896083E889F9898081837080648083D4
:1003F0009FBF81E090E0DF91CF911F910F91FF901F
:10040000EF900895F62E0B8D10E00F5F1F4F0F73C6
:100410001127E02E8C8D8E110CC00FB607FCFACF81
:10042000E889F989808185FFF5CFCE010E94B90165
:10043000F1CFEB8DEC0FFD2FF11DE35AFF4FF08252
:100440009FB7F8940B8FEA89FB8980818062CFCFB8
:10045000CF93DF93EC01888D8823B9F0AA89BB89FB
:10046000E889F9898C9185FD03C0808186FD0DC0E6
:100470000FB607FCF7CF8C9185FFF2CF808185FF07
:10048000EDCFCE010E94B901E9CFDF91CF91089560
:1004900080E090E0892B29F00E94AF0181110E9439
:1004A000000080E090E0892B29F00E94A5018111D5
:1004B0000E94000080E090E0892B49F080E090E00D
:1004C000892B29F00E94000081110E94000080E029
:1004D00090E0892B49F080E090E0892B29F00E9480
:1004E000000081110C9400000895FB010190002090
:1004F000E9F73197AF01461B570B0C943B018F92E4
:100500009F92AF92BF92EF92FF920F931F93CF9360
:10051000DF93CDB7DEB7A1970FB6F894DEBF0FBE5D
:10052000CDBF7C01FA01CB0119A2223008F42AE0E8
:100530008E010F5D1F4F822E912CB12CA12CBF017B
:10054000A50194010E94F205F901CA016A300CF577
:10055000605DD8016E938D01232B242B252B79F719
:1005600090E080E0109721F0BD01C7010E94750264
:10057000A1960FB6F894DEBF0FBECDBFDF91CF912D
:100580001F910F91FF90EF90BF90AF909F908F9031
:100590000895695CDECF1F920F920FB60F9211245F
:1005A0002F933F938F939F93AF93BF9380912F028D
:1005B00090913002A0913102B091320230912E021E
:1005C00023E0230F2D3758F50196A11DB11D20936F
:1005D0002E0280932F0290933002A0933102B093A9
:1005E00032028091330290913402A0913502B09191
:1005F00036020196A11DB11D8093330290933402FF
:10060000A0933502B0933602BF91AF919F918F9125
:100610003F912F910F900FBE0F901F90189526E8D5
:10062000230F0296A11DB11DD2CF1F920F920FB6BC
:100630000F9211240BB60F922F933F934F935F931A
:100640006F937F938F939F93AF93BF93EF93FF939A
:1006500087E392E00E94B901FF91EF91BF91AF91C2
:100660009F918F917F916F915F914F913F912F91CA
:100670000F900BBE0F900FBE0F901F9018951F92FA
:100680000F920FB60F9211240BB60F922F938F93E8
:100690009F93EF93FF93E0914702F091480280818E
:1006A000E0914D02F0914E0282FD1DC0908180913B
:1006B00050028F5F8F7320915102821741F0E091B9
:1006C0005002F0E0E95CFD4F958F80935002FF915E
:1006D000EF919F918F912F910F900BBE0F900FBEB6
:1006E0000F901F9018958081F2CF1F920F920FB636
:1006F0000F9211240BB60F922F933F934F935F935A
:100700006F937F938F939F93AF93BF93EF93FF93D9
:1007100084ED92E00E94B901FF91EF91BF91AF91FA
:100720009F918F917F916F915F914F913F912F9109
:100730000F900BBE0F900FBE0F901F9018951F9239
:100740000F920FB60F9211240BB60F922F938F9327
:100750009F93EF93FF93E091E402F091E502808193
:10076000E091EA02F091EB0282FD1DC09081809140
:10077000ED028F5F8F732091EE02821741F0E091BE
:10078000ED02F0E0EC52FD4F958F8093ED02FF916A
:10079000EF919F918F912F910F900BBE0F900FBEF5
:1007A0000F901F9018958081F2CFE7E3F2E013825B
:1007B000128248EE53E060E070E044835583668324
:1007C000778384E092E0918380832DEC30E035875D
:1007D00024872CEC30E03787268728EC30E0318BFB
:1007E000208B29EC30E0338B228B2AEC30E0358BE8
:1007F000248B2EEC30E0378B268B118E128E138ECD
:10080000148EE4EDF2E013821282448355836683F2
:1008100077839183808385EC90E09587848784EC4F
:1008200090E09787868780EC90E0918B808B81ECBD
:1008300090E0938B828B82EC90E0958B848B86EC9E
:1008400090E0978B868B118E128E138E148E0895E6
:10085000789484B5826084BD84B5816084BD85B59B
:10086000826085BD85B5816085BD80916E008160A7
:1008700080936E001092810080918100826080934D
:10088000810080918100816080938100809180004F
:100890008160809380008091B10084608093B1007A
:1008A0008091B00081608093B0008091910082605F
:1008B000809391008091910081608093910080915C
:1008C00090008160809390008091A100826080936D
:1008D000A1008091A10081608093A1008091A0007F
:1008E00081608093A000809121018260809321012A
:1008F000809121018160809321018091200181609C
:100900008093200180917A00846080937A008091A6
:100910007A00826080937A0080917A00816080936F
:100920007A0080917A00806880937A001092C100EA
:10093000E7EBF1E02491E1E7F1E084918823C1F055
:1009400090E0880F991FFC01E25EFE4FC591D491A3
:10095000FC01EC5FFE4FA591B4919FB7F89488819C
:10096000E22FE0958E2388838C91E823EC939FBF40
:10097000E091E402F091E50222E02083E091E002C0
:10098000F091E1021082E091E202F091E3028FEC3B
:1009900080831092EC02E091E802F091E90296E087
:1009A0009083E091E602F091E7028081806180838C
:1009B000E091E602F091E702808188608083E09117
:1009C000E602F091E702808180688083E091E60290
:1009D000F091E70280818F7D8083E0914702F09162
:1009E00048022083E0914302F09144021082E0919A
:1009F0004502F09146028DEA808310924F02E09109
:100A00004B02F0914C029083E0914902F0914A022E
:100A1000808180618083E0914902F0914A02808167
:100A200088608083E0914902F0914A028081806869
:100A30008083E0914902F0914A0280818F7D80831A
:100A4000C3E488248A9493E0992EA12CB12C809140
:100A50007B00877F80937B00C0937C0080917A002D
:100A6000806480937A0080917A0086FDFCCFA0910B
:100A70007800B091790024E630E00E942306A501B9
:100A800094010E94D30530932D0220932C0262E141
:100A900072E087E392E00E94750269E272E087E308
:100AA00092E00E947502C0902C02D0902D020D2C75
:100AB000000CEE08FF082AE0B701A601F7FE0DC002
:100AC0006DE287E392E00E94DB0144275527BA01DB
:100AD0004C195D096E097F092AE087E392E00E94C4
:100AE0007F0269E272E087E392E00E94750269E2A8
:100AF00072E087E392E00E9475026CE384ED92E07D
:100B00000E94DB01C0902C02D0902D020D2C000C15
:100B1000EE08FF082AE0B701A601F7FE0DC06DE25E
:100B200084ED92E00E94DB0144275527BA014C195D
:100B30005D096E097F092AE084ED92E00E947F0240
:100B40006EE384ED92E00E94DB0169E272E084EDE5
:100B500092E00E9475020E9416012B013C0184EF75
:100B6000C82EDD24D394E12CF12C0E9416016419C7
:100B7000750986099709683E734081059105A8F3B8
:100B800021E0C21AD108E108F10888EE480E83E09E
:100B9000581E611C711CC114D104E104F10429F731
:100BA0000E94480254CF052E97FB1EF400940E9429
:100BB000EA0557FD07D00E94F20507FC03D04EF46A
:100BC0000C94EA0550954095309521953F4F4F4F35
:100BD0005F4F089590958095709561957F4F8F4FE9
:100BE0009F4F0895A1E21A2EAA1BBB1BFD010DC049
:100BF000AA1FBB1FEE1FFF1FA217B307E407F507CD
:100C000020F0A21BB30BE40BF50B661F771F881FA8
:100C1000991F1A9469F760957095809590959B013E
:100C2000AC01BD01CF010895A29FB001B39FC001E7
:100C3000A39F700D811D1124911DB29F700D811D08
:100C40001124911D08950E941406B7FF0895821B78
:100C5000930B0895EE0FFF1F881F8BBF0790F6912F
:080C6000E02D1994F894FFCF78
:100C680000000000DB013B016801280299017701BF
:100C78008B0177617465722073656E736F7220766D
:0C0C8800616C75653A202020000D0A0008
:00000001FF
