:100000000C94A2020C94D3020C94D3020C94D3024D
:100010000C94D3020C94D3020C94D3020C94D3020C
:100020000C94D3020C9490100C9490100C9490109B
:100030000C94D3020C94D3020C94D3020C94D302EC
:100040000C94D3020C9462100C94D3020C94D3023F
:100050000C94D3020C94D3020C94D3020C94CE0EC5
:100060000C94D3020C94A20F0C94780F0C94D3022E
:100070000C94D3020C94D3020C94D3020C94D302AC
:100080000C9434100C94D3020C94D3020C94D3022D
:100090000C94D3020C94D3020C94D3020C94D3028C
:1000A0000C94D3020C94D3020C9406100C94D3023B
:1000B0000C94D3020C94D3020C94D3020C94D80F5A
:1000C0000C94D3020C94D3020C94D3020C94D3025C
:1000D0000C94D3020C94D3020C94420F0C94180F7E
:1000E0000C94D3020C94BE030C9487030C948F03DE
:1000F0000C94B0030C94BD030C943E050C94AC0B13
:100100000C94CA0B0C94F5100C94C00B0C9498032F
:100110000C94C2030C949C0B0C94B8030C949203A3
:100120000C94C80E0C947E0B0C949F050C94ED0B54
:100130000C946E050C94A40B0C94D6020C941E081F
:100140000C94D5020C94A6030C947D030C94B40378
:100150000C94790B0C940B0C0C9436050C948303C3
:100160000C94920B0C94AA030C942E060C94D90BAD
:100170000C94010C0C94A2030C949C030C94710B32
:100180000C94880B0C94E30B0C943A050C94E10549
:100190000C94B60B0C9441080C9441050C94F70B8D
:1001A0000C947D050C948B030C9491050C940B0816
:1001B000626C6E6B696E660076657200312E312E50
:1001C0003000682D626561740034350062756666C2
:1001D0002D696E00313032340064657600417264FE
:1001E00075696E6F204D65676100637075004154DD
:1001F0006D6567613235363000636F6E005374721F
:1002000065616D006275696C64004A616E2020331F
:1002100020323032332031383A31333A3234000030
:100220000000002100240027002A002D00300033A8
:100230000001010000040107010A0100002200255D
:100240000028002B002E00310034000201000005C0
:100250000108010B01000020002300260029002CCA
:10026000002F003200000100000301060109010512
:10027000050505070508080808020202020A0A081F
:100280000804040404010101010101010103030345
:100290000303030303040707070C0C0C0C0C0C0CE2
:1002A0000C0202020206060606060606060B0B0BE9
:1002B0000B0B0B0B0B010210202008081020401024
:1002C000204080020102010804020101020408101A
:1002D0002040808040201008040201800402018038
:1002E0004020100804020108040201010204081061
:1002F000204080010204081020408000000A0B0208
:10030000090C0D0E080703040100000000000000A6
:1003100000000000000000000000000000000000DD
:10032000000000000000001211100000000000009A
:1003300000000000000000000000000000000000BD
:1003400000D602D602D602D602D602D602D602D6EF
:1003500002D602D602D602D602D602D602D602D6DD
:1003600002D602D602D602D602D602D602D602D6CD
:1003700002D602D602D602D602D602D602D602D6BD
:1003800002D602D602D602D602D602D602D602D6AD
:1003900002D602D602D602D602D602D602D602D69D
:1003A00002D602D602D602D602D602D602D602D68D
:1003B00002D602D602D602D602D602D602D602D67D
:1003C00002D602D602D602D602D602D602D602D66D
:1003D00002D602D602D602D602D602D602D602D65D
:1003E00002D602D602D602D602D602D602D602D64D
:1003F00002D602D602D602D602D602D602D602D63D
:1004000002D602D602D602D602D602D602D602D62C
:1004100002D602D602D602D602D602D602D602D61C
:1004200002D602D602D602D602D602D602D602D60C
:1004300002D602D602D602D602D602D602D602D6FC
:10044000021E084108D5020B08D502D502D502D5F7
:1004500002D502D502D502D502D502D502D502D5E4
:1004600002D502D502D502D502D502D502D502D5D4
:1004700002D502D502D502D502D502D502D502D5C4
:1004800002D502D502D502D502D502D502D502D5B4
:1004900002D502D502D502D502D502D502D502D5A4
:1004A00002D502D502D502D502D502D502D502D594
:1004B00002D502D502D502D502D502D502D502D584
:1004C00002D502D502D502D502D502D502D502D574
:1004D00002D502D502D502D502D502D502D502D564
:1004E00002D502D502D502D502D502D502D502D554
:1004F00002D502D502D502D502D502D502D502D544
:1005000002D502D502D502D502D502D502D502D533
:1005100002D502D502D502D502D502D502D502D523
:1005200002D502D502D502D502D502D502D502D513
:1005300002D502D502D502D502D502D502D502D503
:100540000200F51011241FBECFEFD1E2DEBFCDBFF8
:1005500000E00CBF12E0A0E0B2E0EEE2F2E300E067
:100560000BBF02C007900D92A63DB107D9F726E058
:10057000A6EDB2E001C01D92AE3AB207E1F712E07B
:10058000C2EAD2E000E006C021970109802FFE01F7
:100590000E94E518C13AD10780E00807A9F70E9438
:1005A00019120C9415190C940000089508958F9257
:1005B0009F92AF92BF92FF920F931F93CF93DF93BF
:1005C000F090BA042FE22F1508F44CC02091BC041F
:1005D00008E512E0021B110927FD1395000F111FFA
:1005E000000F111F2091BB04C8E8D0E0C21BD10945
:1005F00027FDD395CC0FDD1FCC0FDD1F4E010D2E37
:10060000000CAA08BB089801012E000C440B550BE6
:10061000281939094A095B09DC010E94901824EB6A
:1006200030E040E050E00E946618820E931EA41E47
:10063000B51E8C169D062CF0E801801691060CF470
:10064000E4012297CC0FDD1F2FB7F8948F2D90E097
:10065000FC01EE0FFF1FE80FF91FE75DFB4FD28390
:10066000C1832FBFDF91CF911F910F91FF90BF905A
:10067000AF909F908F90089596E0899FD0011124AC
:10068000A354BB4F90967C936E935F9791E09196A5
:100690009C939197E0912A05F0912B059091290563
:1006A000992339F0309751F0811108C08091D90415
:1006B0001994309719F05C968C91FACF0895815077
:1006C000823108F05AC0E82FF0E08827E559FC4F46
:1006D0008F4F0C94E5188B038F037D0383038703EF
:1006E000BD03920398039C03A203A603AA03B003CD
:1006F000B403BD03B803BE03C203809180008F77AB
:10070000809380000895809180008F7DF9CF809143
:100710008000877FF5CF84B58F7784BD089584B539
:100720008F7DFBCF8091B0008F778093B0000895CC
:100730008091B0008F7DF9CF809190008F7780936A
:1007400090000895809190008F7DF9CF8091900066
:10075000877FF5CF8091A0008F778093A0000895C8
:100760008091A0008F7DF9CF8091A000877FF5CF89
:10077000809120018F77809320010895809120013E
:100780008F7DF9CF80912001877FF5CFCF93DF93C5
:10079000282F30E0F901E550FD4F8491F901EB5429
:1007A000FD4FD491F901E159FD4FC491CC23A1F043
:1007B00081110E945F03EC2FF0E0EE0FFF1FEB5A58
:1007C000FD4FA591B491EC91ED2381E090E009F407
:1007D00080E0DF91CF91089580E090E0FACF1F9301
:1007E000CF93DF93282F30E0F901E550FD4F84913E
:1007F000F901EB54FD4FD491F901E159FD4FC4913A
:10080000CC23A9F0162F81110E945F03EC2FF0E09A
:10081000EE0FFF1FE55CFD4FA591B4918FB7F894E3
:10082000EC91111108C0D095DE23DC938FBFDF91CE
:10083000CF911F910895DE2BF8CFCF93DF9390E0F7
:10084000FC01EB54FD4F249181599D4FFC01849193
:100850008823C9F090E0880F991FFC01EF5DFD4FE0
:10086000A591B491FC01E55CFD4FC591D491611156
:100870000DC09FB7F8948C91209582238C9388812A
:10088000282328839FBFDF91CF910895623051F4D0
:100890009FB7F8943C91822F809583238C93E881B5
:1008A0002E2BEFCF8FB7F894EC912E2B2C938FBF7C
:1008B000EACF863308F0865320917B00982F9870FA
:1008C000277F922B90937B008770806480937C00BD
:1008D00080917A00806480937A0080917A0086FD0E
:1008E000FCCF809178009091790008953FB7F894FB
:1008F0008091EB029091EC02A091ED02B091EE029A
:1009000026B5A89B05C02F3F19F00196A11DB11D6A
:100910003FBFBA2FA92F982F8827BC01CD01620FA6
:10092000711D811D911D42E0660F771F881F991F61
:100930004A95D1F708958F929F92AF92BF92CF922E
:10094000DF92EF92FF926B017C010E9476044B01D3
:100950005C01C114D104E104F104B9F00E947604F1
:10096000681979098A099B09683E734081059105D8
:1009700080F321E0C21AD108E108F10888EE880E60
:1009800083E0981EA11CB11CE4CFFF90EF90DF9094
:10099000CF90BF90AF909F908F9008952FB7F8940D
:1009A0006091E7027091E8028091E9029091EA0279
:1009B0002FBF08950F931F93CF93DF93C82FD62F88
:1009C00086E0C89FF0011124E354FB4F11A2878DEC
:1009D00090A181309105F1F058F082309105F1F14C
:1009E000039709F440C0DF91CF911F910F910895B3
:1009F0006623C9F361E070E08C2F0E943C030E94E3
:100A0000CE04609315057093160580931705909397
:100A10001805E9CF0E94CE04009115051091160526
:100A20002091170530911805AB01BC01401B510BFB
:100A3000620B730B8091270590912805B0E0A0E030
:100A400084179507A607B70748F462E070E08C2F7B
:100A5000DF91CF911F910F910C943C0363E070E004
:100A6000D111C1CFF4CF70E060E0F1CF862F642FB9
:100A70000C941D04862F642F0C94EF03862F0C9486
:100A8000C603AF92BF92CF92DF92EF92FF920F9385
:100A90001F93CF93DF936C017B018B01040F151F14
:100AA000EB015E01AE18BF08C017D10759F069917C
:100AB000D601ED91FC910190F081E02DC6011995D0
:100AC000892B79F7C501DF91CF911F910F91FF908D
:100AD000EF90DF90CF90BF90AF900895FC01538DC1
:100AE000448D252F30E0842F90E0821B930B541708
:100AF00010F0CF96089501970895FC01918D828D95
:100B0000981761F0A28DAE0FBF2FB11D5D968C912D
:100B1000928D9F5F9F73928F90E008958FEF9FEF6C
:100B20000895FC01918D828D981731F0828DE80F28
:100B3000F11D858D90E008958FEF9FEF0895FC01E2
:100B4000918D228D892F90E0805C9F4F821B9109AF
:100B50008F73992708958FEE92E00E949F0521E000
:100B6000892B09F420E0822F08958CE893E00E94FD
:100B70009F0521E0892B09F420E0822F0895FC01D4
:100B8000A48DA80FB92FB11DA35ABF4F2C91848DEE
:100B900090E001968F739927848FA689B7892C934B
:100BA000A089B1898C91837080648C93938D848D9E
:100BB000981306C00288F389E02D80818F7D8083A1
:100BC0000895EF92FF920F931F93CF93DF93EC0161
:100BD00081E0888F9B8D8C8D98131AC0E889F989E4
:100BE000808185FF15C09FB7F894EE89FF896083E7
:100BF000E889F98980818370806480839FBF81E068
:100C000090E0DF91CF911F910F91FF90EF900895A9
:100C1000F62E0B8D10E00F5F1F4F0F731127E02E84
:100C20008C8D8E110CC00FB607FCFACFE889F989BC
:100C3000808185FFF5CFCE010E94BF05F1CFEB8DFE
:100C4000EC0FFD2FF11DE35AFF4FF0829FB7F89490
:100C50000B8FEA89FB8980818062CFCFCF93DF93AE
:100C6000EC01888D8823B9F0AA89BB89E889F989C4
:100C70008C9185FD03C0808186FD0DC00FB607FCF9
:100C8000F7CF8C9185FFF2CF808185FFEDCFCE012C
:100C90000E94BF05E9CFDF91CF91089580E090E0F9
:100CA000892B29F00E94B50581110E94000080E087
:100CB00090E0892B49F080E090E0892B29F00E9498
:100CC000000081110E94000080E090E0892B49F033
:100CD00080E090E0892B29F00E94000081110E94A1
:100CE000000080E090E0892B29F00E94AB05811183
:100CF0000C9400000895AF92BF92CF92DF92EF92D2
:100D0000FF920F931F93CF93DF936B017A01EC0156
:100D1000C852DD4F28813CE0389F8001399F100D7B
:100D20001124A090B904B12C27FF1FC0FB01118230
:100D3000108288818F5F888388819801280F311DF8
:100D400087FD3A95F6012A153B051CF488818C3005
:100D5000C4F180819181049680349C4908F473C069
:100D6000F60180819181049670C088819801280FD6
:100D7000311D87FD3A952A153B05DCF68881A801CF
:100D8000480F511D87FD5A95FA01EE0FFF1FE40F22
:100D9000F51FE75DFB4F808186FFCBCF8881F8018F
:100DA000E80FF11D87FDFA95CF01EE0FFF1FE80F49
:100DB000F91FE75DFB4F808160E08F730E94EF03B6
:100DC000B8CF808191812881A801420F511D27FD54
:100DD0005A959A01FA01EE0FFF1FE20FF31FE75D2C
:100DE000FB4F21813281820F931FF7019183808312
:100DF00088819801280F311D87FD3A95F901EE0F82
:100E0000FF1FE20FF31FE75DFB4F808186FF22C0CB
:100E10008881080F111D87FD1A95F801EE0FFF1F3D
:100E2000E00FF11FE75DFB4F808161E08F73DF9181
:100E3000CF911F910F91FF90EF90DF90CF90BF90D7
:100E4000AF900C94EF0380E49CE9F70191838083D9
:100E50008FEF8883DF91CF911F910F91FF90EF90DB
:100E6000DF90CF90BF90AF9008958F929F92AF92F6
:100E7000BF92CF92DF92EF92FF920F931F93CF9387
:100E8000DF936C017B018B01040F151F0E94CE04C0
:100E90004B015C01E701C017D107C8F40E94CE04E2
:100EA000681979098A099B0960377741810591059D
:100EB00070F4D6018D919C91DC01ED91FC9102843E
:100EC000F385E02D199597FDE6CF8993E4CFCE0108
:100ED0008E199F09DF91CF911F910F91FF90EF9095
:100EE000DF90CF90BF90AF909F908F900895FC01BE
:100EF00001900020E9F73197AF01481B590BBC0165
:100F00008FEE92E00C94410586E592E00C94770711
:100F10008F929F92AF92BF92CF92DF92EF92FF9209
:100F20000F931F93CF93DF93CDB7DEB7A1970FB683
:100F3000F894DEBF0FBECDBF6C01990FEE08FF081D
:100F4000F7FE45C06DE28FEE92E00E94E1058C0154
:100F500022273327A9012C193D094E095F0919A23F
:100F6000CE0181967C019AE0892E912CA12CB12C86
:100F7000CA01B901A50194010E949818605DF701AA
:100F800062937F01211531054105510589F790E0F4
:100F900080E0309719F0CF010E947707080F191FE2
:100FA0000E948407800F911FA1960FB6F894DEBFB0
:100FB0000FBECDBFDF91CF911F910F91FF90EF90AA
:100FC000DF90CF90BF90AF909F908F900895A70132
:100FD000960119A28E010F5D1F4F8AE0C82ED12CF9
:100FE000E12CF12CCA01B901A70196010E949818C1
:100FF000605DF80162938F012115310541055105AE
:1010000089F7309729F0CF010E9477078C01C8CF6C
:1010100010E000E0C5CFFB01808191810E940218A1
:1010200021E08130910509F020E02093DC0261E0AD
:10103000019709F060E083E00C94EF03FB018081ED
:1010400091810E94021821E08130910509F020E091
:101050002093E102019741F461E084E00E94EF03F4
:1010600061E081E20C94EF0360E084E00E94EF0312
:1010700060E081E20E94EF031092E3021092E2022C
:101080000895FB01808191810E9402182091E10264
:10109000222329F09093E0028093DF0208951092BA
:1010A000E0021092DF0208950F931F93CF93DF9316
:1010B000EC01FB0101900020E9F78F01061B170BE3
:1010C0008A819B81A801480F591F2C813D812417DB
:1010D000350768F028813981A801820F931F0E948B
:1010E000F4184A815B81400F511F5B834A83DF9173
:1010F000CF911F910F9108950F931F93CF93DF937B
:10110000CDB7DEB762970FB6F894DEBF0FBECDBF86
:101110008C01CB014AE0BE016F5F7F4F0E9429180E
:10112000BE016F5F7F4FC8010E94540862960FB6E0
:10113000F894DEBF0FBECDBFDF91CF911F910F910D
:1011400008953F924F925F926F927F928F929F92FB
:10115000AF92BF92CF92DF92EF92FF920F931F93C5
:10116000CF93DF93CDB7DEB7A1970FB6F894DEBF6C
:101170000FBECDBF6C012DB73EB739A328A360E0E9
:1011800070E0CB010E949B04D60157968D919C91F3
:101190005897B12C029709F4C9C356968C9156976B
:1011A0008F5F56968C93569754962D913C915597F8
:1011B000232B19F0BB24B394B2C38330D8F7ED913D
:1011C000FC918281882309F48FC3FE0131963F018F
:1011D000D601ED91FC9180819181DC01ED91FC9132
:1011E0000084F185E02D1995181619060CF07CC3C2
:1011F00045E050E0BE01695E7F4FF601808191813C
:101200000E943507009721F3059709F04AC0888DA1
:10121000998D982789279827998F888FEA8CFB8C3E
:10122000FE24EF24FE24FB8EEA8E892BD1F18F89D8
:10123000811142C00E94CE04D60116966D937D9313
:101240008D939C93199757962D913C9158974A8D61
:101250005B8D232B61F5288D398D2130310539F5D2
:1012600049305105C1F0483C510519F04430510551
:10127000C1F4F60166877787808B918B21E030E09F
:10128000308F278BC6010E94BC1060E070E0CB015C
:101290000E949B049DCF83E090E058969C938E9390
:1012A0005797D601ED91FC911282B12C38C345308D
:1012B000510509F08DCFF5CFF60180819181F1E0E4
:1012C000EF16F4E0FF0640F0D60158961C921E92ED
:1012D0005797FC0112827CCFADB6BEB697012F5F47
:1012E0003F4F4DB75EB7421B530B0FB6F8945EBF2E
:1012F0000FBE4DBF0DB71EB70F5F1F4FA701B8013F
:101300000E9435078E159F0509F067C0EA8DFB8D99
:10131000E00FF11F10820E94CE04D60116966D9345
:101320007D938D939C9319978F89813109F4C7C25E
:1013300028F58630B1F08F3009F485C0823021F570
:10134000F6018789908D892B61F421E030E0308FA0
:10135000278BC6010E94BC1060E070E0CB010E94A8
:101360009B04488D598DF12CE12C08EC10E030E005
:1013700020E060E0C6010E94620D12C08D3101F3D1
:1013800058F4843109F45FC0F601108E178A019079
:10139000F081E02D128204C0893241F08733A1F739
:1013A0000FB6F894BEBE0FBEADBE12CF14968D918F
:1013B0009C91892B39F480E490E00E94DD16F601BF
:1013C000958384838A8D9B8D800F911F1A83098357
:1013D0009C838B830817190730F00FB6F894BEBEB4
:1013E0000FBEADBE5ECF40E450E0B801D60114960A
:1013F0008D919C910E940619D6011496ED91FC9155
:1014000017AEC3010E949A10D601ED91FC9111977D
:10141000128258961C921E9257970E94CE04DC01AD
:10142000CB0188589341A109B109F60182879387BE
:10143000A487B58786839783A087B1878687978798
:10144000A08BB18BADCF888D998DD60155969C938D
:101450008E9354974A8C5B8C4801840C951C1D8F8D
:101460000C8F9F8E8E8E0815190508F03EC1F8016D
:10147000E080F180CE014C960E949A10DC018D91A3
:101480009C918815990508F030C18C8D9D8DFC01CB
:101490002081213459F401960E94021836E3332E3C
:1014A000380E409744F033243A9405C0CE014C9650
:1014B0000E94AD10382EF6E7EF16F2E7FF0609F4AA
:1014C000AFC140F531E6E31632E7F30609F4CFC0C9
:1014D00044E6E41642E7F40609F483C050E7E51653
:1014E0005DE6F50609F0DFC18C8D9D8D88159905A7
:1014F00008F0FBC0FC012081213409F03FC00196B7
:101500000E94021826E3F22EF80E4097E4F1FF2421
:10151000FA9439C084E6E81687E7F80609F48CC027
:1015200096E7E91697E7F90609F492C1A1E6EA16EB
:10153000A7E7FA0609F0B7C1CE014C960E949A10AF
:10154000DC018D919C918815990508F0CEC061E071
:10155000832D0E941D04CE014C960E94AD108C017B
:1015600061E0832D0E941D040115110509F47AC064
:101570000F3F110509F093C061E075C0CE014C9694
:101580000E94AD10F82ECE014C960E949A100C8D40
:101590001D8D69E572E0C8010E94FD1860E0892B8D
:1015A00079F06CE572E0C8010E94FD18892B39F0D2
:1015B00060E672E0C8010E94FD18892B49F461E0E1
:1015C0008F2D0E941D04CE014C960E949A108CCF44
:1015D00064E672E0C8010E94FD18892BA1F762E061
:1015E000EFCF7A8A698A1C8A1B8A20E130E03E8B21
:1015F0002D8B67E672E0CE0141960E945408632D60
:1016000070E0CE0141960E947C08832D0E94C603A3
:10161000BC01CE0141960E947C080B891C890150B7
:10162000110929893A89F12CE12C50E040E064E16C
:10163000C6010E94620D59C0CE014C960E949A10BC
:10164000DC018D919C918815990508F04EC061E0F0
:10165000832D0E941D04CE014C960E94AD1061E0C6
:10166000892B09F460E0832D0E94EF033EC07A8A43
:10167000698A1C8A1B8AE0E1F0E0FE8BED8B6AE64A
:1016800072E0CE0141960E945408632D70E0CE01B5
:1016900041960E947C08832D0E945904B9CFE32D06
:1016A000F0E0E550FD4FE491E150E23108F0B3C0C5
:1016B000F0E08827E15AF44F8F4F0C94E518710B36
:1016C000790B7E0B880B920B0B0C9C0BA40BAC0BB9
:1016D000B60BC00BCA0BD90BE30B0B0CED0BF70BC6
:1016E000010C84B5806884BD07BDF601158A148A93
:1016F00057CE84B5806284BD08BDF7CF809180004D
:101700008068809380001093890000938800EDCF5B
:101710008091800080628093800010938B00009302
:101720008A00E3CF809180008860809380001093CE
:101730008D0000938C00D9CF8091B0008068809399
:10174000B0000093B300D1CF8091B000806280934D
:10175000B0000093B400C9CF80919000806880935E
:1017600090001093990000939800BFCF8091900053
:1017700080628093900010939B0000939A00B5CFF5
:101780008091900088608093900010939D0000935A
:101790009C00ABCF8091A00080688093A0008091D6
:1017A000A0008F7B8093A0001093A9000093A80055
:1017B0009CCF8091A00080628093A0001093AB002A
:1017C0000093AA0092CF8091A00088608093A0002F
:1017D0001093AD000093AC0088CF80912001806809
:1017E0008093200110932901009328017ECF8091DE
:1017F000200180628093200110932B0100932A0125
:1018000074CF8091200188608093200110932D0176
:1018100000932C016ACF003811050CF0ADCE22CF19
:10182000398237FC62CFE32DF0E0EE0FFF1FEF5B54
:10183000FC4F259134912115310509F456CFB2E0C2
:10184000263D3B0709F451CFC301F90119954DCF4E
:10185000CE014C960E949A108C8D9D8D9C01201B70
:10186000310B421A530A9A8389835C824B825E82CF
:101870004D82398A37FC39CFE32DF0E0EE0FFF1FA0
:10188000EF5BFB4F259134912115310509F42DCFE4
:10189000F2E0253D3F0709F428CFB301CE01419680
:1018A000F901199522CFD60154964D915C91F12CF6
:1018B000E12C02E010E030E020E060E0B9CE8A8D5B
:1018C0009B8D800F911F1A8309839C838B8308173C
:1018D000190708F065CDC3010E949A10D6015596EC
:1018E0001C921E9254975CCD0E94CE042B013C01A9
:1018F000F60100811181D8011296BC901297878958
:10190000908D8130910509F088C0B1102FC04686B6
:101910005786608A718A108E178A12961C92D60199
:1019200056968C915697815056968C938B2DE8A1A4
:10193000F9A10FB6F894FEBF0FBEEDBFA1960FB68A
:10194000F894DEBF0FBECDBFDF91CF911F910F91F5
:10195000FF90EF90DF90CF90BF90AF909F908F90CF
:101960007F906F905F904F903F9008958681978110
:10197000A085B185A3019201281B390B4A0B5B0B93
:10198000DA01C901893136EF9307A105B10530F0BD
:10199000108E178AD80112961C9287CC893C9F4AD8
:1019A000A105B10598F4F60182859385A485B585D6
:1019B000A3019201281B390B4A0B5B0BDA01C90109
:1019C000893C9F4AA105B10508F4F4CBF601868550
:1019D0009785A089B189A3019201281B390B4A0B75
:1019E0005B0BDA01C90181379741A105B10508F404
:1019F000E1CBF12CE12C10E000E030E020E050E001
:101A000040E066E0C6010E94620DD6011E964D922E
:101A10005D926D927C92519782CF892B09F0CACB4F
:101A200086859785A089B189481A590A6A0A7B0A6E
:101A3000BB2079F0F1E74F16F7E15F06610471040E
:101A400008F4B8CBD80112961C92F601108E178AB2
:101A50002CCCF9E84F16F3E15F066104710408F439
:101A6000A9CBD8018D919C91DC01ED91FC91068070
:101A7000F781E02D199581E0F801828381E090E003
:101A8000D60153969C938E93529712962D913C912A
:101A9000F90101900020E9F731978F01021B130B28
:101AA000F12CE12C41E050E06DE1C6010E94620D95
:101AB000F60182859385A485B58586879787A08B57
:101AC000B18B78CB2F923F924F925F927F928F9201
:101AD0009F92AF92BF92CF92DF92EF92FF920F93BD
:101AE0001F93CF93DF9300D01F921F92CDB7DEB725
:101AF0007C01762E6A015901DC01ED91FC91828115
:101B0000882309F4AFC0862F8D7F09F4DDC0B6E0CD
:101B10006B1709F4D9C0EDE16E1709F4D5C0D701F0
:101B200057968D919C91019709F09CC0452B81F4AB
:101B3000F701C488D588C114D10451F482899389EE
:101B4000019609F4A6C0938B828BF701C288D388D3
:101B500084EF870D8930B0F5D7011A964D915D91CC
:101B60006D917C911D9716968D919D910D90BC91D4
:101B7000A02D84179507A607B70710F4DB01CA014B
:101B80001C012D01E2E42E0E311C411C511C0E944F
:101B9000CE04A2019101261B370B480B590BDA0129
:101BA000C901B7FD7BC0C7010E94A1080E94CE04F5
:101BB000A2019101261B370B480B590BDA01C90111
:101BC000B7FFF1CF4801B5E08B0E911CA114B10411
:101BD00019F485E0882E912C7982DC24CD24DC2434
:101BE000DB82CA82902F812F9D838C83D701ED9158
:101BF000FC9180819181DC01ED91FC910280F38167
:101C0000E02D45E050E0BE016F5F7F4F199560E029
:101C100070E0CB010E949B04772009F448C00115B5
:101C2000110509F444C0D701ED91FC9180819181A7
:101C3000DC01ED91FC910280F381E02DA801B5015A
:101C400019950B5F1F4F60E070E0CB010E949B0471
:101C50008016910679F1F701108E178A0190F081B4
:101C6000E02D12820F900F900F900F900F90DF9148
:101C7000CF911F910F91FF90EF90DF90CF90BF9089
:101C8000AF909F908F907F905F904F903F902F905C
:101C9000089581E090E0938B828B57CFD7015696C1
:101CA0008C9181118FCFC7010E94A1088BCF05E0D5
:101CB00010E0CECF0E94CE04D7011A966D937D938B
:101CC0008D939C931D97CECFC114D10409F07ACF88
:101CD0002FCFEF92FF920F931F93CF93DF93CDB748
:101CE000DEB7C650D4400FB6F894DEBF0FBECDBFEE
:101CF0008C01CE010196CF5FDB4F99838883C15061
:101D0000D440CD5FDB4F19821882C350D44080E0AD
:101D100094E0CB5FDB4F99838883C550D4406DE658
:101D200072E0CE018F5F9B4F0E94540862E070E02A
:101D3000CE018F5F9B4F0E947C08B801CE018F5F60
:101D40009B4F0E947C08CD5FDB4F08811981C350F7
:101D5000D44001501109CF5FDB4F28813981C15038
:101D6000D440F12CE12C50E040E064E18EE896E0B4
:101D70000E94620DCA5FDB4F0FB6F894DEBF0FBE44
:101D8000CDBFDF91CF911F910F91FF90EF900895FC
:101D90008091DD029091DE020C94690E1F920F92E9
:101DA0000FB60F9211242F933F938F939F93AF936E
:101DB000BF938091E7029091E802A091E902B0916F
:101DC000EA023091E60223E0230F2D3758F5019601
:101DD000A11DB11D2093E6028093E7029093E802D3
:101DE000A093E902B093EA028091EB029091EC0299
:101DF000A091ED02B091EE020196A11DB11D80935C
:101E0000EB029093EC02A093ED02B093EE02BF912F
:101E1000AF919F918F913F912F910F900FBE0F9097
:101E20001F90189526E8230F0296A11DB11DD2CF51
:101E30001F920F920FB60F9211240BB60F922F9391
:101E40003F934F935F936F937F938F939F93AF9342
:101E5000BF93EF93FF938FEE92E00E94BF05FF9137
:101E6000EF91BF91AF919F918F917F916F915F9112
:101E70004F913F912F910F900BBE0F900FBE0F907F
:101E80001F9018951F920F920FB60F9211240BB648
:101E90000F922F938F939F93EF93FF93E091FF0205
:101EA000F09100038081E0910503F091060382FD2B
:101EB0001DC09081809108038F5F8F73209109036B
:101EC000821741F0E0910803F0E0E151FD4F958F5A
:101ED00080930803FF91EF919F918F912F910F9025
:101EE0000BBE0F900FBE0F901F9018958081F2CF00
:101EF0001F920F920FB60F9211240BB60F922F93D1
:101F00003F934F935F936F937F938F939F93AF9381
:101F1000BF93EF93FF938CE893E00E94BF05FF917E
:101F2000EF91BF91AF919F918F917F916F915F9151
:101F30004F913F912F910F900BBE0F900FBE0F90BE
:101F40001F9018951F920F920FB60F9211240BB687
:101F50000F922F938F939F93EF93FF93E0919C03A6
:101F6000F0919D038081E091A203F091A30382FD93
:101F70001DC090818091A5038F5F8F732091A60370
:101F8000821741F0E091A503F0E0E457FC4F958FF4
:101F90008093A503FF91EF919F918F912F910F90C7
:101FA0000BBE0F900FBE0F901F9018958081F2CF3F
:101FB0001F920F920FB60F9211240BB60F922F9310
:101FC0003F934F935F936F937F938F939F93AF93C1
:101FD000BF93EF93FF9348E251E064E271E090E039
:101FE00080E00E947B06FF91EF91BF91AF919F919E
:101FF0008F917F916F915F914F913F912F910F90B2
:102000000BBE0F900FBE0F901F9018951F920F924E
:102010000FB60F9211240BB60F922F933F934F934D
:102020005F936F937F938F939F93AF93BF93EF9340
:10203000FF9348EA50E064EA70E083E090E00E9499
:102040007B06FF91EF91BF91AF919F918F917F910F
:102050006F915F914F913F912F910F900BBE0F9019
:102060000FBE0F901F9018951F920F920FB60F92F0
:1020700011240BB60F922F933F934F935F936F935F
:102080007F938F939F93AF93BF93EF93FF9348E911
:1020900050E064E970E082E090E00E947B06FF91EE
:1020A000EF91BF91AF919F918F917F916F915F91D0
:1020B0004F913F912F910F900BBE0F900FBE0F903D
:1020C0001F9018951F920F920FB60F9211240BB606
:1020D0000F922F933F934F935F936F937F938F93C1
:1020E0009F93AF93BF93EF93FF9348E850E064E86A
:1020F00070E081E090E00E947B06FF91EF91BF913C
:10210000AF919F918F917F916F915F914F913F918F
:102110002F910F900BBE0F900FBE0F901F90189530
:102120001F920F920FB60F9211240F900FBE0F90B7
:102130001F901895DC01ED91FC911197309761F09B
:1021400012962D913C911397E217F30728F4019012
:102150000020E9F7ED93FC930895FC0180819181C3
:10216000009739F0228133818217930710F40C9481
:10217000021890E080E00895CF92DF92EF92FF92F4
:102180000F931F93CF93DF93CDB7DEB7C75AD10913
:102190000FB6F894DEBF0FBECDBF6C0147E650E02E
:1021A00068EB71E0CE0101960E942018CE0188599B
:1021B0009F4F7C0107E610E09E012F5F3F4F50E0EC
:1021C00040E061E1C6010E94620DC955DF4F0FB6C4
:1021D000F894DEBF0FBECDBFDF91CF911F910F915D
:1021E000FF90EF90DF90CF9008951092F20210923E
:1021F000F10248EE53E060E070E04093F302509348
:10220000F4026093F5027093F6028EE392E09093ED
:10221000F0028093EF0225E331E03093FC0220933B
:10222000FB0224E331E03093FE022093FD0220E321
:1022300031E0309300032093FF0221E331E030933B
:1022400002032093010322E331E03093040320933F
:10225000030326E331E03093060320930503109235
:1022600008031092090310920A0310920B031092B4
:102270008F0310928E0340939003509391036093C9
:1022800092037093930390938D0380938C0385EC5A
:1022900090E0909399038093980384EC90E090935E
:1022A0009B0380939A0380EC90E090939D0380932E
:1022B0009C0381EC90E090939F0380939E0382ECBB
:1022C00090E09093A1038093A00386EC90E090931C
:1022D000A3038093A2031092A5031092A603109269
:1022E000A7031092A8031092A8061092A7061092B6
:1022F000A90687EA96E090938F0680938E06109247
:1023000091061092900610929306109292061092E7
:1023100094061092950610929606109297061092C7
:1023200098061092990610929A0610929B061092A7
:102330009C0610929D0610929E0610929F06109287
:10234000A1061092A0061092A3061092A206109267
:10235000A4061092A6061092A5068FEF9FEF909309
:102360008D0680938C061092BF041092C3041092C5
:10237000C2041092C40480E592E09093BE0480935E
:10238000BD04E9EDF4E010821482138215823696C2
:1023900085E0E531F807B9F784E292E090932005F3
:1023A00080931F0581E292E090932205809321059E
:1023B00084E08093230583E08093240588E292E003
:1023C00090931E0580931D058AE090E0909326056A
:1023D0008093250584EF91E090932805809327054D
:1023E00010922B0510922A051092190510921A05C9
:1023F00010921B0510921C05109229058091B904BA
:10240000803398F491E0980F9093B9048093BA04C4
:1024100090E0FC01EE0FFF1FE80FF91FE75DFB4F97
:1024200088EB9BE09283818308958FEF8093BA04B9
:102430000895789484B5826084BD84B5816084BD3C
:1024400085B5826085BD85B5816085BD80916E0052
:10245000816080936E001092810080918100826083
:1024600080938100809181008160809381008091C0
:1024700080008160809380008091B10084608093AF
:10248000B1008091B00081608093B0008091910094
:10249000826080939100809191008160809391008F
:1024A000809190008160809390008091A100826073
:1024B0008093A1008091A10081608093A100809110
:1024C000A00081608093A0008091210182608093B0
:1024D000210180912101816080932101809120015F
:1024E00081608093200180917A00846080937A00DB
:1024F00080917A00826080937A0080917A00816076
:1025000080937A0080917A00806880937A0010929C
:10251000C100E0919C03F0919D0382E08083E091F3
:102520009803F09199031082E0919A03F0919B0334
:102530008FEC80831092A403E091A003F091A1039B
:1025400086E08083E0919E03F0919F03808180610B
:102550008083E0919E03F0919F0380818860808357
:10256000E0919E03F0919F03808180688083E091D9
:102570009E03F0919F0380818F7D808380E092E0B5
:1025800090939106809390060E94CE04DC01CB01CB
:1025900088589341A109B1098093980690939906B0
:1025A000A0939A06B0939B06809394069093950609
:1025B000A0939606B093970680939C0690939D06F1
:1025C000A0939E06B0939F06E0918E06F0918F0631
:1025D0008CE893E091838083E0918E06F0918F06E2
:1025E00012821092A6061092A5060E94CE046B01DC
:1025F0007C018091A5069091A606019781F00E942A
:10260000CE046C197D098E099F09603576448105D9
:10261000910528F48EE896E00E94A108EACF809107
:10262000A5069091A6060197B9F680918C06909127
:102630008D0697FF21C00E94CE04ECE2F5E050E049
:1026400040E026E1249FD001259FB00D1124A45D18
:10265000BA4FED01322F19923A95E9F760837183F1
:10266000828393834F5F5F4F76964031510551F7D8
:1026700010928D0610928C0680918C0690918D069A
:102680004097B4F5ECE2F5E090E080E024813581FC
:10269000232B09F070C126813781232B09F06BC1F0
:1026A00026E1289FE001299FD00D1124C45DDA4F57
:1026B00088EE93E0A0E0B0E08B879C87AD87BE8773
:1026C00088EC9EE09D838C831A86188A1F8681E0A1
:1026D0008B8B0E94CE04688379838A839B8380914D
:1026E0008C0690918D06019690938D0680938C06B2
:1026F000E091FF02F091000382E08083E091FB0211
:10270000F091FC021082E091FD02F091FE028DEA50
:10271000808310920703E0910303F091040386E0A5
:102720008083E0910103F0910203808180618083C6
:10273000E0910103F0910203808188608083E09141
:102740000103F0910203808180688083E09101039E
:10275000F091020380818F7D80838091BA04803361
:1027600008F052C061E085E00E941D048091BA0427
:10277000282F30E0F901EE0FFF1FE20FF31FE75D96
:10278000FB4F9081907C956090831092BB041092D7
:10279000BC042CE0622F0E94D918829FB001112442
:1027A00030E020E0AB01420F531FFA01EE0FFF1F94
:1027B000E40FF51FE75DFB4F908196FD17C02F5F7B
:1027C0003F4F2C30310571F7813009F0DBC010929A
:1027D000800082E080938100109285001092840036
:1027E000B19A80916F00826080936F00E091BA048B
:1027F0008E2F90E0FC01EE0FFF1FE80FF91FE75D41
:10280000FB4F80818064808390E080E00E94D7024B
:1028100060E083E40E941D0460E086E30E941D04E2
:1028200061E086E00E941D0461E083E00E941D04D7
:1028300061E084E00E941D0461E081E20E941D04C9
:1028400022242394312C86E30E9459049C01990F81
:10285000440B550B2150310941095109A4E6B0E060
:102860000E9485182AEA32E040E050E00E94661893
:102870003093E5022093E402273431050CF4AEC016
:1028800060E081E20E94EF031092E3021092E20204
:1028900083E40E94590424E630E0DC010E94ED1834
:1028A0002CEF33E040E050E00E9466183093DE02E7
:1028B0002093DD0280E792E00E9477078091E40296
:1028C0009091E5020E9488070E94840787E892E0C1
:1028D0000E9477078091DF029091E0020E948807B2
:1028E0000E94840780EA92E00E9477078091E202CA
:1028F0009091E3020E9488070E94840781EC92E095
:102900000E9477078091DD029091DE020E94880785
:102910000E94840781E0809329050E94CE040091E3
:10292000190510911A0520911B0530911C05AB016A
:10293000BC01401B510B620B730B809125059091DC
:102940002605B0E0A0E084179507A607B70708F0B2
:10295000F6C1C0E080912305C81708F051C0E0918E
:102960001F05F0912005EC0FF11D62E080810E94AF
:102970001D04CF5FEFCF019676968031910509F067
:1029800085CEB6CE823061F4109290008093910093
:10299000109295001092940088BB8093710026CF0E
:1029A000833069F41092A00082E08093A10010921D
:1029B000A5001092A40089BB8093720017CF8111EB
:1029C00015CF1092200182E0809321011092250101
:1029D000109224018ABB8093730008CF8091E1029A
:1029E000882309F455CF61E081E20E94EF038091D2
:1029F000DF029091E0029093E3028093E20248CFDD
:102A0000B12C80912405B81608F061C00B2D10E0A0
:102A1000E0912105F0912205E00FF11F61E0808136
:102A20000E941D04E0912105F0912205E00FF11FA5
:102A300060E080810E94EF0381E090E0A0E0B0E0E0
:102A40000B2C04C0880F991FAA1FBB1F0A94D2F732
:102A50006C017C01E094F094A12C80912305A816D0
:102A6000F8F4CA2DD0E0E0911F05F0912005EC0F9D
:102A7000FD1F80810E94C6032496CC0FDD1FC35426
:102A8000DB4F892B41F4888199818C299D29998379
:102A90008883A394E2CF888199818E219F21F7CFEB
:102AA000E0912105F0912205E00FF11F61E08081A6
:102AB0000E94EF038091210590912205080F191FB4
:102AC00060E0D8018C910E941D04B3949ACF2DEB45
:102AD000C22E24E0D22E89EF94E0E6012F8D38A19A
:102AE000232B31F41C8EEFEFFFEFFE8FED8F19A239
:102AF00026968C179D0791F710E0809123051817F3
:102B000008F053C000E0E12EF12CEE0CFF1C970101
:102B10002B533B4F790120912405021708F043C045
:102B2000D7016D917C91002E02C0769567950A942D
:102B3000E2F7129F90011124200F311DEDEBF4E01C
:102B400080E0458D568D2417350709F434C18F5F19
:102B500036968A30B1F760FF24C0EDEBF4E090E0E8
:102B600080E0448D411118C0E0911D05F0911E05D3
:102B7000E20FF31F4081B6E0B89FF001B99FF00D5E
:102B80001124E354FB4F448F368F258F10A2178EEC
:102B900061E00E94DA0405C0019636968A309105FC
:102BA00001F70F5FB8CF1F5FA8CF10E0F60181A13A
:102BB0008111182FF6E0CF0ED11CCC15DD05B1F731
:102BC0000E94CE046093190570931A0580931B052B
:102BD00090931C05112309F4B2C08091DE04882370
:102BE00009F4ADC08091DC049091DD04019709F0F7
:102BF000A6C08091D9048111A5C08EE896E00E94FC
:102C0000A1080E94CE042B013C010CE215E0E80172
:102C10001D8A1C8A8C819D81892B21F48E819F8144
:102C2000892B71F188809980AA80BB80C301B20191
:102C3000681979098A099B09CB84DC84ED84FE84B8
:102C40006C157D058E059F05D8F0A70196010E94A1
:102C50009818C701B6010E94C918860E971EA81EB3
:102C6000B91E88829982AA82BB828B89882341F00F
:102C70002F8538892115310509F084C03D8A2C8AB9
:102C800066968CE896E08C179D0711F6D0E0C0E0C0
:102C900086E1F82ED80154968D919C915597892BF9
:102CA000F1F11A968C911A97882309F47FC0169631
:102CB000ED91FC91179718968D919C911995F801BB
:102CC00084899589029759F580918C0690918D069B
:102CD000892B29F184819581892B21F48681978123
:102CE000892BE9F0FC9EF001FD9EF00D1124E45DBE
:102CF000FA4FDF012F2D1D922A95E9F70E94CE048D
:102D0000D8016D937D938D939C93139780918C063E
:102D100090918D06019790938D0680938C06219655
:102D20000A5E1F4FC031D10509F0B4CF60E971E0F0
:102D300080E090E00E949B040E944E0684CD109299
:102D400029055BCF8A32C1F48091DC02882379F0B7
:102D500061E086E00E94EF0364EF71E080E090E0C4
:102D60000E949B0460E086E00E94EF0346CF8AE564
:102D700090E00E94D70241CF833209F03ECF90E02D
:102D800080E0F7CF89899A898217930708F078CF76
:102D90003D8A2C8A01969A8B898B8217930708F4B7
:102DA0006FCF22E030E03D8B2C8B6ACF1496ED91F3
:102DB000FC91199584CF6170ECCE0F931F93CF9344
:102DC000DF938230910510F482E090E0E091AC0650
:102DD000F091AD0630E020E0B0E0A0E0309799F44B
:102DE0002115310509F44AC0281B390B243031055F
:102DF000D8F58A819B816115710589F1FB01938367
:102E00008283FE0111C040815181028113814817E4
:102E10005907E0F04817590799F4109761F0129696
:102E20000C93129713961C933296CF01DF91CF919A
:102E30001F910F9108950093AC061093AD06F4CF47
:102E40002115310551F04217530738F0A901DB0174
:102E50009A01BD01DF01F801C1CFEF01F9CF9093D5
:102E6000AD068093AC06CDCFFE01E20FF31F819338
:102E700091932250310939832883D7CF2091AA0614
:102E80003091AB06232B41F420913602309137026A
:102E90003093AB062093AA0620913402309135027C
:102EA0002115310541F42DB73EB7409138025091BC
:102EB0003902241B350BE091AA06F091AB06E2170C
:102EC000F307A0F42E1B3F0B2817390778F0AC014D
:102ED0004E5F5F4F2417350748F04E0F5F1F50932A
:102EE000AB064093AA06819391939FCFF0E0E0E078
:102EF0009CCFCF93DF930097E9F0FC0132971382C8
:102F00001282A091AC06B091AD06ED0130E020E058
:102F10001097A1F420813181820F931F2091AA067E
:102F20003091AB062817390709F061C0F093AB0662
:102F3000E093AA06DF91CF910895EA01CE17DF074B
:102F4000E8F54A815B819E0141155105B1F7E90120
:102F5000FB83EA8349915991C40FD51FEC17FD07F4
:102F600061F4808191810296840F951FE901998314
:102F70008883828193819B838A83F0E0E0E01296CC
:102F80008D919C9113970097B9F52D913C911197D4
:102F9000CD010296820F931F2091AA063091AB06B5
:102FA0002817390739F6309751F51092AD0610926F
:102FB000AC06B093AB06A093AA06BCCFD383C28362
:102FC00040815181840F951FC817D90761F44E5F66
:102FD0005F4F88819981480F591F518340838A81AF
:102FE0009B81938382832115310509F0B0CFF09343
:102FF000AD06E093AC069ECFFD01DC01C0CF13828D
:103000001282D7CFFC0188279927E894219120329A
:10301000E9F3293010F02E30C8F32B3241F02D3275
:1030200039F4689404C00E943418820F911D2191D4
:1030300020532A30C0F31EF4909581959F4F089538
:10304000FB01DC0102C005900D9241505040D8F7C1
:103050000895BB274A3031F4992322F4BDE29095BC
:1030600081959F4F0C943D187AE0979F902D879FF4
:10307000802D910D11240895BB27FB015527AA2708
:10308000880F991FAA1FA41710F0A41B83955051F5
:10309000B9F7A05DAA3308F0A95DA193009779F76D
:1030A000B111B1931192CB010C945618DC01FC01C3
:1030B000672F71917723E1F7329704C07C916D936C
:1030C00070836291AE17BF07C8F30895052E97FB72
:1030D0001EF400940E947D1857FD07D00E94981896
:1030E00007FC03D04EF40C947D1850954095309514
:1030F00021953F4F4F4F5F4F089590958095709564
:1031000061957F4F8F4F9F4F08950E94BA18A59FDA
:10311000900DB49F900DA49F800D911D11240895D2
:10312000B7FF0C9485180E948518821B930B089595
:10313000A1E21A2EAA1BBB1BFD010DC0AA1FBB1FBB
:10314000EE1FFF1FA217B307E407F50720F0A21B2D
:10315000B30BE40BF50B661F771F881F991F1A949A
:1031600069F760957095809590959B01AC01BD01C4
:10317000CF010895A29FB001B39FC001A39F700D1E
:10318000811D1124911DB29F700D811D1124911D6F
:103190000895DB018F939F930E948518BF91AF9193
:1031A000A29F800D911DA39F900DB29F900D1124A1
:1031B0000895991B79E004C0991F961708F0961B93
:1031C000881F7A95C9F780950895EE0FFF1F881F15
:1031D0008BBF0790F691E02D19940E94BA18B7FFA3
:1031E0000895821B930B0895FB01DC0102C001903E
:1031F0000D9241505040D8F70895FB01DC018D91AC
:10320000019080190110D9F3990B0895FB01DC019D
:103210004150504048F001900D920020C9F701C084
:0E3220001D9241505040E0F70895F894FFCF02
:10322E00665757784A2D63327273436D46637768DB
:10323E007862667837594A6455432D444C62364F4E
:10324E0000161718191A1B1C31323334353637381D
:10325E00392A30230000AE06800000000000E10590
:10326E0041056E052E069F057D05910500000000A7
:10327E0036053A053E050D0A00696E006F7574003D
:10328E0070776D0070750064770061770076770057
:10329E006F757473696465206C69676874206973EF
:1032AE002D3E2020202000676976656E20636172B6
:1032BE00206C696768742069732D3E2020202000E1
:1032CE0063757272656E7420636172206C696768D3
:1032DE00742076616C75652069732D3E2020202048
:1032EE000077617465722076616C75652069732D47
:0632FE003E20202020000C
:00000001FF
