:100000000C9498020C94C9020C94C9020C94C90275
:100010000C94C9020C94C9020C94C9020C94C90234
:100020000C94C9020C94A80F0C94A80F0C94A80F60
:100030000C94C9020C94C9020C94C9020C94C90214
:100040000C94C9020C947A0F0C94C9020C94C90246
:100050000C94C9020C94C9020C94C9020C94E60DCC
:100060000C94C9020C94BA0E0C94900E0C94C90214
:100070000C94C9020C94C9020C94C9020C94C902D4
:100080000C944C0F0C94C9020C94C9020C94C90234
:100090000C945A0E0C94300E0C94C9020C94C902A4
:1000A0000C94C9020C94C9020C941E0F0C94C90242
:1000B0000C94C9020C94C9020C94C9020C94F00E61
:1000C0000C94C9020C94C9020C94C9020C94C90284
:1000D0000C94C9020C94C9020C94C9020C94C90274
:1000E0000C94C9020C9443070C949E030C94710366
:1000F0000C949A030C94AC030C947C030C94E20AC9
:100100000C94910A0C94CC020C94890A0C940F0B59
:100110000C94190B0C94B40A0C943B050C94AA0A89
:100120000C949B040C94FB0A0C94CB020C94880551
:100130000C94A7030C946D030C94960A0C94E00D98
:100140000C94D7040C9467030C94C8040C94230BF0
:100150000C94C40A0C94D80A0C9486030C9479036A
:100160000C9490030C94A2030C948C030C94A00A9E
:100170000C94F10A0C94050B0C9494030C94BC0A97
:100180000C9475030C94EB040C94CE0A0C94F904B3
:100190000C9482030C94A8030C940D10626C6E6B8B
:1001A000696E660076657200312E312E3000682D42
:1001B0006265617400343500627566662D696E0093
:1001C00031303234006465760041726475696E6F57
:1001D000204D656761006370750041546D6567610E
:1001E0003235363000636F6E0053747265616D0096
:1001F0006275696C64004A616E20203320323032AF
:10020000332031373A33303A3437000000000021D0
:1002100000240027002A002D0030003300010100D7
:1002200000040107010A0100002200250028002B1C
:10023000002E003100340002010000050108010B0E
:1002400001000020002300260029002C002F00328E
:10025000000001000003010601090105050505076D
:100260000508080808020202020A0A080804040431
:10027000040101010101010101030303030303035D
:1002800003040707070C0C0C0C0C0C0C0C020202EC
:100290000206060606060606060B0B0B0B0B0B0BDF
:1002A0000B0102102020080810204010204080027E
:1002B00001020108040201010204081020408080AC
:1002C0004020100804020180040201804020100830
:1002D0000402010804020101020408102040800108
:1002E0000204081020408000000A0B02090C0D0EC9
:1002F00008070304010000000000000000000000E7
:1003000000000000000000000000000000000000ED
:1003100000000012111000000000000000000000AA
:1003200000000000000000000000000000CC02CC33
:1003300002CC02CC02CC02CC02CC02CC02CC02CC4D
:1003400002CC02CC02CC02CC02CC02CC02CC02CC3D
:1003500002CC02CC02CC02CC02CC02CC02CC02CC2D
:1003600002CC02CC02CC02CC02CC02CC02CC02CC1D
:1003700002CC02CC02CC02CC02CC02CC02CC02CC0D
:1003800002CC02CC02CC02CC02CC02CC02CC02CCFD
:1003900002CC02CC02CC02CC02CC02CC02CC02CCED
:1003A00002CC02CC02CC02CC02CC02CC02CC02CCDD
:1003B00002CC02CC02CC02CC02CC02CC02CC02CCCD
:1003C00002CC02CC02CC02CC02CC02CC02CC02CCBD
:1003D00002CC02CC02CC02CC02CC02CC02CC02CCAD
:1003E00002CC02CC02CC02CC02CC02CC02CC02CC9D
:1003F00002CC02CC02CC02CC02CC02CC02CC02CC8D
:1004000002CC02CC02CC02CC02CC02CC02CC02CC7C
:1004100002CC02CC02CC02CC02CC02CC02CC02CC6C
:1004200002CC02CC02CC02CC02CC02CC02CB02CB5E
:10043000024307CB02CB02CB02CB02CB02CB02CBD7
:1004400002CB02CB02CB02CB02CB02CB02CB02CB44
:1004500002CB02CB02CB02CB02CB02CB02CB02CB34
:1004600002CB02CB02CB02CB02CB02CB02CB02CB24
:1004700002CB02CB02CB02CB02CB02CB02CB02CB14
:1004800002CB02CB02CB02CB02CB02CB02CB02CB04
:1004900002CB02CB02CB02CB02CB02CB02CB02CBF4
:1004A00002CB02CB02CB02CB02CB02CB02CB02CBE4
:1004B00002CB02CB02CB02CB02CB02CB02CB02CBD4
:1004C00002CB02CB02CB02CB02CB02CB02CB02CBC4
:1004D00002CB02CB02CB02CB02CB02CB02CB02CBB4
:1004E00002CB02CB02CB02CB02CB02CB02CB02CBA4
:1004F00002CB02CB02CB02CB02CB02CB02CB02CB94
:1005000002CB02CB02CB02CB02CB02CB02CB02CB83
:1005100002CB02CB02CB02CB02CB02CB02CB02CB73
:1005200002CB02CB02CB02CB02CB02CB02000D10DE
:1005300011241FBECFEFD1E2DEBFCDBF00E00CBF64
:1005400012E0A0E0B2E0ECEEFCE200E00BBF02C083
:1005500007900D92AA37B107D9F725E0AAE7B2E0D4
:1005600001C01D92AD3DB207E1F712E0C8E9D2E04B
:1005700000E006C021970109802FFE010E94441669
:10058000C739D10780E00807A9F70E94E6100C944C
:1005900074160C94000008950895CF92DF92EF92A4
:1005A000FF92DC01A03282E0B807D4F5A53BB1058B
:1005B00014F0A4EBB0E04091590428E830E0241B8B
:1005C000310947FD3395220F331F220F331F690175
:1005D000330FEE08FF0840915A0428E532E0241B4F
:1005E000310947FD3395220F331F220F331F032E8E
:1005F000000C440B550B2C193D094E095F09B7FF40
:1006000002C0B0E0A0E00E94EF1524EB30E040E033
:1006100050E00E94C515C20ED31EE41EF51ED60181
:10062000E0915804E03380F52091590488E890E087
:10063000821B910927FD9395880F991F880F991F99
:10064000A817B90784F020915A0488E592E0821B2C
:10065000910927FD9395880F991F880F991FA81757
:10066000B9070CF4CD010297880F991F4FB7F89482
:100670002E2F30E0F901EE0FFF1FE20FF31FE953B9
:10068000FC4F928381834FBFFF90EF90DF90CF901C
:1006900008958150823108F05AC0E82FF0E0882791
:1006A000EB5AFC4F8F4F0C94441675037903670384
:1006B0006D037103A7037C03820386038C039003FD
:1006C00094039A039E03A703A203A803AC0380919B
:1006D00080008F77809380000895809180008F7DC7
:1006E000F9CF80918000877FF5CF84B58F7784BD67
:1006F000089584B58F7DFBCF8091B0008F77809374
:10070000B00008958091B0008F7DF9CF8091900066
:100710008F77809390000895809190008F7DF9CF1E
:1007200080919000877FF5CF8091A0008F77809394
:10073000A00008958091A0008F7DF9CF8091A00046
:10074000877FF5CF809120018F77809320010895D6
:10075000809120018F7DF9CF80912001877FF5CF97
:100760001F93CF93DF93282F30E0F901E951FD4F1C
:100770008491F901EF55FD4FD491F901E55AFD4FF0
:10078000C491CC23A9F0162F81110E944903EC2FAC
:10079000F0E0EE0FFF1FE95DFD4FA591B4918FB71B
:1007A000F894EC91111108C0D095DE23DC938FBF33
:1007B000DF91CF911F910895DE2BF8CFCF93DF9378
:1007C00090E0FC01EF55FD4F2491855A9D4FFC01AF
:1007D00084918823C9F090E0880F991FFC01E35FA2
:1007E000FD4FA591B491FC01E95DFD4FC591D491F8
:1007F00061110DC09FB7F8948C91209582238C9342
:100800008881282328839FBFDF91CF91089562308C
:1008100051F49FB7F8943C91822F809583238C9359
:10082000E8812E2BEFCF8FB7F894EC912E2B2C93E1
:100830008FBFEACF863308F0865320917B00982F34
:100840009870277F922B90937B00877080648093B1
:100850007C0080917A00806480937A0080917A0095
:1008600086FDFCCF809178009091790008953FB784
:10087000F8948091890290918A02A0918B02B091A4
:100880008C0226B5A89B05C02F3F19F00196A11D2B
:10089000B11D3FBFBA2FA92F982F8827BC01CD01CA
:1008A000620F711D811D911D42E0660F771F881F29
:1008B000991F4A95D1F708958F929F92AF92BF9258
:1008C000CF92DF92EF92FF926B017C010E9437047E
:1008D0004B015C01C114D104E104F104B9F00E94A0
:1008E0003704681979098A099B09683E73408105B4
:1008F000910580F321E0C21AD108E108F10888EEE1
:10090000880E83E0981EA11CB11CE4CFFF90EF90ED
:10091000DF90CF90BF90AF909F908F9008952FB7AA
:10092000F89460918502709186028091870290917F
:1009300088022FBF0895AF92BF92CF92DF92EF92BD
:10094000FF920F931F93CF93DF936C017B018B0179
:10095000040F151FEB015E01AE18BF08C017D107C9
:1009600059F06991D601ED91FC910190F081E02D53
:10097000C6011995892B79F7C501DF91CF911F9198
:100980000F91FF90EF90DF90CF90BF90AF900895C0
:10099000FC01538D448D252F30E0842F90E0821B85
:1009A000930B541710F0CF96089501970895FC010A
:1009B000918D828D981761F0A28DAE0FBF2FB11D62
:1009C0005D968C91928D9F5F9F73928F90E00895BA
:1009D0008FEF9FEF0895FC01918D828D981731F074
:1009E000828DE80FF11D858D90E008958FEF9FEFC8
:1009F0000895FC01918D228D892F90E0805C9F4F9E
:100A0000821B91098F73992708958DE892E00E94C7
:100A1000F90421E0892B09F420E0822F08958AE26D
:100A200093E00E94F90421E0892B09F420E0822F51
:100A30000895FC01A48DA80FB92FB11DA35ABF4F73
:100A40002C91848D90E001968F739927848FA689CD
:100A5000B7892C93A089B1898C91837080648C9321
:100A6000938D848D981306C00288F389E02D8081D0
:100A70008F7D80830895EF92FF920F931F93CF9302
:100A8000DF93EC0181E0888F9B8D8C8D98131AC0C9
:100A9000E889F989808185FF15C09FB7F894EE89B0
:100AA000FF896083E889F98980818370806480830D
:100AB0009FBF81E090E0DF91CF911F910F91FF9058
:100AC000EF900895F62E0B8D10E00F5F1F4F0F7300
:100AD0001127E02E8C8D8E110CC00FB607FCFACFBB
:100AE000E889F989808185FFF5CFCE010E9419053B
:100AF000F1CFEB8DEC0FFD2FF11DE35AFF4FF0828C
:100B00009FB7F8940B8FEA89FB8980818062CFCFF1
:100B1000CF93DF93EC01888D8823B9F0AA89BB8934
:100B2000E889F9898C9185FD03C0808186FD0DC01F
:100B30000FB607FCF7CF8C9185FFF2CF808185FF40
:100B4000EDCFCE010E941905E9CFDF91CF91089535
:100B500080E090E0892B29F00E940F0581110E940E
:100B6000000080E090E0892B29F00E9405058111AA
:100B70000E94000080E090E0892B49F080E090E046
:100B8000892B29F00E94000081110E94000080E062
:100B900090E0892B49F080E090E0892B29F00E94B9
:100BA000000081110C9400000895AF92BF92CF9283
:100BB000DF92EF92FF920F931F93CF93DF936B011E
:100BC0007A01EC01C458DD4F28813CE0389F800158
:100BD000399F100D1124A0905704B12C27FF1FC07E
:100BE000FB011182108288818F5F88838881980140
:100BF000280F311D87FD3A95F6012A153B051CF497
:100C000088818C30C4F180819181049680349C4924
:100C100008F473C0F60180819181049670C08881C8
:100C20009801280F311D87FD3A952A153B05DCF602
:100C30008881A801480F511D87FD5A95FA01EE0FD2
:100C4000FF1FE40FF51FE953FC4F808186FFCBCFD8
:100C50008881F801E80FF11D87FDFA95CF01EE0FAD
:100C6000FF1FE80FF91FE953FC4F808160E08F738D
:100C70000E94B003B8CF808191812881A801420FE2
:100C8000511D27FD5A959A01FA01EE0FFF1FE20F41
:100C9000F31FE953FC4F21813281820F931FF7012B
:100CA0009183808388819801280F311D87FD3A95B3
:100CB000F901EE0FFF1FE20FF31FE953FC4F808194
:100CC00086FF22C08881080F111D87FD1A95F80143
:100CD000EE0FFF1FE00FF11FE953FC4F808161E031
:100CE0008F73DF91CF911F910F91FF90EF90DF9065
:100CF000CF90BF90AF900C94B00380E49CE9F701D3
:100D0000918380838FEF8883DF91CF911F910F9123
:100D1000FF90EF90DF90CF90BF90AF9008958F92AB
:100D20009F92AF92BF92CF92DF92EF92FF920F937A
:100D30001F93CF93DF936C017B018B01040F151F71
:100D40000E948F044B015C01E701C017D107C8F472
:100D50000E948F04681979098A099B0960377741D5
:100D60008105910570F4D6018D919C91DC01ED9186
:100D7000FC910284F385E02D199597FDE6CF8993C8
:100D8000E4CFCE018E199F09DF91CF911F910F9172
:100D9000FF90EF90DF90CF90BF90AF909F908F909B
:100DA0000895FC0101900020E9F73197AF01481B3D
:100DB000590BBC018DE892E00C949B048F929F929A
:100DC000AF92BF920F931F93CF93DF93CDB7DEB750
:100DD000A1970FB6F894DEBF0FBECDBF19A2423067
:100DE00008F44AE08E010F5D1F4F842E912CB12C28
:100DF000A12CA50194010E94F715E62FB901CA01A3
:100E0000EA30F4F4E05DD801EE938D01232B242B1E
:100E1000252B79F790E080E0109719F0CD010E9422
:100E2000D106A1960FB6F894DEBF0FBECDBFDF91FD
:100E3000CF911F910F91BF90AF909F908F90089589
:100E4000E95CE1CFCF92DF92EF92FF92CF93DF93F5
:100E50006B017C016DE28DE892E00E943B05EC01A4
:100E600066277727CB016C197D098E099F094AE017
:100E70000E94DE068C0F9D1FDF91CF91FF90EF90B7
:100E8000DF90CF900895FB01808191810E946115D0
:100E9000909381028093800208950F931F93CF93C4
:100EA000DF93EC01FB0101900020E9F78F01061BA5
:100EB000170B8A819B81A801480F591F2C813D8106
:100EC0002417350768F028813981A801820F931F04
:100ED0000E9453164A815B81400F511F5B834A83F6
:100EE000DF91CF911F910F9108950F931F93CF938F
:100EF000DF93CDB7DEB762970FB6F894DEBF0FBEB3
:100F0000CDBF8C01CB014AE0BE016F5F7F4F0E94D5
:100F10008815BE016F5F7F4FC8010E944D07629622
:100F20000FB6F894DEBF0FBECDBFDF91CF911F91FA
:100F30000F9108953F924F925F926F927F928F929E
:100F40009F92AF92BF92CF92DF92EF92FF920F9358
:100F50001F93CF93DF93CDB7DEB7A1970FB6F89469
:100F6000DEBF0FBECDBF6C012DB73EB739A328A39E
:100F700060E070E0CB010E945C04D60157968D9131
:100F80009C915897B12C029709F4E8C356968C911E
:100F900056978F5F56968C93569754962D913C9109
:100FA0005597232B19F0BB24B394D1C38330D8F7C2
:100FB000ED91FC918281882309F4AEC3FE01319644
:100FC0003F01D601ED91FC9180819181DC01ED9191
:100FD000FC910084F185E02D1995181619060CF086
:100FE0009BC345E050E0BE01695E7F4FF601808102
:100FF00091810E948F06009721F3059709F04AC05E
:10100000888D998D982789279827998F888FEA8CC2
:10101000FB8CFE24EF24FE24FB8EEA8E892BD1F17B
:101020008F89811142C00E948F04D60116966D935C
:101030007D938D939C93199757962D913C9158973A
:101040004A8D5B8D232B61F5288D398D213031053B
:1010500039F549305105C1F0483C510519F044308B
:101060005105C1F4F60166877787808B918B21E06B
:1010700030E0308F278BC6010E94D40F60E070E013
:10108000CB010E945C049DCF83E090E058969C9336
:101090008E935797D601ED91FC911282B12C57C3D4
:1010A0004530510509F08DCFF5CFF6018081918152
:1010B000F1E0EF16F4E0FF0640F0D60158961C92DE
:1010C0001E925797FC0112827CCFADB6BEB6970137
:1010D0002F5F3F4F4DB75EB7421B530B0FB6F894CF
:1010E0005EBF0FBE4DBF0DB71EB70F5F1F4FA701ED
:1010F000B8010E948F068E159F0509F067C0EA8D22
:10110000FB8DE00FF11F10820E948F04D60116960E
:101110006D937D938D939C9319978F89813109F4F9
:10112000E6C228F58630B1F08F3009F485C08230F0
:1011300021F5F6018789908D892B61F421E030E05B
:10114000308F278BC6010E94D40F60E070E0CB0186
:101150000E945C04488D598DF12CE12C08EC10E0C4
:1011600030E020E060E0C6010E947A0C12C08D31B0
:1011700001F358F4843109F45FC0F601108E178A28
:101180000190F081E02D128204C0893241F0873352
:10119000A1F70FB6F894BEBE0FBEADBE12CF149627
:1011A0008D919C91892B39F480E490E00E943C144D
:1011B000F601958384838A8D9B8D800F911F1A83FE
:1011C00009839C838B830817190730F00FB6F894B6
:1011D000BEBE0FBEADBE5ECF40E450E0B801D6014A
:1011E00014968D919C910E946516D6011496ED91EE
:1011F000FC9117AEC3010E94B20FD601ED91FC9194
:101200001197128258961C921E9257970E948F0433
:10121000DC01CB0188589341A109B109F60182870D
:101220009387A487B58786839783A087B1878687AE
:101230009787A08BB18BADCF888D998DD6015596B0
:101240009C938E9354974A8C5B8C4801840C951C1C
:101250001D8F0C8F9F8E8E8E0815190508F05DC1AD
:10126000F801E080F180CE014C960E94B20FDC01C3
:101270008D919C918815990508F04FC18C8D9D8D9D
:10128000FC012081213459F401960E94611546E346
:10129000342E380E409744F033243A9405C0CE01E2
:1012A0004C960E94C50F382EF6E7EF16F2E7FF06C0
:1012B00009F4CEC140F531E6E31632E7F30609F44E
:1012C000EDC044E6E41642E7F40609F483C050E7B3
:1012D000E5165DE6F50609F0FEC18C8D9D8D88153D
:1012E000990508F01AC1FC012081213409F03FC0A2
:1012F00001960E94611536E3F32EF80E4097E4F153
:10130000FF24FA9439C084E6E81687E7F80609F462
:10131000AAC096E7E91697E7F90609F4B1C1A1E674
:10132000EA16A7E7FA0609F0D6C1CE014C960E944C
:10133000B20FDC018D919C918815990508F0EDC0E4
:1013400061E0832D0E94DE03CE014C960E94C50F02
:101350008C0161E0832D0E94DE030115110509F463
:1013600098C00F3F110509F0B2C061E093C0CE01F3
:101370004C960E94C50FF82ECE014C960E94B20FDB
:101380000C8D1D8D69E372E0C8010E945C1660E05F
:10139000892B79F06CE372E0C8010E945C16892BFE
:1013A00039F060E472E0C8010E945C16892B49F4B0
:1013B00061E08F2D0E94DE03CE014C960E94B20F99
:1013C0008CCF64E472E0C8010E945C16892BA1F7FF
:1013D00062E0EFCF7A8A698A1C8A1B8A20E130E0BA
:1013E0003E8B2D8B67E472E0CE0141960E944D0743
:1013F000032D10E0B801CE0141960E947507F80157
:10140000E951FD4F8491F801EF55FD4FF490055AD5
:101410001D4FF801049160E070E0002389F0811114
:101420000E944903E02FF0E0EE0FFF1FEF5BFD4F3E
:10143000A591B491EC91FE2261E070E009F460E0C6
:10144000CE0141960E9475070B891C890150110934
:1014500029893A89F12CE12C50E040E064E1C60191
:101460000E947A0C5AC0CE014C960E94B20FDC0149
:101470008D919C918815990508F04FC061E0832DEE
:101480000E94DE03CE014C960E94C50F61E0892BBD
:1014900009F460E0832D0E94B0033FC07A8A698A14
:1014A0001C8A1B8AE0E1F0E0FE8BED8B6AE472E0BF
:1014B000CE0141960E944D07632D70E0CE0141960A
:1014C0000E947507832D0E941A04BC01B9CFE32D39
:1014D000F0E0E951FD4FE491E150E23108F0B3C092
:1014E000F0E08827E958F54F8F4F0C944416890A8D
:1014F000910A960AA00AAA0A230BB40ABC0AC40AD3
:10150000CE0AD80AE20AF10AFB0A230B050B0F0BDD
:10151000190B84B5806884BD07BDF601158A148A4D
:1015200038CE84B5806284BD08BDF7CF809180003D
:101530008068809380001093890000938800EDCF2D
:101540008091800080628093800010938B000093D4
:101550008A00E3CF809180008860809380001093A0
:101560008D0000938C00D9CF8091B000806880936B
:10157000B0000093B300D1CF8091B000806280931F
:10158000B0000093B400C9CF809190008068809330
:1015900090001093990000939800BFCF8091900025
:1015A00080628093900010939B0000939A00B5CFC7
:1015B0008091900088608093900010939D0000932C
:1015C0009C00ABCF8091A00080688093A0008091A8
:1015D000A0008F7B8093A0001093A9000093A80027
:1015E0009CCF8091A00080628093A0001093AB00FC
:1015F0000093AA0092CF8091A00088608093A00001
:101600001093AD000093AC0088CF809120018068DA
:101610008093200110932901009328017ECF8091AF
:10162000200180628093200110932B0100932A01F6
:1016300074CF8091200188608093200110932D0148
:1016400000932C016ACF003811050CF08ECE21CF0B
:10165000398237FC62CFE32DF0E0EE0FFF1FE35D30
:10166000FC4F259134912115310509F456CFB2E094
:101670002C3C3B0709F451CFC301F90119954DCF1B
:10168000CE014C960E94B20F8C8D9D8D9C01201B2B
:10169000310B421A530A9A8389835C824B825E82A1
:1016A0004D82398A37FC39CFE32DF0E0EE0FFF1F72
:1016B000E35DFB4F259134912115310509F42DCFC0
:1016C000F2E02B3C3F0709F428CFB301CE0141964D
:1016D000F901199522CFD60154964D915C91F12CC8
:1016E000E12C02E010E030E020E060E0B8CE8A8D2E
:1016F0009B8D800F911F1A8309839C838B8308170E
:10170000190708F046CDC3010E94B20FD6015596C5
:101710001C921E9254973DCD0E948F042B013C01D8
:10172000F60100811181D8011296BC901297878929
:10173000908D8130910509F088C0B1102FC0468688
:101740005786608A718A108E178A12961C92D6016B
:1017500056968C915697815056968C938B2DE8A176
:10176000F9A10FB6F894FEBF0FBEEDBFA1960FB65C
:10177000F894DEBF0FBECDBFDF91CF911F910F91C7
:10178000FF90EF90DF90CF90BF90AF909F908F90A1
:101790007F906F905F904F903F90089586819781E2
:1017A000A085B185A3019201281B390B4A0B5B0B65
:1017B000DA01C901893136EF9307A105B10530F08F
:1017C000108E178AD80112961C9268CC893C9F4AC9
:1017D000A105B10598F4F60182859385A485B585A8
:1017E000A3019201281B390B4A0B5B0BDA01C901DB
:1017F000893C9F4AA105B10508F4D5CBF601868541
:101800009785A089B189A3019201281B390B4A0B46
:101810005B0BDA01C90181379741A105B10508F4D5
:10182000C2CBF12CE12C10E000E030E020E050E0F1
:1018300040E066E0C6010E947A0CD6011E964D92E9
:101840005D926D927C92519782CF892B09F0ABCB40
:1018500086859785A089B189481A590A6A0A7B0A40
:10186000BB2079F0F1E74F16F7E15F0661047104E0
:1018700008F499CBD80112961C92F601108E178AA3
:101880000DCCF9E84F16F3E15F066104710408F42A
:101890008ACBD8018D919C91DC01ED91FC91068061
:1018A000F781E02D199581E0F801828381E090E0D5
:1018B000D60153969C938E93529712962D913C91FC
:1018C000F90101900020E9F731978F01021B130BFA
:1018D000F12CE12C41E050E06DE1C6010E947A0C50
:1018E000F60182859385A485B58586879787A08B29
:1018F000B18B59CB2F923F924F925F927F928F92F2
:101900009F92AF92BF92CF92DF92EF92FF920F938E
:101910001F93CF93DF9300D01F921F92CDB7DEB7F6
:101920007C01762E6A015901DC01ED91FC918281E6
:10193000882309F4AFC0862F8D7F09F4DDC0B6E09F
:101940006B1709F4D9C0EDE16E1709F4D5C0D701C2
:1019500057968D919C91019709F09CC0452B81F47D
:10196000F701C488D588C114D10451F482899389C0
:10197000019609F4A6C0938B828BF701C288D388A5
:1019800084EF870D8930B0F5D7011A964D915D919E
:101990006D917C911D9716968D919D910D90BC91A6
:1019A000A02D84179507A607B70710F4DB01CA011D
:1019B0001C012D01E2E42E0E311C411C511C0E9421
:1019C0008F04A2019101261B370B480B590BDA013A
:1019D000C901B7FD7BC0C7010E949A070E948F040E
:1019E000A2019101261B370B480B590BDA01C901E3
:1019F000B7FFF1CF4801B5E08B0E911CA114B104E3
:101A000019F485E0882E912C7982DC24CD24DC2405
:101A1000DB82CA82902F812F9D838C83D701ED9129
:101A2000FC9180819181DC01ED91FC910280F38138
:101A3000E02D45E050E0BE016F5F7F4F199560E0FB
:101A400070E0CB010E945C04772009F448C00115C6
:101A5000110509F444C0D701ED91FC918081918179
:101A6000DC01ED91FC910280F381E02DA801B5012C
:101A700019950B5F1F4F60E070E0CB010E945C0482
:101A80008016910679F1F701108E178A0190F08186
:101A9000E02D12820F900F900F900F900F90DF911A
:101AA000CF911F910F91FF90EF90DF90CF90BF905B
:101AB000AF909F908F907F905F904F903F902F902E
:101AC000089581E090E0938B828B57CFD701569693
:101AD0008C9181118FCFC7010E949A078BCF05E0AF
:101AE00010E0CECF0E948F04D7011A966D937D939C
:101AF0008D939C931D97CECFC114D10409F07ACF5A
:101B00002FCFEF92FF920F931F93CF93DF93CDB719
:101B1000DEB7C650D4400FB6F894DEBF0FBECDBFBF
:101B20008C01CE010196CF5FDB4F99838883C15032
:101B3000D440CD5FDB4F19821882C350D44080E07F
:101B400094E0CB5FDB4F99838883C550D4406DE42C
:101B500072E0CE018F5F9B4F0E944D0761E070E005
:101B6000CE018F5F9B4F0E947507B801CE018F5F3A
:101B70009B4F0E947507CD5FDB4F08811981C350D1
:101B8000D44001501109CF5FDB4F28813981C1500A
:101B9000D440F12CE12C50E040E064E18DEB95E085
:101BA0000E947A0CCA5FDB4F0FB6F894DEBF0FBEFF
:101BB000CDBFDF91CF911F910F91FF90EF900895CE
:101BC00080918202909183020C94810D1F920F925A
:101BD0000FB60F9211242F933F938F939F93AF9340
:101BE000BF938091850290918602A0918702B09167
:101BF00088023091840223E0230F2D3758F5019697
:101C0000A11DB11D209384028093850290938602CA
:101C1000A0938702B09388028091890290918A02F2
:101C2000A0918B02B0918C020196A11DB11D8093F1
:101C3000890290938A02A0938B02B0938C02BF9189
:101C4000AF919F918F913F912F910F900FBE0F9069
:101C50001F90189526E8230F0296A11DB11DD2CF23
:101C60001F920F920FB60F9211240BB60F922F9363
:101C70003F934F935F936F937F938F939F93AF9314
:101C8000BF93EF93FF938DE892E00E941905FF91B7
:101C9000EF91BF91AF919F918F917F916F915F91E4
:101CA0004F913F912F910F900BBE0F900FBE0F9051
:101CB0001F9018951F920F920FB60F9211240BB61A
:101CC0000F922F938F939F93EF93FF93E0919D0239
:101CD000F0919E028081E091A302F091A40282FD26
:101CE0001DC090818091A6028F5F8F732091A70203
:101CF000821741F0E091A602F0E0E357FD4F958F87
:101D00008093A602FF91EF919F918F912F910F9059
:101D10000BBE0F900FBE0F901F9018958081F2CFD1
:101D20001F920F920FB60F9211240BB60F922F93A2
:101D30003F934F935F936F937F938F939F93AF9353
:101D4000BF93EF93FF938AE293E00E941905FF91FE
:101D5000EF91BF91AF919F918F917F916F915F9123
:101D60004F913F912F910F900BBE0F900FBE0F9090
:101D70001F9018951F920F920FB60F9211240BB659
:101D80000F922F938F939F93EF93FF93E0913A03DA
:101D9000F0913B038081E0914003F091410382FD8B
:101DA0001DC09081809143038F5F8F732091440306
:101DB000821741F0E0914303F0E0E65DFC4F958F20
:101DC00080934303FF91EF919F918F912F910F90FB
:101DD0000BBE0F900FBE0F901F9018958081F2CF11
:101DE0001F920F920FB60F9211240BB60F922F93E2
:101DF0003F934F935F936F937F938F939F93AF9393
:101E0000BF93EF93FF9348E251E064E271E090E00A
:101E100080E00E94D505FF91EF91BF91AF919F9116
:101E20008F917F916F915F914F913F912F910F9083
:101E30000BBE0F900FBE0F901F9018951F920F9220
:101E40000FB60F9211240BB60F922F933F934F931F
:101E50005F936F937F938F939F93AF93BF93EF9312
:101E6000FF9348EA50E064EA70E083E090E00E946B
:101E7000D505FF91EF91BF91AF919F918F917F9188
:101E80006F915F914F913F912F910F900BBE0F90EB
:101E90000FBE0F901F9018951F920F920FB60F92C2
:101EA00011240BB60F922F933F934F935F936F9331
:101EB0007F938F939F93AF93BF93EF93FF9348E9E3
:101EC00050E064E970E082E090E00E94D505FF9167
:101ED000EF91BF91AF919F918F917F916F915F91A2
:101EE0004F913F912F910F900BBE0F900FBE0F900F
:101EF0001F9018951F920F920FB60F9211240BB6D8
:101F00000F922F933F934F935F936F937F938F9392
:101F10009F93AF93BF93EF93FF9348E850E064E83B
:101F200070E081E090E00E94D505FF91EF91BF91B4
:101F3000AF919F918F917F916F915F914F913F9161
:101F40002F910F900BBE0F900FBE0F901F90189502
:101F50001F920F920FB60F9211240F900FBE0F9089
:101F60001F901895DC01ED91FC911197309761F06D
:101F700012962D913C911397E217F30728F40190E4
:101F80000020E9F7ED93FC930895FC018081918195
:101F9000009739F0228133818217930710F40C9453
:101FA000611590E080E00895CF92DF92EF92FF926A
:101FB0000F931F93CF93DF93CDB7DEB7C75AD109E5
:101FC0000FB6F894DEBF0FBECDBF6C0147E650E000
:101FD00064EA71E0CE0101960E947F15CE01885916
:101FE0009F4F7C0107E610E09E012F5F3F4F50E0BE
:101FF00040E061E1C6010E947A0CC955DF4F0FB67F
:10200000F894DEBF0FBECDBFDF91CF911F910F912E
:10201000FF90EF90DF90CF90089510929002109271
:102020008F0248EE53E060E070E0409391025093DD
:10203000920260939302709394028BE292E09093E9
:102040008E0280938D022DEC30E030939A02209323
:1020500099022CEC30E030939C0220939B0228ECF8
:1020600030E030939E0220939D0229EC30E03093C3
:10207000A00220939F022AEC30E03093A20220932A
:10208000A1022EEC30E03093A4022093A302109220
:10209000A6021092A7021092A8021092A902109212
:1020A0002D0310922C0340932E0350932F03609323
:1020B00030037093310390932B0380932A0385ECB4
:1020C00090E0909337038093360384EC90E09093F4
:1020D00039038093380380EC90E090933B03809326
:1020E0003A0381EC90E090933D0380933C0382ECB3
:1020F00090E090933F0380933E0386EC90E09093B2
:1021000041038093400310924303109244031092C2
:102110004503109246031092D7051092D6051092EF
:10212000D80586ED95E09093BE058093BD0510928D
:10213000C0051092BF051092C2051092C105109201
:10214000C3051092C4051092C5051092C6051092E1
:10215000C7051092C8051092C9051092CA051092C1
:10216000CB051092CC051092CD051092CE051092A1
:10217000D0051092CF051092D2051092D105109281
:10218000D3051092D5051092D4058FEF9FEF909351
:10219000BC058093BB0580915704803398F491E08F
:1021A000980F909357048093580490E0FC01EE0F31
:1021B000FF1FE80FF91FE953FC4F88EB9BE0928368
:1021C000818308958FEF809358040895789484B59F
:1021D000826084BD84B5816084BD85B5826085BD23
:1021E00085B5816085BD80916E00816080936E00B1
:1021F00010928100809181008260809381008091A3
:102200008100816080938100809180008160809353
:1022100080008091B10084608093B1008091B00013
:1022200081608093B00080919100826080939100E2
:1022300080919100816080939100809190008160F5
:10224000809390008091A10082608093A100809192
:10225000A10081608093A1008091A00081608093A3
:10226000A000809121018260809321018091210151
:102270008160809321018091200181608093200101
:1022800080917A00846080937A0080917A008260E5
:1022900080937A0080917A00816080937A008091A7
:1022A0007A00806880937A001092C100809158046F
:1022B000803308F052C061E082E00E94DE0380912A
:1022C0005804282F30E0F901EE0FFF1FE20FF31F33
:1022D000E953FC4F9081907C926090831092590456
:1022E00010925A042CE0622F0E943816829FB0018F
:1022F000112430E020E0AB01420F531FFA01EE0F32
:10230000FF1FE40FF51FE953FC4F908196FD17C0A6
:102310002F5F3F4F2C30310571F7813009F0DEC05F
:102320001092800082E080938100109285001092CC
:102330008400B19A80916F00826080936F00E09179
:1023400058048E2F90E0FC01EE0FFF1FE80FF91FDD
:10235000E953FC4F80818064808390E080E00E949C
:10236000CD0260E085E40E94DE03E0919D02F091E1
:102370009E0222E02083E0919902F0919A0210825D
:10238000E0919B02F0919C028DEA80831092A5025D
:10239000E091A102F091A20296E09083E0919F0269
:1023A000F091A002808180618083E0919F02F09192
:1023B000A002808188608083E0919F02F091A0025A
:1023C000808180688083E0919F02F091A0028081EB
:1023D0008F7D8083E0913A03F0913B032083E0916D
:1023E0003603F09137031082E0913803F0913903FE
:1023F0008FEC808310924203E0913E03F0913F0303
:102400009083E0913C03F0913D0380818061808363
:10241000E0913C03F0913D03808188608083E091EE
:102420003C03F0913D03808180688083E0913C0310
:10243000F0913D0380818F7D808380E092E09093D6
:10244000C0058093BF050E948F04DC01CB01885832
:102450009341A109B1098093C7059093C805A09342
:10246000C905B093CA058093C3059093C405A09392
:10247000C505B093C6058093CB059093CC05A0937A
:10248000CD05B093CE05E091BD05F091BE058AE281
:1024900093E091838083E091BD05F091BE051282A7
:1024A0001092D5051092D4050E948F046B017C0117
:1024B0008091D4059091D5050197E1F10E948F0498
:1024C0006C197D098E099F09603576448105910557
:1024D00088F58DEB95E00E949A07EACF823061F48F
:1024E00010929000809391001092950010929400A9
:1024F00088BB8093710023CF833069F41092A000D1
:1025000082E08093A1001092A5001092A40089BBE4
:102510008093720014CF811112CF1092200182E0BB
:102520008093210110922501109224018ABB80938F
:10253000730005CF8091D4059091D505019709F0DE
:10254000AACF8091BB059091BC0597FF21C00E9446
:102550008F04EBE5F4E050E040E026E1249FD00159
:10256000259FB00D1124A55ABB4FED01322F1992B2
:102570003A95E9F760837183828393834F5F5F4F5E
:1025800076964031510551F71092BC051092BB056B
:102590008091BB059091BC054097B4F5EBE5F4E064
:1025A00090E080E024813581232B09F03AC1268117
:1025B0003781232B09F035C126E1289FE001299FAF
:1025C000D00D1124C55ADB4F88EE93E0A0E0B0E0B7
:1025D0008B879C87AD87BE8780EE9DE09D838C8333
:1025E0001A86188A1F8681E08B8B0E948F0468836D
:1025F00079838A839B838091BB059091BC0501966A
:102600009093BC058093BB0522242394312C85E450
:102610000E941A049C01990F440B550B215031095B
:1026200041095109A4E6B0E00E94E4152AEA32E02B
:1026300040E050E00E94C51530938302209382024F
:1026400080E592E00E94D1068FE592E00E94D106DB
:102650006091820270918302072E000C880B990B07
:1026600097FFE6C00E9422078FE592E00E94D10604
:102670008FE592E00E94D10682E692E00E94D106A8
:102680008FE592E00E94D1066091800270918102F4
:10269000072E000C880B990B97FFCEC00E942207D3
:1026A0008FE592E00E94D1068FE592E00E94D1066C
:1026B000A0918202B0918302809180029091810268
:1026C0008A179B070CF0BCC0A81BB90B2AE530E0A9
:1026D0000E944C1624E630E040E050E00E94C51510
:1026E0008AE590E0821B930B0E94CD028DEB95E072
:1026F0000E949A070E948F042B013C010BE514E015
:10270000E8011D8A1C8A8C819D81892B21F48E8190
:102710009F81892B71F188809980AA80BB80C30139
:10272000B201681979098A099B09CB84DC84ED849C
:10273000FE846C157D058E059F05D8F0A7019601D6
:102740000E94F715C701B6010E942816860E971E33
:10275000A81EB91E88829982AA82BB828B8988238F
:1027600041F02F8538892115310509F06CC03D8A6B
:102770002C8A6696ABEBB5E0AC17BD0711F6D0E03E
:10278000C0E0F80184899589892BD9F18285882355
:1027900009F46DC00680F781E02DD80118968D915F
:1027A0009C911995F80184899589029751F580913A
:1027B000BB059091BC05892B21F184819581892BE2
:1027C00021F486819781892BE1F026E12C9FF0018D
:1027D0002D9FF00D1124E55AFB4FDF011D922A9524
:1027E000E9F70E948F04F8016083718382839383E9
:1027F0008091BB059091BC0501979093BC05809397
:10280000BB0521960A5E1F4FC031D10509F0B9CF33
:1028100064EF71E080E090E00E945C040E94A805F3
:10282000F6CE019676968031910509F0BBCEECCEBE
:102830004AE00E94DE0618CF4AE00E94DE0630CF52
:102840008AE590E051CF89899A898217930708F029
:1028500090CF3D8A2C8A01969A8B898B8217930799
:1028600008F487CF82E090E09D8B8C8B82CF048030
:10287000F581E02D199596CF0F931F93CF93DF939A
:102880008230910510F482E090E0E091DB05F09158
:10289000DC0530E020E0B0E0A0E0309799F42115AD
:1028A000310509F44AC0281B390B24303105D8F50D
:1028B0008A819B816115710589F1FB019383828374
:1028C000FE0111C0408151810281138148175907CF
:1028D000E0F04817590799F4109761F012960C939D
:1028E000129713961C933296CF01DF91CF911F91CF
:1028F0000F9108950093DB051093DC05F4CF2115AB
:10290000310551F04217530738F0A901DB019A0154
:10291000BD01DF01F801C1CFEF01F9CF9093DC05D4
:102920008093DB05CDCFFE01E20FF31F81939193DE
:102930002250310939832883D7CF2091D90530918E
:10294000DA05232B41F420912302309124023093A5
:10295000DA052093D9052091210230912202211518
:10296000310541F42DB73EB7409125025091260222
:10297000241B350BE091D905F091DA05E217F30736
:10298000A0F42E1B3F0B2817390778F0AC014E5FDF
:102990005F4F2417350748F04E0F5F1F5093DA053D
:1029A0004093D905819391939FCFF0E0E0E09CCFD5
:1029B000CF93DF930097E9F0FC01329713821282E4
:1029C000A091DB05B091DC05ED0130E020E010972F
:1029D000A1F420813181820F931F2091D90530917C
:1029E000DA052817390709F061C0F093DA05E0939A
:1029F000D905DF91CF910895EA01CE17DF07E8F5F9
:102A00004A815B819E0141155105B1F7E901FB83C4
:102A1000EA8349915991C40FD51FEC17FD0761F462
:102A2000808191810296840F951FE90199838883A3
:102A3000828193819B838A83F0E0E0E012968D91FE
:102A40009C9113970097B9F52D913C911197CD0169
:102A50000296820F931F2091D9053091DA0528172D
:102A6000390739F6309751F51092DC051092DB05E5
:102A7000B093DA05A093D905BCCFD383C28340813C
:102A80005181840F951FC817D90761F44E5F5F4FBE
:102A900088819981480F591F518340838A819B8186
:102AA000938382832115310509F0B0CFF093DC05C3
:102AB000E093DB059ECFFD01DC01C0CF13821282C3
:102AC000D7CFFC0188279927E89421912032E9F398
:102AD000293010F02E30C8F32B3241F02D3239F46A
:102AE000689404C00E949315820F911D2191205378
:102AF0002A30C0F31EF4909581959F4F0895FB01F5
:102B0000DC0102C005900D9241505040D8F7089565
:102B1000BB274A3031F4992322F4BDE29095819588
:102B20009F4F0C949C157AE0979F902D879F802D46
:102B3000910D11240895BB27FB015527AA27880F63
:102B4000991FAA1FA41710F0A41B83955051B9F721
:102B5000A05DAA3308F0A95DA193009779F7B111A0
:102B6000B1931192CB010C94B515DC01FC01672FD8
:102B700071917723E1F7329704C07C916D93708354
:102B80006291AE17BF07C8F30895052E97FB1EF498
:102B900000940E94DC1557FD07D00E94F71507FC32
:102BA00003D04EF40C94DC1550954095309521954A
:102BB0003F4F4F4F5F4F0895909580957095619569
:102BC0007F4F8F4F9F4F08950E941916A59F900D1C
:102BD000B49F900DA49F800D911D11240895B7FFFF
:102BE0000C94E4150E94E415821B930B0895A1E256
:102BF0001A2EAA1BBB1BFD010DC0AA1FBB1FEE1F77
:102C0000FF1FA217B307E407F50720F0A21BB30BC1
:102C1000E40BF50B661F771F881F991F1A9469F73D
:102C200060957095809590959B01AC01BD01CF0199
:102C30000895A29FB001B39FC001A39F700D811D95
:102C40001124911DB29F700D811D1124911D0895B5
:102C5000DB018F939F930E94E415BF91AF91A29FD8
:102C6000800D911DA39F900DB29F900D112408958A
:102C7000991B79E004C0991F961708F0961B881FCE
:102C80007A95C9F780950895EE0FFF1F881F8BBFB7
:102C90000790F691E02D19940E941916B7FF089538
:102CA000821B930B0895FB01DC0102C001900D9281
:102CB00041505040D8F70895FB01DC018D910190FF
:102CC00080190110D9F3990B0895FB01DC014150E3
:102CD000504048F001900D920020C9F701C01D92AC
:0C2CE00041505040E0F70895F894FFCFF9
:102CEC00713666722D6C51694A5F7871534F6F352E
:102CFC005462715178474472636767657448436ADC
:102D0C00000000DD058000000000003B059B04C8AE
:102D1C00048805F904D704EB04696E006F75740020
:102D2C0070776D00707500647700617700767700BE
:102D3C006F757473696465206C696768743A000D0B
:102D4C000A007573657220676976656E206C696719
:0A2D5C0068742076616C75653A001A
:00000001FF
