:100000000C9439010C946A010C946A010C946A01F5
:100010000C946A010C946A010C946A010C946A01B4
:100020000C946A010C946A010C946A010C946A01A4
:100030000C946A010C946A010C946A010C946A0194
:100040000C946A010C94CD060C946A010C946A011C
:100050000C946A010C946A010C946A010C94F905E1
:100060000C946A010C94C3050C9499050C946A01D4
:100070000C946A010C946A010C946A010C946A0154
:100080000C949F060C946A010C946A010C946A010A
:100090000C946A010C946A010C946A010C946A0134
:1000A0000C946A010C946A010C9471060C946A0118
:1000B0000C946A010C946A010C946A010C94430636
:1000C0000C946A010C946A010C946A010C946A0104
:1000D0000C946A010C946A010C946A010C946A01F4
:1000E0000C946A010C9436030C9463030C94410342
:1000F0000C94FB060C94BD020C9459030C946703FA
:100100000C945F030C9438020C9470020C94160249
:100110000C9451030C9407020C946C030C949705F7
:100120000C9455030C943E030C946D030C94320311
:100130000C942C030C9471030C944B030C94470304
:100140000C9455040C942A020C94DA010C943A0392
:1001500000002100240027002A002D003000330079
:1001600001010000040107010A010000220025002E
:1001700028002B002E003100340002010000050190
:1001800008010B01000020002300260029002C009C
:100190002F003200000100000301060109010505DE
:1001A0000505070508080808020202020A0A0808ED
:1001B000040404040101010101010101030303031B
:1001C00003030303040707070C0C0C0C0C0C0C0CAA
:1001D0000202020206060606060606060B0B0B0BBB
:1001E0000B0B0B0B010210202008081020401020E0
:1001F00040800201020108040201010204081020EB
:1002000040808040201008040201800402018040E8
:100210002010080402010804020101020408102051
:100220004080010204081020408000000A0B0209EF
:100230000C0D0E0807030401000000000000000080
:1002400000000000000000000000000000000000AE
:10025000000000000000121110000000000000006B
:10026000000000000000000000000000000000008E
:10027000FB0611241FBECFEFD1E2DEBFCDBF00E0F1
:100280000CBF12E0A0E0B2E0E6ECF8E100E00BBF4A
:1002900002C007900D92A432B107D9F723E0A4E27F
:1002A000B2E001C01D92A537B207E1F711E0C9E342
:1002B000D1E000E006C021970109802FFE010E94D5
:1002C000340BC833D10780E00807A9F70E947207F2
:1002D0000C94610C0C9400008F929F92AF92BF928D
:1002E000FF920F931F93CF93DF93F0906E032FE253
:1002F0002F1508F455C02091700308E512E0021B89
:10030000110927FD1395000F111F000F111F2091D8
:100310006F03C8E8D0E0C21BD10927FDD395CC0FED
:10032000DD1FCC0FDD1F4E010D2E000CAA08BB08EF
:10033000DC01853B910514F0A4EBB0E0B7FF02C0EF
:10034000B0E0A0E09801012E000C440B550B2819D9
:1003500039094A095B090E94B90924EB30E040E001
:1003600050E00E948F09820E931EA41EB51E8C16AB
:100370009D062CF0E801801691060CF4E40122970A
:10038000CC0FDD1F2FB7F8948F2D90E0FC01EE0FFE
:10039000FF1FE80FF91FE053FD4FD283C1832FBF2A
:1003A000DF91CF911F910F91FF90BF90AF909F90E1
:1003B0008F900895AF92BF92CF92DF92EF92FF920B
:1003C0000F931F93CF93DF936C017B018B01040F7D
:1003D000151FEB015E01AE18BF08C017D10759F019
:1003E0006991D601ED91FC910190F081E02DC6015B
:1003F0001995892B79F7C501DF91CF911F910F9145
:10040000FF90EF90DF90CF90BF90AF900895FC01E8
:10041000538D448D252F30E0842F90E0821B930B69
:10042000541710F0CF96089501970895FC01918D0F
:10043000828D981761F0A28DAE0FBF2FB11D5D9612
:100440008C91928D9F5F9F73928F90E008958FEFB4
:100450009FEF0895FC01918D828D981731F0828D68
:10046000E80FF11D858D90E008958FEF9FEF0895BF
:10047000FC01918D228D892F90E0805C9F4F821B23
:1004800091098F739927089583E392E00E943802BF
:1004900021E0892B09F420E0822F0895FC01A48D2E
:1004A000A80FB92FB11DA35ABF4F2C91848D90E096
:1004B00001968F739927848FA689B7892C93A08979
:1004C000B1898C91837080648C93938D848D981303
:1004D00006C00288F389E02D80818F7D8083089596
:1004E000EF92FF920F931F93CF93DF93EC0181E084
:1004F000888F9B8D8C8D98131AC0E889F98980812B
:1005000085FF15C09FB7F894EE89FF896083E8895D
:10051000F98980818370806480839FBF81E090E04F
:10052000DF91CF911F910F91FF90EF900895F62EDC
:100530000B8D10E00F5F1F4F0F731127E02E8C8D76
:100540008E110CC00FB607FCFACFE889F9898081BB
:1005500085FFF5CFCE010E944E02F1CFEB8DEC0F5F
:10056000FD2FF11DE35AFF4FF0829FB7F8940B8FD8
:10057000EA89FB8980818062CFCFCF93DF93EC0142
:10058000888D8823B9F0AA89BB89E889F9898C917B
:1005900085FD03C0808186FD0DC00FB607FCF7CF37
:1005A0008C9185FFF2CF808185FFEDCFCE010E9437
:1005B0004E02E9CFDF91CF91089580E090E0892B42
:1005C00029F00E94440281110E94000080E090E026
:1005D000892B49F080E090E0892B29F00E940000EF
:1005E00081110E94000080E090E0892B49F080E0BA
:1005F00090E0892B29F00E94000081110E940000E8
:1006000080E090E0892B49F080E090E0892B29F090
:100610000E94000081110C940000089581508231E5
:1006200008F05AC0E82FF0E08827E65EFC4F8F4FB5
:100630000C94340B3A033E032C03320336036C0351
:10064000410347034B035103550359035F036303FE
:100650006C0367036D037103809180008F77809333
:1006600080000895809180008F7DF9CF8091800077
:10067000877FF5CF84B58F7784BD089584B58F7D4E
:10068000FBCF8091B0008F778093B0000895809168
:10069000B0008F7DF9CF809190008F77809390008C
:1006A0000895809190008F7DF9CF80919000877F91
:1006B000F5CF8091A0008F778093A000089580915E
:1006C000A0008F7DF9CF8091A000877FF5CF80912A
:1006D00020018F77809320010895809120018F7DE4
:1006E000F9CF80912001877FF5CFCF93DF93282F1B
:1006F00030E0F901E65DFD4F8491F901EC51FE4FC8
:10070000D491F901E256FE4FC491CC23A1F081119E
:100710000E940E03EC2FF0E0EE0FFF1FEC57FE4F90
:10072000A591B491EC91ED2381E090E009F480E093
:10073000DF91CF91089580E090E0FACF1F93CF939F
:10074000DF93282F30E0F901E65DFD4F8491F90138
:10075000EC51FE4FD491F901E256FE4FC491CC23E7
:10076000A9F0162F81110E940E03EC2FF0E0EE0F7E
:10077000FF1FE659FE4FA591B4918FB7F894EC9105
:10078000111108C0D095DE23DC938FBFDF91CF918C
:100790001F910895DE2BF8CFCF93DF9390E0FC01FB
:1007A000EC51FE4F249182569E4FFC018491882388
:1007B000D1F090E0880F991FFC01E05BFE4FA591FE
:1007C000B491FC01E659FE4FC591D49161110EC060
:1007D0009FB7F8948C91E22FE0958E238C9328811B
:1007E000E223E8839FBFDF91CF9108958FB7F894FC
:1007F000EC91E22BEC938FBFF6CF3FB7F89480914A
:100800002D0290912E02A0912F02B091300226B5B8
:10081000A89B05C02F3F19F00196A11DB11D3FBF38
:10082000BA2FA92F982F8827BC01CD01620F711D07
:10083000811D911D42E0660F771F881F991F4A9501
:10084000D1F708958F929F92AF92BF92CF92DF928D
:10085000EF92FF926B017C010E94FD034B015C0152
:10086000C114D104E104F104B9F00E94FD03681938
:1008700079098A099B09683E73408105910580F3D7
:1008800021E0C21AD108E108F10888EE880E83E061
:10089000981EA11CB11CE4CFFF90EF90DF90CF9089
:1008A000BF90AF909F908F9008950895AF92BF92A0
:1008B000CF92DF92EF92FF920F931F93CF93DF932C
:1008C0006B017A01EC01CC5DDD4F28813CE0389F63
:1008D0008001399F100D1124A0906003B12C27FFD7
:1008E0001FC0FB011182108288818F5F88838881FD
:1008F0009801280F311D87FD3A95F6012A153B0511
:100900001CF488818C30C4F18081918104968034FC
:100910009C4908F473C0F60180819181049670C0EF
:1009200088819801280F311D87FD3A952A153B05CE
:10093000DCF68881A801480F511D87FD5A95FA0100
:10094000EE0FFF1FE40FF51FE053FD4F808186FF80
:10095000CBCF8881F801E80FF11D87FDFA95CF0113
:10096000EE0FFF1FE80FF91FE053FD4F808160E09D
:100970008F730E949E03B8CF808191812881A80146
:10098000420F511D27FD5A959A01FA01EE0FFF1FE4
:10099000E20FF31FE053FD4F21813281820F931F3D
:1009A000F7019183808388819801280F311D87FD8D
:1009B0003A95F901EE0FFF1FE20FF31FE053FD4FD1
:1009C000808186FF22C08881080F111D87FD1A953E
:1009D000F801EE0FFF1FE00FF11FE053FD4F808184
:1009E00061E08F73DF91CF911F910F91FF90EF9096
:1009F000DF90CF90BF90AF900C949E0380E49CE971
:100A0000F701918380838FEF8883DF91CF911F91CE
:100A10000F91FF90EF90DF90CF90BF90AF9008952F
:100A2000CF93DF93C4EBD0E0CE010E946C016AE06B
:100A300070E080E090E00E9422042A97C63F8FEF8A
:100A4000D80791F7DF91CF910895FF920F931F93ED
:100A5000CF93DF93F82E062FC7E0D0E010E061E0DF
:100A6000802F0E949E038F2D0E9475030C2E01C0C3
:100A7000880F0A94EAF7182B60E0802F0E949E03EB
:100A8000219768F7812FDF91CF911F910F91FF90F0
:100A900008958F929F92AF92BF920F931F93CF931F
:100AA000DF93CDB7DEB7A1970FB6F894DEBF0FBEC8
:100AB000CDBF19A2423008F44AE08E010F5D1F4FEE
:100AC000842E912CB12CA12CA50194010E94C10966
:100AD000E62FB901CA01EA3044F5E05DD801EE9392
:100AE0008D01232B242B252B79F790E080E01097A4
:100AF00069F0FD0101900020E9F73197AF014A1B31
:100B00005B0BBD0183E392E00E94DA01A1960FB670
:100B1000F894DEBF0FBECDBFDF91CF911F910F9133
:100B2000BF90AF909F908F900895E95CD7CF0C94C1
:100B3000D80B1F920F920FB60F9211240BB60F9283
:100B40002F933F934F935F936F937F938F939F93D5
:100B5000AF93BF93EF93FF9383E392E00E944E0223
:100B6000FF91EF91BF91AF919F918F917F916F9185
:100B70005F914F913F912F910F900BBE0F900FBE41
:100B80000F901F9018951F920F920FB60F9211247D
:100B90000BB60F922F938F939F93EF93FF93E09158
:100BA0004302F09144028081E0914902F0914A02AF
:100BB00082FD1DC0908180914C028F5F8F732091C8
:100BC0004D02821741F0E0914C02F0E0ED5CFD4FE8
:100BD000958F80934C02FF91EF919F918F912F9170
:100BE0000F900BBE0F900FBE0F901F901895808135
:100BF000F2CF1F920F920FB60F9211242F933F93B3
:100C00008F939F93AF93BF938091290290912A0273
:100C1000A0912B02B0912C023091280223E0230FE7
:100C20002D3758F50196A11DB11D20932802809300
:100C3000290290932A02A0932B02B0932C02809158
:100C40002D0290912E02A0912F02B09130020196B8
:100C5000A11DB11D80932D0290932E02A0932F020F
:100C6000B0933002BF91AF919F918F913F912F919F
:100C70000F900FBE0F901F90189526E8230F029635
:100C8000A11DB11DD2CF1F920F920FB60F9211244A
:100C90000BB60F922F933F934F935F936F937F9376
:100CA0008F939F93AF93BF93EF93FF9348E251E0ED
:100CB00064E271E090E080E00E945604FF91EF91C1
:100CC000BF91AF919F918F917F916F915F914F9164
:100CD0003F912F910F900BBE0F900FBE0F901F9062
:100CE00018951F920F920FB60F9211240BB60F9208
:100CF0002F933F934F935F936F937F938F939F9324
:100D0000AF93BF93EF93FF9348EA50E064EA70E03B
:100D100083E090E00E945604FF91EF91BF91AF9164
:100D20009F918F917F916F915F914F913F912F9103
:100D30000F900BBE0F900FBE0F901F9018951F9233
:100D40000F920FB60F9211240BB60F922F933F9371
:100D50004F935F936F937F938F939F93AF93BF93C3
:100D6000EF93FF9348E950E064E970E082E090E09F
:100D70000E945604FF91EF91BF91AF919F918F9187
:100D80007F916F915F914F913F912F910F900BBE8B
:100D90000F900FBE0F901F9018951F920F920FB6D5
:100DA0000F9211240BB60F922F933F934F935F93A3
:100DB0006F937F938F939F93AF93BF93EF93FF9323
:100DC00048E850E064E870E081E090E00E9456045A
:100DD000FF91EF91BF91AF919F918F917F916F9113
:100DE0005F914F913F912F910F900BBE0F900FBECF
:100DF0000F901F901895109236021092350288EECF
:100E000093E0A0E0B0E08093370290933802A09383
:100E10003902B0933A028AE092E0909334028093D0
:100E2000330285EC90E09093400280933F0284EC83
:100E300090E0909342028093410280EC90E0909386
:100E400044028093430281EC90E0909346028093A9
:100E5000450282EC90E0909348028093470286EC32
:100E600090E090934A028093490210924C021092B3
:100E70004D0210924E0210924F0280916003803317
:100E800068F591E0980F9093600380936E0390E073
:100E9000FC01EE0FFF1FE80FF91FE053FD4F88EB39
:100EA0009BE0928381838CE192E090936203809334
:100EB0006103109266031092670310926803109208
:100EC000690380E090E0A0E8BFE380936A03909319
:100ED0006B03A0936C03B0936D0308958FEF809321
:100EE0006E03E1CF789484B5826084BD84B581605F
:100EF00084BD85B5826085BD85B5816085BD8091E5
:100F00006E00816080936E0010928100809181005C
:100F10008260809381008091810081608093810054
:100F2000809180008160809380008091B100846016
:100F30008093B1008091B00081608093B000809177
:100F400091008260809391008091910081608093F4
:100F50009100809190008160809390008091A10029
:100F600082608093A1008091A10081608093A100A4
:100F70008091A00081608093A00080912101826017
:100F800080932101809121018160809321018091D2
:100F9000200181608093200180917A008460809399
:100FA0007A0080917A00826080937A0080917A0042
:100FB000816080937A0080917A00806880937A00C3
:100FC0001092C100E0914302F091440292E09083BC
:100FD000E0913F02F09140021082E0914102F091D5
:100FE00042028FEC808310924B02E0914702F09115
:100FF000480286E08083E0914502F09146028081BC
:1010000080618083E0914502F09146028081886092
:101010008083E0914502F091460280818068808360
:10102000E0914502F091460280818F7D808383E0CC
:10103000809363039093640361E00E94CC0360E0BB
:10104000809164030E94CC0381E0809365038091CA
:101050006E03803308F051C061E08CE00E94CC0345
:1010600080916E03282F30E0F901EE0FFF1FE20F91
:10107000F31FE053FD4F9081907C9C609083109211
:101080006F03109270032CE0622F0E94280B829F46
:10109000B001112430E020E0AB01420F531FFA01F0
:1010A000EE0FFF1FE40FF51FE053FD4F908196FDFB
:1010B00016C02F5F3F4F2C30310571F78130C1F5DD
:1010C0001092800082E0809381001092850010923F
:1010D0008400B19A80916F00826080936F00E091EC
:1010E0006E038E2F90E0FC01EE0FFF1FE80FF91F3B
:1010F000E053FD4F80818064808361E086E10E943F
:10110000CC0361E087E10E94CC0361E08BE00E94A8
:10111000CC030E941005809164030E947503EC01CA
:10112000892B91F160E070E0CB010E942204F3CFA3
:10113000823061F41092900080939100109295009B
:101140001092940088BB80937100C9CF833069F4FA
:101150001092A00082E08093A1001092A50010924E
:10116000A40089BB80937200BACF8111B8CF1092CE
:10117000200182E080932101109225011092240128
:101180008ABB80937300ABCFEFB6F8946091630392
:10119000809164030E942505182F6091630380915C
:1011A00064030E942505082F609163038091640306
:1011B0000E942505F82ED12CC12C809165038C1539
:1011C0001D0479F070F061E0809163030E949E033A
:1011D00060E0809163030E949E038FEFC81AD80AD3
:1011E000ECCFEFBE60E070E0CB010E942204602FE4
:1011F00070E090E080E0982F872F762F6627812B74
:101200006F29110F110B012F10E030E020E0302F7B
:10121000222711270027602B712B822B932B009103
:101220006603109167032091680330916903601B86
:10123000710B820B930B0E949C0A20916A033091E0
:101240006B0340916C0350916D030E94F20920E002
:1012500030E04AE754E40E94F2090E94640A709365
:101260003202609331026B01770FEE08FF084AE00B
:10127000C701B601F7FE0DC06DE283E392E00E9464
:10128000700266277727CB016C197D098E099F09AB
:101290004AE00E94490542E050E060E272E083E3E8
:1012A00092E00E94DA018091310290913202843BF7
:1012B000910574F160E08BE00E949E0360E087E19D
:1012C0000E949E03CE010E946C016AE070E080E003
:1012D00090E00E9422042A96CE3BD10599F761E066
:1012E00086E10E949E0368EB7BE080E090E00E9434
:1012F00022040E94100560E086E10E949E0360E7E0
:1013000077E180E090E00E9422040E94DD0203CF9A
:1013100061E08BE00E949E0361E087E1EECF052E45
:1013200097FB1EF400940E94A60957FD07D00E9467
:10133000C10907FC03D04EF40C94A60950954095C2
:10134000309521953F4F4F4F5F4F08959095809571
:10135000709561957F4F8F4F9F4F08950E94E309CD
:10136000A59F900DB49F900DA49F800D911D1124F9
:101370000895B7FF0C94AE090E94AE09821B930B2F
:101380000895A1E21A2EAA1BBB1BFD010DC0AA1FC6
:10139000BB1FEE1FFF1FA217B307E407F50720F0DE
:1013A000A21BB30BE40BF50B661F771F881F991F59
:1013B0001A9469F760957095809590959B01AC01A2
:1013C000BD01CF010895A29FB001B39FC001A39FAB
:1013D000700D811D1124911DB29F700D811D11246E
:1013E000911D08950E94060A0C94EE0A0E94E70AD5
:1013F00058F00E94E00A40F029F45F3F29F00C9475
:10140000D70A51110C94220B0C94DD0A0E94FF0A9A
:1014100068F39923B1F3552391F3951B550BBB2723
:10142000AA2762177307840738F09F5F5F4F220F68
:10143000331F441FAA1FA9F335D00E2E3AF0E0E85F
:1014400032D091505040E695001CCAF72BD0FE2FA9
:1014500029D0660F771F881FBB1F2617370748073D
:10146000AB07B0E809F0BB0B802DBF01FF279358F5
:101470005F4F3AF09E3F510578F00C94D70A0C94D8
:10148000220B5F3FE4F3983ED4F3869577956795FA
:10149000B795F7959F5FC9F7880F911D969587952A
:1014A00097F90895E1E0660F771F881FBB1F621749
:1014B00073078407BA0720F0621B730B840BBA0B07
:1014C000EE1F88F7E09508950E946B0A6894B111A9
:1014D0000C94220B08950E94070B88F09F5798F0F8
:1014E000B92F9927B751B0F0E1F0660F771F881F29
:1014F000991F1AF0BA95C9F714C0B13091F00E9443
:10150000210BB1E008950C94210B672F782F8827C9
:10151000B85F39F0B93FCCF3869577956795B39569
:10152000D9F73EF490958095709561957F4F8F4FD8
:101530009F4F0895E89409C097FB3EF490958095DD
:10154000709561957F4F8F4F9F4F9923A9F0F92F89
:1015500096E9BB279395F695879577956795B79507
:10156000F111F8CFFAF4BB0F11F460FF1BC06F5FED
:101570007F4F8F4F9F4F16C0882311F096E911C0FF
:10158000772321F09EE8872F762F05C0662371F020
:1015900096E8862F70E060E02AF09A95660F771F34
:1015A000881FDAF7880F9695879597F9089597F928
:1015B0009F6780E870E060E008959FEF80EC0895F9
:1015C00000240A9416161706180609060895002422
:1015D0000A9412161306140605060895092E03949C
:1015E000000C11F4882352F0BB0F40F4BF2B11F410
:1015F00060FF04C06F5F7F4F8F4F9F4F089557FD6F
:101600009058440F551F59F05F3F71F04795880F70
:1016100097FB991F61F09F3F79F087950895121607
:1016200013061406551FF2CF4695F1DF08C01616B3
:1016300017061806991FF1CF869571056105089464
:101640000895E894BB2766277727CB0197F908957B
:10165000991B79E004C0991F961708F0961B881F04
:101660007A95C9F780950895EE0FFF1F881F8BBFED
:101670000790F691E02D19940F931F93CF93DF936A
:101680008230910510F482E090E0E0917303F091D4
:10169000740330E020E0B0E0A0E0309799F4211529
:1016A000310509F44AC0281B390B24303105D8F51F
:1016B0008A819B816115710589F1FB019383828386
:1016C000FE0111C0408151810281138148175907E1
:1016D000E0F04817590799F4109761F012960C93AF
:1016E000129713961C933296CF01DF91CF911F91E1
:1016F0000F9108950093730310937403F4CF211591
:10170000310551F04217530738F0A901DB019A0166
:10171000BD01DF01F801C1CFEF01F9CF9093740350
:1017200080937303CDCFFE01E20FF31F819391935A
:101730002250310939832883D7CF2091710330910A
:101740007203232B41F42091020230910302309363
:101750007203209371032091000230910102211540
:10176000310541F42DB73EB7409104025091050276
:10177000241B350BE0917103F0917203E217F3071C
:10178000A0F42E1B3F0B2817390778F0AC014E5FF1
:101790005F4F2417350748F04E0F5F1F50937203B9
:1017A00040937103819391939FCFF0E0E0E09CCF51
:1017B000CF93DF930097E9F0FC01329713821282F6
:1017C000A0917303B0917403ED0130E020E0109715
:1017D000A1F420813181820F931F209171033091F8
:1017E00072032817390709F061C0F0937203E09380
:1017F0007103DF91CF910895EA01CE17DF07E8F575
:101800004A815B819E0141155105B1F7E901FB83D6
:10181000EA8349915991C40FD51FEC17FD0761F474
:10182000808191810296840F951FE90199838883B5
:10183000828193819B838A83F0E0E0E012968D9110
:101840009C9113970097B9F52D913C911197CD017B
:101850000296820F931F2091710330917203281713
:10186000390739F6309751F51092740310927303CB
:10187000B0937203A0937103BCCFD383C283408122
:101880005181840F951FC817D90761F44E5F5F4FD0
:1018900088819981480F591F518340838A819B8198
:1018A000938382832115310509F0B0CFF09374033F
:1018B000E09373039ECFFD01DC01C0CF138212823F
:0618C000D7CFF894FFCF22
:1018C600000075038000000000007002DA010702C4
:1018D600BD02380216022A020000000055049705D0
:0418E6000D0A0000E7
:00000001FF
